:10000000B005FE1F99C8000069C7000095C8000030
:1000100095C8000095C8000095C8000095C800006C
:1000200000000000000000000000000095C8000073
:1000300095C800000000000081A9000025AA00006A
:100040007DC1000055C20000C1C3000055C20000C0
:10005000C1C300007DC1000055C20000C1C3000043
:0800600055C20000C1C30000FD
:1000680002000000D8000000060000007800000030
:1000780000000090000000900000006000010C0DDE
:100088000000009000000090000010400001020DE8
:100098000000009000000090400400000001010DE5
:1000A8000000FE1F0000FE1F0000006000010C039E
:1000B8000000FE1F0000FE1F0000104000000203A9
:1000C8000000FE1FB001FE1F4004000000000103F5
:1000D80000000090000000900001000DC805FE1F00
:0800E800D099FE1F0000000387
:04040000FFFFFFFFFC
:04040400FFFDFFFFFA
:100440007090FE1FB40EFE1F0000000000000000B0
:100450000000000000000000000000009890FE1F57
:100460009C0EFE1F000000000000000000000000C5
:100470000000000000000000FC070000FFFFFF1F5D
:100480000000000000000000785634120101000056
:100490002000000000010100210000000000000019
:1004A0000001000000000000020100000000000048
:1004B000FFFFFF1F040000000A000000040000000E
:1004C00004000000FFFFFF1FFFFFFF1F00000000F0
:1004D00000010000000000000001000020000000FA
:1004E00000010100210000000000000000010000E8
:1004F000000000000201000000000100FFFFFF1FDC
:10050000040000000A0000000400000004000000D5
:1005100038E600000000000000000060000000005D
:1005200000000002FFFFFFFF7891FE1FE1AE000018
:10053000F0F0F0F001000000F8000000454C20460B
:10054000494C4558436F7079726967687420286315
:1005500029204D6963726F736F667420436F7270E8
:100560006F726174696F6E2E20416C6C20726967C6
:100570006874732072657365727665642E20202A14
:10058000202046696C65582047656E657269632056
:1005900056657273696F6E20362E312E35202A0013
:1005A0006401FE1F000000008898FE1FF098FE1FE7
:1005B0005899FE1F0000000000000000000000002D
:1005C000000000000000000000000000000000002B
:1005D000000000000000000000000000000000001B
:1005E000000000000000000000000000000000000B
:1005F0000348044B834202D0034B03B118477047B2
:10060000B001FE1FB001FE1F000000000548064BB0
:100610001B1AD90F01EBA301491002D0034B03B100
:1006200018477047B001FE1FB001FE1F0000000018
:1006300010B5064C237843B9FFF7DAFF044B13B12A
:100640000448AFF300800123237010BDC805FE1FCE
:10065000000000000804000008B5054B1BB1054967
:100660000548AFF30080BDE80840FFF7CFBF00BFEB
:1006700000000000CC05FE1F080400002DE9F04139
:10068000D0E902850446A8EB050740689742284454
:10069000154408D83A460E46A5EB08050CF0E4FBD5
:1006A00060682A46F1190CF0DFFBBFF35F8FE5604D
:1006B000BDE8F0812DE9F8430646D0E902048946F9
:1006C00017464FF0000833699C4203F1FF3228BF00
:1006D00003F1FF33A0EB04052ABF1B18131B1B1BE0
:1006E000BD4228BF3D469D42706828BF1D46494611
:1006F0002A4620440CF0B8FBB0682C44A844A94416
:100700007F1BA04208BF0024BFF35F8FF460002F5F
:10071000D9D14046BDE8F88310B5154CA822002178
:1007200020460CF091FB03212161124A61611248BD
:10073000A2614FF40061E061002321620F48A362CF
:1007400010216362E36222666066A1662367E36646
:100750006367BFF35F8F0A4BA3F1100C1846C21AF0
:1007600013F9011DA1546345F9D1BFF35F8F10BD8B
:10077000F40DFE1F7CD70000F405FE1FE405FE1FEC
:100780002CE500002DE9F04FDFF8A89099F8003033
:10079000532B83B005460F46144601D0FFF7BCFF2C
:1007A00005EB450309EBC3034FEA4508D3F86CB0EA
:1007B0001E6F5E451FD8ABEB060B5C4528BF5C4641
:1007C0001CB9204603B0BDE8F08FA24608EB050334
:1007D00009EBC3033846596E224631440CF044FB02
:1007E0002644BAF1000F04D0A84409EBC808C8F8A1
:1007F00070605446E5E79A6E596E0193A2EB060AC3
:10080000A24528BFA2463144524638460CF02CFB84
:10081000019B9B6E5644B342A4EB0A0414BFABEB9E
:10082000060B00265C4528BF5C46002CD9D05744F7
:10083000A244CBE7F40DFE1F10B50B46EFF3118475
:100840004FF0200181F311881946FFF79BFF84F3D5
:10085000118810BD38B5214B00EB400403EBC40EEA
:100860000130DEF82C4000EB4000012C8C46154690
:1008700003EBC00015D0022C0FD034BBDEF82830BB
:10088000DEF8242093429CBFDEF820105B18013B69
:100890009A1A95421CD9204638BDBDE83840FFF76A
:1008A00009BFDEF82830DEF82440A3429CBFDEF802
:1008B00020105B18013B1C1B944228BF14462246A3
:1008C0006146FFF7DBFE204638BD0024204638BDD8
:1008D0002A466146FFF7D2FE2C46DCE7F40DFE1FE8
:1008E000F8B50B4B1B78532B04460D46164601D02A
:1008F000FFF712FFEFF311874FF0200181F311880A
:10090000324629462046FFF7A5FF87F31188F8BD38
:10091000F40DFE1F10B5064C2378532B01D0FFF7C2
:10092000FBFEE36E206FC01A18BF012010BD00BF90
:10093000F40DFE1FD0E9013210B50446501C984258
:1009400007D823689954E2686368A0600132E260C6
:1009500002469A4200D010BD21682069FFF7C0FF0F
:10096000A368984215BF4FF0FF330023E360A360F4
:1009700010BD00BF2DE9F84F1546A942DDF82890BB
:100980000B9A0F4683461E4669D30B464FF001086B
:10099000B3FBF5F39D4208F10108F9D9B04538BF22
:1009A000B04612F0010A02D1B9F1000F3ED1DBF8D6
:1009B0000C30002B29DB012402E0013E05FB04F48E
:1009C000012EFAD8B7FBF4F39D4205D805FB04F4D9
:1009D000B7FBF4F39D42F9D9224E06E0AC42B4FBDA
:1009E000F5F30CD31C46B7FBF3F3F156584604FB62
:1009F0001377FFF79FFFDBF80C30002BEEDABAF12C
:100A0000000F02D0B9F1000F07D1BDE8F88FFFF752
:100A100091FFDBF80C30002BF7DBC1454FF02001D4
:100A2000584609F1FF39F2D8BDE8F88F930711D481
:100A300020240AE0FFF77EFFDBF80C30002B09F1E1
:100A4000FF39E2DBB9F1000FB3D0C145214658466A
:100A5000F0D8ACE7002E0CBF30242024F5E74FF08F
:100A600001089BE730E500002DE9F04F9BB04023E3
:100A70000DF12809CDE904930023CDE90730804624
:100A80000C461746069306E004A8FFF753FF079BA2
:100A9000002BC0F2AE8014F9011B002900F0A180E8
:100AA0002529F1D10026234613F9011BA1F12302C8
:100AB0000D2A08D8DFE802F08007070707070707B5
:100AC0007C0784070778A1F13002D2B2092A4FF0DF
:100AD000000501D90EE0013305EB850501EB450565
:100AE00093F90010A1F13002D2B2092A1C46A5F1F7
:100AF0003005F0D92E2900F08080002294F90010F2
:100B0000924621F00403682B04F101045CD02529EE
:100B1000BAD05839CBB2202BB9D82029B7D801A3E5
:100B200053F821F04B0C00008F0A00008F0A0000E0
:100B30008F0A00008F0A00008F0A00008F0A000051
:100B40008F0A00008F0A00008F0A00008F0A000041
:100B5000670C0000EF0C00008F0A00008F0A0000F5
:100B60008F0A00008F0A00008F0A00008F0A000021
:100B70008F0A00008F0A00008F0A00008F0A000011
:100B80008F0A0000D10C00008F0A00008F0A0000BD
:100B9000950C00008F0A00007B0C00008F0A0000FB
:100BA0008F0A00004B0C000046F002061C467AE754
:100BB00046F004061C4676E746F008061C4672E737
:100BC00046F001061C466EE714F9011B21F00403F0
:100BD000682B9CD114F9011B21F00403682B96D1DA
:100BE000F2E7079B002B04DD069C002C40F0B3804D
:100BF000234418461BB0BDE8F08F94F901102A2950
:100C000009D13B6802341A1D3A6094F900101A6841
:100C10004FF0010A75E7A1F13003DBB2092B04F1B3
:100C200001044FF0000200F2E38002EB820201EBCC
:100C3000420214F9011FA1F13003DBB2092BA2F12A
:100C40003002F2D94FF0010A5BE7386813460168B9
:100C500010220430CDE9005638600DEB0200FFF79A
:100C600089FE079B14E73B681A1D93F900103A6050
:100C700004A8FFF75FFE079B0AE7386801680430A5
:100C80001346CDE900560A22386004A8FFF772FE29
:100C9000079BFDE63B68191D39601D68002D00F0BB
:100CA0008E800132AE1815F9011B04A800293FF40B
:100CB000EEAEBAF1000F02D0B5423FF4E8AEFFF756
:100CC00039FE079B002BEEDA18461BB0BDE8F08F0B
:100CD0003A68116804323A60002208230192102217
:100CE00000930DEB0200FFF745FE079BD0E63B6843
:100CF000D3F800B004333B608BEAEB73A3EBEB73E8
:100D0000092B77DD4E484FF0010A19466329A0FBF5
:100D100003C30AF1010A4FEAD303F6DC924538BF58
:100D200092460DBB0798002503460028FFF661AFE9
:100D3000BBF1000F47DB730753D406F00303022B0C
:100D40005BD01346CDE9005659460A2204A8FFF7A6
:100D500011FE079B9CE62246494640460393FFF757
:100D6000BFFD039B234444E7BBF1000F06F00203E1
:100D70001CDB71071AD4002B59D0A2B1F3070ED592
:100D800011E004A80392FFF7D5FD0798039A002805
:100D900005F1FF350346FFF62CAF002DC5D0AA455F
:100DA0004FF02001EDD307980346BEE7013D0BB19C
:100DB000002AF8D0F107F6D4002DF0D1B2E7214D8A
:100DC0004FF0000A6DE72D2104A80392FFF7B2FD52
:100DD000039ACBF1000B079800280346FFF609AFF2
:100DE000ABE72B2104A80392FFF7A4FD039AF2E7D7
:100DF000924686E64FF0010A90E7002AA1D1002D25
:100E00009FD055454FF0300117D904A80392FFF742
:100E100091FD0798002805F1FF350346FFF6E9AE7E
:100E2000039A002DEDD10028FFF6E3AE89E7F00725
:100E3000B5D5079B002B84DADBE60346F3E700BF5A
:100E4000CDCCCCCC88D700000EB400B582B003ABBB
:100E500001AA53F8041B0193FFF706FE02B05DF8E8
:100E600004EB03B0704700BF8388B3F5806F16D0E2
:100E700007D9B3F5006F1BD112480022012103F0FE
:100E8000EFB89A1E062A0ED84FF48A7222FA03F39C
:100E9000DB0711D50B480022082103F0E1B80268F6
:100EA00012B1012A09D070470648022103F0D8B8D0
:100EB000B3F5804FEED070477047024800220421FE
:100EC00003F0CEB8CC0EFE1F0B4610B50D4A0E49EE
:100ED00004460020FFF7B8FF0C4883684BB90C4864
:100EE000836863B922460B49BDE810400020FFF734
:100EF000ABBF0AF09FFD06488368002BF2D00AF0D2
:100F000099FDEFE740E5000090D700007090FE1FCC
:100F10009890FE1FACD700002DE9F0411D4D1E4FEB
:100F20001E4EDFF898800FCD3C460FC495E80300B5
:100F300084E80300D6E90001C7E902860AF086FECC
:100F4000D8B9174C1749184D184F0020FFF77CFFF0
:100F50000FCCAC46ACE80F0094E803008CE803002B
:100F6000D6E90701C5E902870AF070FE48B9BDE875
:100F7000F0410F490020FFF767BF0E49FFF7A4FFBC
:100F8000DFE70D49FFF7A0FFBDE8F0410849002069
:100F9000FFF75ABF8CE50000B40EFE1F0000FE1FD5
:100FA000CCE50000E8D700009C0EFE1F1C00FE1FD1
:100FB00034D80000CCD7000018D80000690E00001B
:100FC0000A46006804210AF0BFBD00BF2DE9F047C2
:100FD00088B000253D493E480295242202F0D0FF0A
:100FE000002866D1FFF798FF3A49DFF81C91384D89
:100FF000394F3A4E0020FFF727FF0DF118084FF048
:10100000FF34009402AB01221F21284603F004F8AC
:101010000028F6D1029B5C073AD498072BD4D90755
:1010200030D41A071FD4DB06E9D52D490020FFF77D
:101030000BFF99E803004FF0000A88E803004FF423
:10104000807208232748CDF810A003A9CDF814A07A
:1010500003928DF81230FFF7B3FF0446E8B9224936
:10106000FFF7F2FECBE7214B214A22490020FFF790
:10107000EBFE029BD7E731460020FFF7E5FE029B1F
:10108000D907CED51C490020FFF7DEFE029BC8E73A
:101090003946FFF7D9FE029BBFE7184B144A1549A2
:1010A0005046FFF7D1FE164922465046FFF7CCFEC8
:1010B000A5E70446134B0E4A0E492846FFF7C4FE27
:1010C0000F4922462846FFF7BFFE8BE764D8000091
:1010D000CC0EFE1F9CD80000D4D80000FCD8000025
:1010E00070D900000000FE1FC0D9000048D90000E0
:1010F00054E5000090D7000020D90000F4D900008A
:10110000ACD7000074D80000B8D9000070B582B028
:1011100034230093184A194919484FF4006302F028
:10112000A9FE044610B1204602B070BD3826142531
:10113000CDE90056134B14491448012203F056F828
:10114000044698B9CDE90056114B124912480122C4
:1011500003F04CF804460028E5D0094802F0E4FE0C
:101160000A4803F0A5F8204602B070BD044802F01A
:10117000DBFE204602B070BD180FFE1F28DA00000B
:101180001817FE1F040FFE1F40DA00008417FE1F11
:10119000F00EFE1F50DA00004C17FE1F08B508487D
:1011A00002F0C2FE074803F083F8074803F080F816
:1011B000BDE80840054901220020FFF745BE00BFF9
:1011C0001817FE1F8417FE1F4C17FE1FACD7000018
:1011D0002DE98048002499B0CDE90D4400F0EEFCE3
:1011E00022462146012000F095FC9649964800F0E1
:1011F00009FD0D90002800F02083944A2821032047
:1012000000F088FC042108460DAA00F083FC07F0DA
:10121000A3FE03F0EBFB0E90002840F014830EAD0C
:101220000DF1400820263246002140460BF00CFE0E
:10123000874B884C93E8070088E8070094E807008C
:1012400013AB8DF84B6003C311A81A700BF026FD89
:10125000814C60600DF147000BF020FD034613A8A0
:10126000A3600BF01BFD03460DF14F00E3600BF094
:1012700015FD20610DF152000BF010FD63686061F7
:10128000B3F5FA6F84BFA3F5166363609DF9403030
:10129000413B122B17D8DFE813F0FC0216001600B2
:1012A0000503160009031600160016000D031600AC
:1012B00016001A0313002303160016001600F80286
:1012C000654A0B231360644BD3E90012986809F058
:1012D00083FA0E90002840F0CD825F4BD3E90412D0
:1012E000D86809F0A1FA0E90002840F0B882DFF823
:1012F000A891DFF8A8A10B950024584A0F9407CABB
:10130000434603C323F8022B120C1A700022114625
:101310000520CDF84B40CDF84F40CDF85340CDF8E7
:101320005740CDF85B408DF85F4000F0F3FB8DF83F
:1013300033400DF1330000F025FC0028F9D19DF871
:101340003330013B042B00F2D382DFE813F040017D
:101350001001A9002600050041480022082102F0E2
:101360007FFE002800F08D8183463E4A2D21032018
:1013700000F0D0FB3C4ACDF838B02521032000F026
:10138000C9FB3A4809F06AF9002840F07481042149
:101390000B9A084600F0BEFBAEE7354B009342F2D5
:1013A000B8424FF40073CDE901323249324B334A2F
:1013B0002E4809F09FF90546002840F055814FF46A
:1013C000F072034600922E492848424609F0C2F8BE
:1013D000002840F0808101464FF4205229480BF04C
:1013E00033FD284926480FAB4FF4205209F004F989
:1013F0000546002840F0A881234ADFF898B0234F23
:101400002321022000F086FB21492846FFF71CFD1E
:101410001C4B20491A7828461E46FFF715FD01256A
:10142000594616F8012F00200135FFF70DFD402D1C
:10143000394600F0338115F00F00F1D1FFF704FDBC
:10144000EEE700BF44E60000A494FE1F60DA00004F
:10145000D0DA0000DCDA0000BC67FE1F6CE500009B
:10146000CC0EFE1FBCDD000030DE0000B86BFE1F9E
:10147000B869FE1FF0DB000018E60000CDAD0000EB
:10148000D867FE1FBC17FE1F18DD0000F8D800004B
:101490003CDD000070DD0000B4D9000098E20000DF
:1014A000B04B009342F2B8414FF40073CDE90131E3
:1014B000AD4AAE4BAE49AF4809F01CF905460028CD
:1014C00040F0D280AB48414608F0D4FF0B2800F032
:1014D0008F81002840F03181A74A1B21022000F0B3
:1014E00019FB4FF4F0730093A449A248012342462C
:1014F00009F030F80546002840F08081A04A02F843
:10150000015F0135B5F5205FF9D19E499B482A4618
:1015100009F08EF8002840F064819B4A23210220C4
:1015200000F0F8FA994A93485369039313690293B8
:10153000D36801935368009313689268414608F09A
:10154000ADFF002840F06B818C4808F07FFF002839
:1015500040F06C81874809F081F80546002840F08A
:1015600096808B4A1F21022000F0D4FA2DE081489A
:1015700009F074F8054610B1112840F08880854ABA
:101580001621022000F0C6FA834B01930123CDE916
:101590000833079302934FF400734DF6F9700693E6
:1015A00000930023CDE904304FF4807303936F4A16
:1015B0006C4B6D496F4809F065F8002840F0848055
:1015C000764A2021022000F0A5FA0E9495E6744E8A
:1015D000744A1D21022000F09DFA3768BB68D7E9E4
:1015E00000011B6898470546002836D1BB68B168E2
:1015F0009B6938684FF0FF329847054668BB7669AB
:10160000DFF8D0B1BB683868DB690CA99847C6F32E
:1016100010010546002914BF49465146E8B9FFF7B5
:1016200013FC36F07F43594628460CD11846FFF785
:101630000BFC9DF83030721E002B00F0CD80002E88
:1016400053D01646DEE74946FFF7FEFB9DF83030E3
:10165000002B00F0C180013ED4E7AB46524A232163
:10166000032000F057FA85E6504A12210320AB46CA
:1016700000F050FA7EE64E4A1321032000F04AFAA9
:1016800085E64C4A2721022000F044FA9DE7484AAB
:1016900013210320AB4600F03DFA6BE646490020DB
:1016A000FFF7D2FB354808F0D1FE002840F0AD80AE
:1016B000304808F0D3FF05460028E8D13F4A2221F0
:1016C000022000F027FA80E783463D4A14210320D8
:1016D00000F020FA4EE63B4A83461121032000F039
:1016E00019FA244808F0BAFF44E6BB6838681B6B57
:1016F000984705460028B0D1274B01930123CDE937
:101700000833079302934FF40073069300934DF64A
:10171000F97305934FF4807304900393134A114BAC
:101720001149144808F0AEFF0546002895D1264A15
:101730002521022000F0EEF947E78346234A1621CF
:10174000032000F0E7F915E6214A11218346032022
:1017500000F0E0F9094808F079FE064808F07EFF3D
:1017600008E600BFB869FE1FCDAD000018E6000016
:10177000F0DB0000B86BFE1F48DC0000D867FE1FDE
:10178000BB3FFE1FBC3FFE1F8CDC0000BC67FE1F82
:10179000E4DC0000A4DB000038DB0000D0DB00004C
:1017A000D000FE1F18DB000044DB000000DC00005E
:1017B00090DB0000ECDD000078DD000098DD00002B
:1017C000BCDB000064DC000068DB000030DC0000F3
:1017D00004DD000044D90000002E86D14FF0140B28
:1017E0003CE78346454A1221032000F093F9C1E506
:1017F000434A1921022000F08DF972E68346414ADE
:101800001121032000F086F9B4E53F4A83461221F6
:10181000032000F07FF93D4808F020FFAAE5834649
:101820003B4A1D21032000F075F9A3E58346364AA3
:101830001221032000F06EF99CE5364A1E21022099
:1018400000F068F9E3E4344A2721032000F062F94C
:101850000EAD042108462A4600F05CF9E0E42F4A68
:101860001721032000F056F904212A46084600F00B
:1018700051F93CE52A4A1721032000F04BF90421D5
:101880002A46084600F046F927E5264A0923136050
:1018900019E59DF94130234A702B0CBF042308231E
:1018A000136010E51F4A0C2313600CE51D4A022348
:1018B000136008E59DF94130612B15D09DF9423048
:1018C000184A6E2B0CBF062307231360FBE49DF917
:1018D0004230144A722B0CBF032305231360F2E439
:1018E000104A0A231360EEE40E4A01231360EAE46F
:1018F0000D4A1B21022000F00DF966E678DC00009D
:1019000014DC000064DC0000D0DC0000B86BFE1FBB
:10191000B0DC000088DA0000A8DA000000DB00007C
:10192000E8DA0000BC67FE1F14DE0000037803B194
:101930007047012001F0AABF022800D07047024B77
:101940000248596809F0B8BF0CE600007091FE1F0C
:101950002DE9F04300249DB0232221460AA8CDE9B9
:1019600007440694CDF823400BF06EFA039402F07E
:1019700023F9594A034623210AA80BF017FAFFF767
:10198000C5FB002840F09880DFF88081DFF8809167
:101990000027FEF7BFFF48B30F2206A90020FEF77D
:1019A0004BFF4FF0FF3300F10A0213A94046139793
:1019B00002F02AFA0446002879D1139D039506A85F
:1019C0002C700BF05FFA421CC5F8012006A905F146
:1019D00009000BF049FA4FF0FF3203A9484602F024
:1019E0009FFCCDE906440894CDF823402322002132
:1019F00013A80497394C384E394D0BF025FA01E005
:101A00000A2825D0012204A9204602F067FC0028FC
:101A1000F6D1049B3246D3F80530232113A80BF0EE
:101A2000C5F9049A1378013B042B50D8DFE803F082
:101A300029231D1403002B490020FFF705FA29462E
:101A40000020FFF701FA049802F084FA0A28D9D19D
:101A5000012001F01BFF9CE7D2F80920002AEED0FC
:101A600021490020FFF7F0F9E9E720490932002079
:101A7000FFF7EAF9E3E71E4909320020FFF7E4F92E
:101A8000DDE705A805970AF019FE9DF815300193CA
:101A90009DF816300093174A17499DF8173000201B
:101AA000FFF7D2F915490020FFF7CEF9C7E714492F
:101AB0000020FFF7C9F999E7054612492046FFF7CC
:101AC000C3F909492A462046FFF7BEF95CE70E49EB
:101AD0000020FFF7B9F9B2E758DE00008417FE1FB7
:101AE000F8D80000B8E20000ACD70000A8E200007F
:101AF0009CE2000010DF000014DF00004CE1000059
:101B0000A0DE000078DE00003CE400001817FE1F95
:101B10004C17FE1FF0B583B00C460027064615464D
:101B2000154801F109024FF0FF3301A9CDE9007713
:101B300002F06AF9E0B111493846FFF785F9FFF77D
:101B40002DFB009F3E7002F037F8009BC7F80500A0
:101B50002246C3F80140294603F109000BF084F93D
:101B60004FF0FF326946064802F0DAFB03B0F0BDE1
:101B7000019F0097E6E700BF1817FE1F68E400000A
:101B80008417FE1F30B583B0044600250A4801952E
:101B9000FF2201A902F0A2FB28B9019808B103783D
:101BA0001BB102F0D7F903B030BD09300BF076F865
:101BB000034623700198F4E74C17FE1F30B520222E
:101BC00091B000210DEB02000BF03EF90C4807909C
:101BD000002403E001F05AFE7DB90798009409AA99
:101BE000CDE90344CDE901440AAB002102F0CEFC6B
:101BF0000A9A05460120002AECD011B030BD00BF82
:101C00008895FE1F70B586B0054609F0A9F904460F
:101C100010B1204606B070BDF52203468DF80820AD
:101C200002A90122284609F08DFB052240F20A3163
:101C30007F4809F093FD224640F20A317C4809F0C2
:101C4000A1FC4FF47A710A200AF048FD012240F20B
:101C50000A31774809F096FC764A754840F20A3115
:101C600009F07CFD4FF0C84302A91A6B64F301022E
:101C70001A6301239F228DF8082028461A46CDE9D1
:101C8000044409F05FFB04460028C2D1032204A9E2
:101C9000284609F00FFA04460028BAD19DF8103002
:101CA000C22B40F0C0809DF81130202B40F0BB804B
:101CB0009DF81230192B40F0B680012315228DF8C3
:101CC000082002A91A46284609F03CFB04460028D1
:101CD0009FD101220DF10701284609F0EBF90446D6
:101CE000002896D1012305228DF8082002A91A4662
:101CF000284609F027FB044600288AD101220DF16D
:101D00000601284609F0D6F90446002881D19DF83D
:101D1000063013F040033CD106228DF8082002A9BA
:101D20000122284609F00EFB044600287FF471AF1B
:101D30009DF8062042F040028DF809209DF807200A
:101D40008DF80A2003460126032202A928468DF8B1
:101D5000086009F0F7FA044600287FF45AAF8DF8BE
:101D6000046005E009F07CF9044600287FF451AFD7
:101D70009DF8043001A92846002BF3D104228DF8E8
:101D8000082002A9012209F0DDFA044600287FF4A8
:101D900040AFB7228DF808200023012202A928466F
:101DA00009F0D0FA044600287FF433AF3522034609
:101DB0008DF8082002A90122284609F0C3FA04463A
:101DC00000287FF426AF4FF0C84302201A6B60F35F
:101DD00001021A63AF238DF80830012302A91A46C5
:101DE0002846CDE9044409F0ADFA044600287FF402
:101DF00010AF032204A9284609F05CF90446002824
:101E00007FF407AF9DF81030C22B0CD19DF8113034
:101E1000202B08D19DF81230192B04D1284609F047
:101E2000FDF80446F5E60124204606B070BD00BF6B
:101E30007091FE1F000C011108B500F0F5F8BDE827
:101E40000840FFF7C3B800BF30B5104C104D2268F2
:101E500089B00123D018B0214FF48062CDE904335A
:101E6000CDE902330691019200950A4A20600A49A1
:101E70000A48002302F0E6FA08B909B030BD074865
:101E8000002109B0BDE8304000F0A8B88495FE1FDD
:101E9000D099FE1F391E000090E40000C090FE1F84
:101EA00000BE0120704700BF014608B5034808F096
:101EB00055FF003818BF012008BD00BF9493FE1FD6
:101EC00008B503460A460448194608F027FF0038BB
:101ED00018BF012008BD00BF9493FE1F844608B5BB
:101EE000044813460A46614608F0A8FE003818BFA9
:101EF000012008BD9493FE1F844608B5044813468C
:101F00000A46614608F082FE003818BF012008BD6D
:101F10009493FE1F014808F041BF00BF9493FE1F39
:101F20000A4910B504460A484C6008F027FE58B923
:101F3000084A094B0949C4E92523094A094BC4F851
:101F4000A430C4E9271210BD012010BDD000FE1F2F
:101F50009493FE1FF91E0000DD1E0000C11E00004C
:101F6000A91E0000A11E0000704700BF08B500F0C8
:101F70005BF8BDE80840FFF72BB900BF30B5104C47
:101F8000104D226889B00123D018B0214FF480523F
:101F9000CDE90433CDE902330691019200950A4A56
:101FA00020600A490A48002302F04CFA08B909B037
:101FB00030BD0748002109B0BDE8304000F00EB840
:101FC0008495FE1FD09DFE1F6D1F0000B4E400002D
:101FD000B494FE1FFFF7C8BF704700BF00BE704734
:101FE0000D4A0E490E4838B500240E4D14701C23BE
:101FF00001222C6002F0B6F940B9FFF7BFFF00F0F4
:1020000053F8FFF721FFFFF7E7FF38BD04482146EB
:10201000FFF7E4FFF1E700BF8095FE1FC4E4000076
:102020006495FE1F8495FE1F38B515484FF0FF31AB
:1020300002F0E6F9F0B9134B1A7802B138BD124C30
:1020400001221A70FFF7C6FF2368013B2360002BB3
:10205000F4D00B4D04E02368013B2360002BEDD04E
:10206000284602F0E3F90028F5D000212846FFF7C2
:10207000B5FFF0E702480021FFF7B0FFDBE700BF44
:102080006495FE1F8095FE1F8495FE1F08B500F025
:1020900037FC002008BD00BF08B5FFF7C5FFBDE84D
:1020A0000840FFF755BC00BF30B5104C104D2268FA
:1020B00089B00123D018B0214FF48062CDE90433F8
:1020C000CDE902330691019200950A4A20600A493F
:1020D0000A48002302F0B6F908B909B030BD074834
:1020E000002109B0BDE83040FFF778BF8495FE1F9E
:1020F000D0ADFE1F99200000D8E400008895FE1F97
:1021000003322DE9F04104460F46984622F00306BB
:10211000EFF3108272B6264B1D68256282F3108899
:102120003146204600F018F9EFF3108272B628B15C
:10213000386082F310880020BDE8F081236AAB424A
:10214000EBD13860B8F1000F25D01A4B196811BBDC
:10215000D5F8AC101848EC660131C5F8AC10A16A8E
:10216000A866481CC5E91E67A062C9B96562C5E9D1
:102170001C55092129630121A9631968C5F84C8000
:102180000131196082F31088284601F047FCD5F828
:102190008400BDE8F08182F310881020BDE8F08152
:1021A000616A2967486F686705674D67E1E700BFA7
:1021B0000497FE1F6C96FE1FBD21000010B5EFF3C3
:1021C000108372B61A4A846E944202D083F3108848
:1021D00010BDD0F8AC208A42F8D1C26E002AF5D0EA
:1021E000144914688C42F1D1916A0029EED0002480
:1021F000013984669162C1B1D0E91C144C67216732
:10220000546A844211D0026B092ADFD10A490A6854
:1022100010240132C0F884400A6083F3108801F072
:1022200083FBEFF3108372B6D0E75162EBE700BF98
:10223000BD210000455459426C96FE1FF8B5164664
:102240000F461D463422002104460AF0FDFD25F00C
:102250000303C4E90663A3F1080102223344E260E8
:102260001A46C4E90171C4E90466114943F8044CF3
:1022700042F8086D0023C6E900212362EFF31081C4
:1022800072B60C4A0C48136820600C4843B9E462EB
:10229000046024630133136081F310880020F8BDCB
:1022A0000068056B0463EC62C4E90B05F2E700BF4C
:1022B000EEEEFFFF3C96FE1F455459424096FE1F2E
:1022C0002DE9F041EFF3108172B6204A1368002423
:1022D000013B04601360002B2ED11D4A13601D4E7C
:1022E000446A3368856A0027013333604762876236
:1022F00081F310889DB14FF00108013DEFF310828A
:1023000072B63368A7660133C4F884802046336010
:10231000246F82F3108801F007FB002DEDD1EFF35D
:10232000108272B63368013B336082F3108801F08B
:10233000DDFA0020BDE8F081D0E90B32044C1A63CD
:10234000D3622268824208BF2360C8E73C96FE1F22
:102350004096FE1F6C96FE1FF0B5EFF3108C72B620
:10236000C36882689C1E02EBC4028A421AD9334AAF
:1023700044691568324E0562013300276268B24233
:1023800020D0246893B1013B8CF31088EFF3108CBC
:1023900072B6026AAA4203D0C36844690562013377
:1023A000002BEBD18CF310880020F0BD8CF310884B
:1023B000EFF3108C72B6036A9D42EDD18CF3108856
:1023C0000020F2E707B9446127683A1B083A9142B6
:1023D00015D9D7E900E2B24204D06BB1013B744693
:1023E0000127CFE7C268C4F800E0013AC260426941
:1023F000BA42F5D14461F3E774460127C4E7002AE5
:10240000D0D0531A132B0AD9C3685D1C01F10803FD
:102410000A46E75023440A495960C560236083682F
:102420006060083B9B1A42698360A24204BF236834
:1024300043618CF3108804F10800F0BD0497FE1F7F
:10244000EEEEFFFFEFF3108372B600287CD02DE98B
:10245000F0413F4A50F8044C9442A0F1080504D0E2
:102460001CB13C4926688E4204D083F310880320B7
:10247000BDE8F08138490E68266250F8081C40F823
:10248000042CA268491B0A44A2606269AA4200D9CE
:102490006561A26A002A52D02D4F656AD5F878800E
:1024A00083F3108841462046FFF756FFEFF3108371
:1024B00072B6A0F10802266290B1D4E9091CA942C3
:1024C00015D050F8085C40F8047CA1686069AD1A2A
:1024D00029449042A16088BF6261BCF1000FDCD149
:1024E00083F3108801F002FA0020BDE8F081A96FA3
:1024F0004145E6D10CF1FF32A2621AB32A6F696F2F
:10250000626251670A67DFF854E0DEF8002002F1EA
:10251000010CEA6F0021A9661060CEF800C0C5F872
:10252000841083F31088284601F0FEF9EFF310833E
:1025300072B6D4F828C0BCF1000FAED1D0E783F357
:102540001088D1E76262DEE783F3108803207047CA
:10255000EEEEFFFF455459420497FE1F6C96FE1F96
:1025600038B5EFF3108372B61B4A846E944202D0E2
:1025700083F3108838BDD0F8AC208A42F8D1C26EFF
:10258000002AF5D0154914688C42F1D1516900290F
:10259000EED0002484661469DCB101395161B1B117
:1025A000D0E91C15A0424D67296710D0026B072A9D
:1025B000DED10B49C0F884200A6801320A6083F337
:1025C000108801F0B1F9EFF3108372B6D0E7116112
:1025D000ECE70121D160E9E7612500004E44564453
:1025E0006C96FE1F38B504460D46242200210AF0E1
:1025F0002BFC6560EFF3108172B60B4A0B48136831
:1026000020600B4843B9A4610460E46101331360A6
:1026100081F31088002038BD0068C569C461AC61D1
:10262000C4E90605F2E700BF4C96FE1F4E4456442F
:102630005096FE1F70B50446EFF3108C72B680689A
:10264000256A20EA05051D60256A02F002060DB123
:1026500020EA05000840002E34D0814232D0049890
:10266000002840D027480568002D3CD100293AD0E9
:10267000254D2D68C5E91F32D5F8AC30234AA9672E
:102680000133C5F8AC306369EC66AA667BBB256193
:10269000C5E91C5501336361072203682A630122DF
:1026A0000133AA63049AEA6403608CF31088284615
:1026B00001F0B4F9EFF3108C72B6D5F884008CF306
:1026C000108870BD0028CAD012F001000CD06369D8
:1026D0000BB1206990B1A36823EA01030020A36035
:1026E0008CF3108870BD07208CF3108870BD2269B0
:1026F0002A67516F69670D675567CBE70D43256200
:10270000F2E700BF6C96FE1F0497FE1F61250000D4
:10271000EFF3108C72B6930710D5436933B9836811
:102720000B4083608CF31088002070470369002BF6
:10273000F5D1036A63EA01030362F3E72DE9F04F81
:102740008568036A0D4383B0856013B123EA0103F2
:102750000362D0E90421002A00F09680012900F0EC
:102760009C80624E019200239E46036133680133D0
:10277000336074462EE00023C360836841691D43C3
:10278000019BD3F88090D3F878801A6FD3F830A0EB
:1027900019F0020F05EA080B26D0D84524D0BAF16B
:1027A000070F15D0934235D0019FD3F87480C2F83B
:1027B0007480BB42C8F870205DD0476907F1FF38CC
:1027C000C0F814807CB30027CEF870301F679E4697
:1027D00001392DD08CF31088EFF3108C72B6C368DA
:1027E000002BC8D11346CCE7BAF1070FDAD1BBF101
:1027F000000FEDD0DF6F19F0010F3D6004D0876846
:1028000027EA0808C0F80880002793429F66C3F8AB
:102810008470C9D100270197476907F1FF38C0F8D4
:102820001480002CCFD101391C679E461C46D1D1A3
:10283000019B0361036A0BBB8CF310886CB12046CB
:10284000246FEFF3108272B633680133336082F382
:10285000108801F069F8002CF1D1EFF3108272B604
:102860003368013B336082F3108801F03FF80020A9
:1028700003B0BDE8F08F1F6F01979EE78268016289
:1028800022EA03028260D7E709B10123C3608CF317
:102890001088002003B0BDE8F08FD2F88010936F4D
:1028A0008E0705EA030401D59C42F0D1002CEED03E
:1028B000D46FC907256003D5816821EA03018160CF
:1028C0000A4C216800230131C0E90433216093667A
:1028D000C2F884308CF31088104601F025F8EFF32D
:1028E000108372B683F31088C1E700BF6C96FE1F99
:1028F00008B500F045FFBDE8084001F029BA00BF67
:1029000010B50E4C236813F10F3F0AD04FF0F0338F
:10291000236007F097FFFFF7EBFF094A13680133C5
:102920001360084A4FF0F03310682360FFF758FB3C
:1029300000232360BDE8104008F00EB8F000FE1F31
:102940006C96FE1F3896FE1F10B5EFF3108372B61B
:102950001A4A846E944202D083F3108810BDD0F8D6
:10296000AC208A42F8D1C26E002AF5D0144914680E
:102970008C42F1D1D1690029EED00024013984665E
:10298000D161C1B1D0E91C144C67216794698442BC
:1029900011D0026B0D2ADFD10A490A681D240132C9
:1029A000C0F884400A6083F3108800F0BDFFEFF3A5
:1029B000108372B6D0E79161EBE700BF49290000B0
:1029C0004554554D6C96FE1F70B50446EFF31083C9
:1029D00072B60D4ED0F8A40032680132326028B9C8
:1029E0003268013A326083F3108870BD012585603A
:1029F00083F3108800F0B6F9EFF3108372B6D4F8C1
:102A0000A4000028F3D1EBE76C96FE1F70B50446D6
:102A100015460E46342200210AF016FA666025613A
:102A2000EFF3108172B60C4B0C480D4A20600D4834
:102A3000186013680C4843B924620460646201336F
:102A4000136081F31088002070BD0068456A4462FD
:102A50002C62C4E90805F2E76896FE1F4554554DFF
:102A60004496FE1FC92900004896FE1F2DE9F0413B
:102A7000EFF3108272B627490B680024013B046013
:102A80000B60002B3BD124490B60244E84693368D2
:102A9000C56901333360C36800218161C16143B1FD
:102AA0000123836082F3108800F05CF9EFF3108259
:102AB00072B682F31088ADB14FF000080127013DD6
:102AC000EFF3108272B63368C4F868800133C4F83B
:102AD000847020463360246F82F3108800F024FF56
:102AE000002DECD1EFF3108272B63368013B3360F6
:102AF00082F3108800F0FAFE0020BDE8F081D0E9F2
:102B00000831054C59620B622168814208BF23607D
:102B1000BBE700BF4496FE1F4896FE1F6C96FE1F43
:102B2000F8B5EFF3108C72B6384A83681468E3B9CD
:102B30000123C0E90234A4B10369012B03D1E26A85
:102B4000426120238362D4F8A430002B40D01A6B5A
:102B50001863D062C0E90B32D4F8A0300133C4F856
:102B6000A0308CF310880020F8BDC268A24229D0A2
:102B700021B3274B1D680DBBD4F8AC50254EE06641
:102B80000135C4F8AC50C569A66635BB8461C4E99B
:102B90001C440135C561E1641968013119600D23D8
:102BA00023630123A3638CF310880369012B1BD0DB
:102BB000204600F033FFD4F88400F8BD8CF3108871
:102BC0001D20F8BD013383608CF310880020CBE713
:102BD000C4F8A400C0E90B00BEE786692667776FDA
:102BE00067673C677467D4E7E16A836A8B42D2F80F
:102BF0009C3088BF81629942D36A38BFC2F89C106A
:102C00009942D5D2104600F053F8D1E70497FE1F41
:102C10006C96FE1F4929000070B5EFF3108C72B658
:102C2000C469012C26D98269116FD36ACD6A022C3E
:102C30001DD01E4E336801339646336005E0C469EB
:102C4000196F1A468B4219D09E46CD6AD36A9D42AF
:102C500038BF0A468CF31088EFF3108C72B6836984
:102C60007345ECD1C569A5421ED02C46E8E79D42CC
:102C700038BF81618CF31088002070BD31689342A9
:102C800001F1FF31316009D0D2E91C4161670C6765
:102C9000596FC2E91C310A675A6782618CF3108848
:102CA00000F024FE002070BD096FCBE76C96FE1F7C
:102CB0002DE9F04104460D46EFF3108272B6036B26
:102CC00053B1D0F89830E1628B4228BF0B46C36302
:102CD00082F31088BDE8F0811F49C3640B681F4E62
:102CE000D0F82C80376802330B600E230363012376
:102CF000836382F3108800F091FEEFF3108272B6C6
:102D0000D4F89830E562AB4228BF2B46E36382F3E8
:102D10001088204600F008FEEFF3108272B6336888
:102D20009C4207D0216B29B9D96AE36A8B4205D846
:102D3000BC4208D082F31088BDE8F081E06B83428A
:102D4000F8D98142F6D3A84538BF0549346038BF69
:102D500041F82340EEE700BF6C96FE1F0097FE1F70
:102D60007096FE1FEFF3108272B68368002B63D05B
:102D70007D492DE9F04109680446C06888429446BF
:102D800004D07A4D2968002900F09B80013BA360A4
:102D9000002B4DD100284BD0D0F8A030013BC0F81B
:102DA000A030002B00F09280D4E90B311963CB6284
:102DB000D0F8A410A14200F08980A6692369002EF2
:102DC00033D0012BD0F894703AD0E369674D012BD2
:102DD0006BD9002E7DD04FF00008D6F8A020002A35
:102DE00040F09C80C6F8A440C4E90B440132C6F808
:102DF000A020013B0122E660E361A260002B40F0CD
:102E00008780A3612B6801332B600023B366C6F86B
:102E100084308CF310882369012B00F087803046C2
:102E200000F082FD0020BDE8F081002BC9D1E360F5
:102E300082F310880020F6E782F310881E20704786
:102E40004A4D2B6801332B6082F31088D0F8A41010
:102E500020260B464BB11A69012A03D19A6A964281
:102E600028BF1646DB6A9942F4D1EFF3108C72B694
:102E70002A68E369C0F89C60B74228BF3746013A28
:102E8000012B2A6010D92269012A5BD12B680133FA
:102E90002B608CF310882046FFF7BEFEEFF3108CFA
:102EA00072B62B68013B2B60A66996B12369012B92
:102EB0002AD1F36A63612023A362D4F80C80E3690A
:102EC0008BE782F310881E20BDE8F081C0F8A430A3
:102ED00073E72B6801332B608CF31088E0682023A4
:102EE000A362C36ABB4202D03946FFF7E1FEEFF3AB
:102EF000108272B62B680021013B2B60E16082F3E7
:102F0000108800F0F3FC95E7E3694FF0000864E7F0
:102F1000336F726FA3615A67136773E7D6F8A41013
:102F2000086B0C63C462C4E90B105FE7E36973B913
:102F3000D8F82C30BB423FF472AF39464046FFF719
:102F4000B7FE6CE7A669002E7FF445AFC1E72046C7
:102F5000FFF762FEEFF3108272B6A3690BB1DB6A72
:102F6000A36282F31088E3E70497FE1F6C96FE1FAE
:102F700010B5EFF3108372B61C4A846E944202D0EF
:102F800083F3108810BDD0F8AC208A42F8D1C26E0D
:102F9000002AF5D0164914688C42F1D1D16A002973
:102FA000EED0002401398466D162E9B1D0E91C1465
:102FB0004C672167946A844216D0016B0529DFD1E2
:102FC0000C4914690A68002C02F101020CBF0A24A2
:102FD0000B24C0F884400A6083F3108800F0A4FC3E
:102FE000EFF3108372B6CBE79162E6E7712F000032
:102FF000554555516C96FE1FF8B516460F463822BA
:10300000002104461D4609F01FFFB200069BB3FBDA
:10301000F2F303FB0252C4E908556760E261A6605F
:10302000A5616361E360EFF3108172B60A4A0B4851
:10303000136820600A4843B9246304606463013361
:10304000136081F310880020F8BD0068456B44636D
:103050002C63C4E90C05F2E75496FE1F5545555103
:103060005896FE1F2DE9F041EFF3108172B6204A09
:1030700013680024013B04601360002B2ED11D4A0D
:1030800013601D4E846A3368C56A002701333360BC
:103090008762C76281F310889DB14FF00108013D3E
:1030A000EFF3108272B63368A7660133C4F88480E8
:1030B00020463360246F82F3108800F035FC002D29
:1030C000EDD1EFF3108272B63368013B336082F3C7
:1030D000108800F00BFC0020BDE8F081D0E90C3234
:1030E000044C5A6313632268824208BF2360C8E716
:1030F0005496FE1F5896FE1F6C96FE1F2DE9F84F42
:103100000346EFF3108E72B60569C66A25B3876869
:10311000002E4BD1066A012F56F8042B0A600CD9F9
:103120007A1E304650F8044B41F8044F013AF9D169
:1031300007F18047013F06EB8706DA695969B24219
:1031400008BF9E691E62013D0131C3E904518EF33F
:1031500010880020BDE8F88F002A75D06A4D2868D5
:10316000002871D1694C2468C4E91F10D4F8AC1050
:10317000E3660131C4F8AC106549A166002E68D140
:103180009C62C4E91C440136DE62052323630123EB
:10319000A3632B68E26401332B608EF31088204612
:1031A00000F03CFCD4F88400BDE8F88F806AD0E9D8
:1031B0001FA2012A0AF1040452D0D3F820B0012F33
:1031C0005BF8042B0A6072D97A1E94465D4655F866
:1031D000048B41F8048FBCF1010CF8D107F1804950
:1031E000D3F81C8009F1FF390BEB8901414572D0FE
:1031F000454DDAF800A02F68196201372F60596A2F
:103200002F688C46013F2F604CF804AB54F8047BC8
:1032100041F8047F013AF9D10CEB890CC44508BF91
:10322000D3F818C0C3F824C0013E3AD19E62DE62D2
:103230002B68002201338266C0F884202B608EF355
:10324000108800F071FB84E78EF310880A20BDE837
:10325000F88F996A2167486F606704674C6792E747
:10326000DAF800200A60012F06D9013F54F8042B38
:1032700041F8042F013FF9D1013E43D0026F416F65
:103280009A6251670A67204ADE621368002101339F
:103290008166C0F8841013608EF3108800F044FB40
:1032A00057E7026F416F9A6251670A67BFE7D3F829
:1032B0001C80C3450FD0144DDAF800102A68D3F8EB
:1032C00024C0C3F820B001322A602A68013A2A607B
:1032D0004CF8041BA2E70C4DDAF800902A68596AF2
:1032E00001322A602A688C46013A2A60012F9A69C5
:1032F0001A624CF8049B91D907F180497A1E09F1B2
:10330000FF3983E79E62BEE76C96FE1F0497FE1F9F
:10331000712F0000F8B50346EFF3108C72B6C56A42
:10332000406920B39A6851F8047B002D4BD15C6A48
:1033300001385861186926460130012A186146F89B
:10334000047B0BD9501E51F8045B44F8045F01382C
:10335000F9D102F18042013A06EB8206DA69B24203
:1033600008BF9E695E628CF310880020F8BD002AB9
:103370004DD02C480668002E49D12B4C2468C4E956
:103380001F16D4F8AC10E3660131C4F8AC1027491D
:10339000A166002D41D0996A21674E6F6667346738
:1033A0004C670135DD62052323630123A3630368B2
:1033B000E264013303608CF31088204600F02EFB9A
:1033C000D4F88400F8BD013D986A24D0046F466F9C
:1033D0009C6266673467C46FDD62012A4FF00003A8
:1033E0008366276007D9531E224651F8044B42F8E2
:1033F000044F013BF9D10B4A136800210133C0F897
:10340000841013608CF3108800F08EFAADE78CF313
:1034100010880B20F8BD9D62DDE79C62C4E91C4466
:10342000BFE700BF6C96FE1F0497FE1F712F0000C0
:1034300010B5EFF3108372B61A4A846E944202D02C
:1034400083F3108810BDD0F8AC208A42F8D1C26E48
:10345000002AF5D0144914688C42F1D11169002971
:10346000EED00024013984661161C1B1D0E91C1489
:103470004C672167D468844211D0026B062ADFD1E1
:103480000A490A680D240132C0F884400A6083F3B7
:10349000108800F049FAEFF3108372B6D0E7D160DC
:1034A000EBE700BF31340000414D45536C96FE1FE1
:1034B000002330B4C0E901120360C36003614361BB
:1034C0008361EFF3108172B60B4A0C4C13680460F1
:1034D0000B4C4BB94061206080610133136081F374
:1034E0001088002030BC70472468A569A06168611D
:1034F000C0E90545F1E700BF5C96FE1F414D45530D
:103500006096FE1FF8B5EFF3108272B683682BB198
:10351000013B836082F310880020F8BD31B3174B64
:103520001C681CBB164C174E2468D4F8AC50E066DF
:103530000135C4F8AC500569A666DDB1C6682667DA
:10354000776F67673C677467013505610620206304
:103550000120A0631868E1640130186082F31088CC
:10356000204600F05BFAD4F88400F8BD82F310889E
:103570000D20F8BDC460C4E91C44E5E76C96FE1F4D
:103580000497FE1F3134000038B50346EFF3108175
:1035900072B6026932B982680132826081F31088A2
:1035A000002038BD013AC06813D0046F456FDC605D
:1035B00065672C67084C1A6123680025013385660E
:1035C000C0F88450236081F3108800F0ADF900202A
:1035D00038BDDA60EEE700BF6C96FE1F2DE9F84FAC
:1035E0000A9D0B9E0C9FDDF838B004468A46914632
:1035F000EF2132462846984609F026FCB0220021E9
:10360000204609F021FC2023C4F89C300D9B666104
:103610009F4206F1FF36344BE5604FF0030235441C
:10362000C4E91198C4E906BBC4E915342F49C4F8AC
:1036300028A02561E762C4F8947004BFE763C4F86A
:1036400098702263204607F0EFF9EFF3108172B60D
:10365000274A284B2360136863BB2748C4E92244E8
:10366000046001331360254A1368013313600F9B14
:10367000012B2AD1EFF30582214B1B681343B3F1D1
:10368000F03F07D281F31088204600F04DF900206A
:10369000BDE8F88F1B4B1D68002DF3D0EB6AEE6B75
:1036A000EB6381F31088204600F03EF9EE630020C2
:1036B000BDE8F88F10480068D0F88C50C0F88C40F6
:1036C000C5F88840C4E92205CBE781F31088EFF301
:1036D000108172B61368013B136081F3108800F00B
:1036E00005F90020BDE8F88F893B0000353800005F
:1036F000F896FE1F44524854FC96FE1F6C96FE1F1F
:10370000F000FE1F0097FE1FEFF3108372B6024A0F
:10371000106883F3108870470497FE1F2DE9F0416D
:10372000DDF82880DDE906C7DDE90865EFF3108ED6
:1037300072B609B1846A0C600AB1016B11600BB1F9
:1037400042681A60BCF1000F03D0D0F89430CCF876
:10375000003017B1D0F898303B600EB18369336008
:1037600015B1D0F888302B60B8F1000F02D0036F8C
:10377000C8F800308EF310880020BDE8F08100BF4B
:10378000044A05491368202043F0C773086013609A
:10379000704700BF6496FE1FF096FE1F08B50346F3
:1037A000D0F8940088420DD0EFF3108C72B600214F
:1037B000D3F8980010600846C3F89810D9638CF3CA
:1037C000108808BDEFF3108C72B6D3F894108142C4
:1037D00003D218208CF3108808BDD3F8981011601C
:1037E000D3F89C201049C3F89800824228BF0246B3
:1037F0000968DA63DA6A8A4203D800208CF31088F9
:1038000008BD8142F9D2094A10689842F5D1084BA7
:1038100053F8213013608CF3108800F067F8EFF351
:10382000108C72B60020CAE7F096FE1F0097FE1FAC
:103830007096FE1F124B10B51C68D4E911309847E2
:10384000104B1B680BB120469847EFF3108172B6FE
:103850000D4A01232363A363136800200133E0644E
:10386000136081F31088EFF3148323F0040383F3D0
:103870001488BFF36F8F2046BDE8104000F0CEB82B
:103880000497FE1F6896FE1F6C96FE1F10B5EFF39F
:10389000108272B6124B1C6864B1EFF30581114BB4
:1038A0001B680B4306D110B982F3108810BD0E4B74
:1038B000196819B182F31088132010BDC4F8841060
:1038C0001968E06401311960042101232163A363B5
:1038D00082F31088204600F0A1F8D4F8840010BDCF
:1038E0000497FE1FF000FE1F6C96FE1F0A4B1B681C
:1038F0008BB90A4A0A4B12681B689A420BD0094BD3
:103900004FF080525A60EFF3058323B9EFF3108331
:1039100062B683F3108870476C96FE1F0497FE1FF3
:103920000097FE1F00ED00E0F8B50446EFF31085A8
:1039300072B6436E002B5AD04C3000F04FFA304A2A
:10394000A16B1368013B1360236B002945D15BB960
:103950002C492D4B1B6885F310880968994202D0C9
:103960001368002B2BD0F8BD636B002B3AD1E06AB3
:103970002649236351F8203033B1596A0C625C62E6
:10398000616223621F49E4E7214E41F82040336819
:10399000204F012181400B4333603B688342C4E9DF
:1039A0000844D5D9174938600B6833B3DB6B8342C1
:1039B000CFD90C6085F310881368002BD3D1164B38
:1039C0004FF080525A60EFF30583002BCBD1EFF319
:1039D000108362B683F31088F8BD013B012BB7D981
:1039E000636B33B103210023C4E90C13B0E7C36454
:1039F000A5E70449A3632363ABE70C60A9E700BF15
:103A00006C96FE1F0097FE1F0497FE1F7096FE1F08
:103A1000F496FE1FF096FE1F00ED00E0F8B5374B60
:103A200004461D68EFF3108672B685423BD0344AD7
:103A30001368013B1360A36B012B08D0314B86F355
:103A400010881B68AB4201D01368F3B1F8BD216A3E
:103A5000E06A4FF0000C8C42C4F838C032D0636A80
:103A6000294F4B62196257F82030A34227D0254BCB
:103A70001968A142E3D12549096857F82110196056
:103A800086F310881368002BE0D1214B4FF0805251
:103A90005A60EFF30583002BD8D1EFF3108362B6A1
:103AA00083F31088F8BDEB6C013B033303D805F1B9
:103AB0004C0000F067F9174BE2691A60B7E747F866
:103AC0002010D4E71449104F834047F820C00868FD
:103AD00020EA03030B6033B193FAA3F30B49B3FA63
:103AE00083F30B60C3E709492020086005490B6098
:103AF00086F310881368002BC7D0F8BD0497FE1F0B
:103B00006C96FE1F0097FE1F7096FE1FF096FE1F1C
:103B100000ED00E00C97FE1FF496FE1F144B1B688F
:103B2000EFF3108272B613490020086093B1196B4D
:103B300081B9D3E9071010B40F4C99619842216004
:103B400003D0D96ADB6B994207D082F310885DF805
:103B5000044B704782F310887047084B084C43F8B9
:103B600021002068074953F820300B60EDE700BFC3
:103B70000497FE1FB097FE1F0C97FE1F7096FE1F46
:103B8000F096FE1F0097FE1FEFF3108C72B6026BCB
:103B9000042A07D0826ED0F8AC108CF3108802B1E2
:103BA00010477047034A1368013313608CF3108881
:103BB000FFF7BABE6C96FE1FEFF3108372B6024A8F
:103BC000106883F310887047B497FE1FF8B5044659
:103BD0000F46164600212C221D4609F035F9069B9A
:103BE000A360079B6760C4E903366561EFF3108546
:103BF00072B6134A134B2360136863B90133136021
:103C0000089B1149012BC4E909440C600FD085F3CE
:103C100010880020F8BD0C49013309681360089B27
:103C2000886A8C62012B4462C4E90910EFD104F167
:103C3000080000F0A7F885F310880020F8BD00BF49
:103C40001897FE1F4D4954411C97FE1F2DE9F04F58
:103C500083B0EFF3108A72B6374A1768002F5FD12E
:103C6000364E3368002B5BD00123DFF8D880DFF8B5
:103C7000D8B0DFF8D8901360314B1B6818680090FB
:103C800008B1C0F818D0D8F8000043F8047B2C4ADB
:103C900037608342136004BFDBF8003013608AF39F
:103CA0001088EFF3108A72B6009C002C33D001AD5F
:103CB00012E020382060A56124610194C9F8004019
:103CC0008AF31088EFF3108A72B6019BC9F800706E
:103CD0009C422CD0009CF4B1236901979C4224D0D3
:103CE000606958610361C3F818D0206800932028E8
:103CF000DFD860682060D4E9023210B124610194F9
:103D00002846A061C9F800408AF31088002BD9D05A
:103D100010469847D6E73368002BADD1064A1360AA
:103D20008AF3108803B0BDE8F08F0023DDE7A761B8
:103D3000204600F027F8CDE71097FE1F2097FE1FC2
:103D40002497FE1F2897FE1F2C97FE1F1497FE1F17
:103D500010B4074B074C084A236003F1800013603E
:103D60000649074B5DF8044B086000221A60704753
:103D70003097FE1F2C97FE1F2497FE1F2897FE1FCB
:103D80001097FE1F03685A1E033201D8826902B1E0
:103D900070470F4A0F4912680968202B28BF20235B
:103DA000013B02EB8303994208D91A685AB1516961
:103DB00008615061C0E904218361E9E7064A12689D
:103DC0005B1A1344F1E7C0E904001860F4E700BF90
:103DD0002497FE1F2897FE1F2C97FE1F836963B14F
:103DE000026990420AD0416951610A6119688142B1
:103DF00004BF93611A600023836170471A6882428E
:103E0000F9D100221A60F6E7E8B130B4174C056822
:103E1000A54202D0022030BC7047E1B1AAB1C4690A
:103E2000944212D3CBB9124CEFF3058C256855EAB6
:103E30000C050DD0EFF3058524682C43B4F1F03F59
:103E400006D21320E7E702207047052030BC7047F8
:103E500030BCFEF755B90320DDE7EFF3058C044CC9
:103E6000256855EA0C05DFD00420D4E745545942B3
:103E7000F000FE1F2DE9F041069C08B1342C02D061
:103E80000220BDE8F081884617461E460546EFF33E
:103E9000108172B6204B1A6801321A6081F31088C3
:103EA0001E4A10681E4A146858B1A54209D04FF046
:103EB000000C01E0A54204D00CF1010C8445E46A39
:103EC000F8D1EFF3108172B61A68013A1A6081F3E3
:103ED0001088FFF70BFDA542D2D0C7B1632E14D9CD
:103EE000EFF305810F4A13680B4306D0EFF305810A
:103EF00013680B43B3F1F03F0BD333463A464146C8
:103F00002846BDE8F041FEF799B90520B9E703203E
:103F1000B7E71320B5E700BF6C96FE1F3C96FE1F67
:103F20004096FE1FF000FE1F18B1084A0368934236
:103F300001D002207047EFF30582054B1B68134345
:103F400001D013207047FEF7BBB900BF455459425A
:103F5000F000FE1F80B1EFF30581084A13680B43A0
:103F600006D0EFF3058113680B43B3F1F03F01D3A3
:103F7000FEF768BA1320704703207047F000FE1F59
:103F800008B1242A01D00620704770B50E460546B8
:103F9000EFF3108272B61C490B6801330B6082F399
:103FA00010881A4A1A4B12681C684AB1A04207D0FE
:103FB000002301E0A54203D001339342A469F9D163
:103FC000EFF3108272B60B68013B0B6082F310882E
:103FD000FFF78CFCA54212D0EFF305810D4A136860
:103FE0000B4306D0EFF3058113680B43B3F1F03FA9
:103FF00007D331462846BDE87040FEF7F3BA0620E5
:1040000070BD132070BD00BF6C96FE1F4C96FE1F46
:104010005096FE1FF000FE1F70B4039C18B10E4DA9
:104020000668AE4202D0062070BC70477BB134B146
:10403000EFF3058C094D2D6855EA0C0509D1032ACB
:1040400003D8039470BCFEF7F5BA0820ECE7032010
:10405000EAE70420E8E700BF4E445644F000FE1FA4
:1040600098B110B40A4B04689C4203D006205DF856
:10407000044B704732F0020303D008205DF8044B74
:1040800070475DF8044BFEF743BB0620704700BF46
:104090004E44564408B1342B01D01C207047F8B56B
:1040A0000F4616460546EFF3108172B61E4A136896
:1040B0000133136081F310881C4B1C681C4B18687B
:1040C00048B1A54207D0002301E0A54203D0013347
:1040D0008342246AF9D1EFF3108172B61368013B71
:1040E000136081F31088FFF701FCA54217D0012E61
:1040F00001D91F20F8BDEFF305810E4A13680B4369
:1041000006D0EFF3058113680B43B3F1F03F08D3FA
:10411000324639462846BDE8F840FEF777BC1C20F9
:10412000F8BD1320F8BD00BF6C96FE1F4896FE1F19
:104130004496FE1FF000FE1F18B1084A0368934220
:1041400001D01C207047EFF30582054B1B68134319
:1041500001D013207047FEF789BC00BF4554554D70
:10416000F000FE1F18B1114B02689A4201D01C20CA
:10417000704779B90E4BEFF3058C1A6852EA0C02BE
:1041800006D0EFF305821B681343B3F1F03F0AD367
:10419000FEF7C6BCEFF3058C054B1A6852EA0C0219
:1041A000E9D0042070471320704700BF4554554D97
:1041B000F000FE1F18B10B4B02689A4201D01C2080
:1041C0007047EFF30581084A13680B4306D0EFF3FD
:1041D000058113680B43B3F1F03F01D3FEF7C2BD75
:1041E000132070474554554DF000FE1F2DE9F04750
:1041F000DDF820901E46099B08B1382B02D009201B
:10420000BDE8F087884617460546EFF3108172B681
:10421000234B1A6801321A6081F31088214A106812
:10422000214A146858B1A54209D04FF0000C01E0B2
:10423000A54204D00CF1010C8445246BF8D1EFF3B6
:10424000108172B61A68013A1A6081F31088FFF77C
:104250004DFBA542D3D00EB37B1E0F2B11D8B7EB6D
:10426000990F0ED8EFF30581104A13680B430BD05A
:10427000EFF3058113680B43B3F1F03F04D2132031
:10428000BEE70520BDE8F087CDF8209033463A46DA
:1042900041462846BDE8F047FEF7AEBE0320AFE733
:1042A0006C96FE1F5496FE1F5896FE1FF000FE1FD0
:1042B00018B1084A0368934201D009207047EFF310
:1042C0000582054B1B68134301D013207047FEF78E
:1042D000C9BE00BF55455551F000FE1FB8B110B41E
:1042E0000D4B04689C4203D009205DF8044B7047D5
:1042F00079B132B1EFF3058C084B1B6853EA0C031C
:1043000003D15DF8044BFEF7F9BE0420EDE7092068
:1043100070470320E9E700BF55455551F000FE1FE7
:10432000B8B110B40D4B04689C4203D009205DF86D
:10433000044B704779B132B1EFF3058C084B1B6821
:1043400053EA0C0303D15DF8044BFEF7E3BF0420EE
:10435000EDE7092070470320E9E700BF55455551B7
:10436000F000FE1F08B11C2B01D00C207047F8B5DF
:104370000F4616460546EFF3108172B61C4A1368C5
:104380000133136081F310881A4B1C681A4B1868AC
:1043900048B1A54207D0002301E0A54203D0013374
:1043A00083426469F9D1EFF3108172B61368013B5F
:1043B000136081F31088FFF799FAA54213D0EFF349
:1043C00005810E4A13680B4306D0EFF3058113688D
:1043D0000B43B3F1F03F08D3324639462846BDE8D7
:1043E000F840FFF765B80C20F8BD1320F8BD00BFFA
:1043F0006C96FE1F6096FE1F5C96FE1FF000FE1F6F
:1044000018B1084B02689A4201D00C20704729B1BC
:10441000EFF30582044B1B68134301D1FFF772B819
:1044200004207047414D4553F000FE1F18B1044A67
:104430000368934201D00C207047FFF7A5B800BF76
:10444000414D45532DE9F04F85B09A46119B01939C
:10445000129B0393139B0293DDE90F890E9D149B1E
:1044600008B1B02B03D00E2005B0BDE8F08F8B460D
:1044700017460646EFF3108272B6DFF80CC1DCF87F
:1044800000300133CCF8003082F310883B4B1A68BF
:104490003B4B08F1FF301C682844CAB1A64217D034
:1044A00000230097D4F80CE0AE454FF0000104D88B
:1044B0002769AF4284BF01210025864503F101032E
:1044C00043D82769874240D9009FD4F88840002507
:1044D000EFF3108272B6DCF80030013BCCF800300C
:1044E00082F31088FFF702FAA642BCD0002D38D024
:1044F000002F36D0B8F5806F31D3B9F11F0F36D801
:10450000019B994535D3029B012B2ED8EFF30581F2
:104510001C4A13680B4306D0EFF3058113680B4365
:10452000B3F1F03F27D3029B1393039B1293019B9C
:104530003A46CDE91093594653463046CDE90E58D8
:1045400005B0BDE8F04FFFF749B89342D4F8884072
:1045500003D0A64201D00029A4D0009FB8E70520CF
:1045600082E7032005B0BDE8F08F10207CE70F2024
:104570007AE7182078E7132076E700BFF896FE1F49
:10458000FC96FE1FF000FE1F6C96FE1F2DE9F04307
:10459000DDF82C90DDE90767DDE909E818B1056869
:1045A000074CA54202D00E20BDE8F083CDE90A8970
:1045B000CDE9087E0796BDE8F043FFF7AFB800BF2E
:1045C000445248542DE9F0478CB008AB064600939E
:1045D00004AA07AB03A900F085FB039B726C9A4207
:1045E00006D171685A1C8A42726424BF0022726428
:1045F000B168726901FB03F302EB83093369089A1E
:10460000934200F08D800799F06A0A440244D21A5E
:10461000914200F2E580776A4FF0000809EB8707C6
:1046200023B97DE008F10108434579D9BA4657F826
:10463000045B02956A1C73D0002DF3DA25F0604507
:104640002946304600F06AFF29460AAB09AA3046DF
:1046500000F082FE0A99494515D3B36809EB83033C
:10466000994210D2039B72680133934228BF002302
:10467000736429460AAB09AA304600F06DFE0A9918
:10468000494580F0A280099B002B00F0A580B26A0A
:1046900002EBC81209EB82028023304600F076F963
:1046A0000446002840F08980029B23F08043029357
:1046B00002AA01235146304600F068F9044600285A
:1046C0007BD1099945F0604501230BAA30460B9533
:1046D00000F05CF9044600286FD10B9B099923F088
:1046E00000530B930BAA0123304600F04FF9044608
:1046F000002862D1029B23F00043029302AA514694
:104700000123304600F042F90446002855D1079BAA
:10471000013B079323B1336908F10108434585D86C
:1047200000220692012306AA4946304600F02EF9DF
:104730000446002841D1DDE903123046013200F081
:104740008FF80446002838D1049BB26B9A4249D0B6
:10475000013352BF1A466FF0004213460492326C86
:104760009A4238BF3364D6E906321344591E09EB26
:104770008101012306F12002304600F007F90446CA
:10478000D8B9049A42F000420592012305AA49468D
:10479000304600F0FBF8044678B9012304AA4946E4
:1047A000304600F0F3F8044638B90899F26A736BA2
:1047B0000A445B1AF262736312E02146304601F04C
:1047C00075F820460CB0BDE8F08709F500739942F2
:1047D000BFF459AF002309935C21304601F066F81D
:1047E0000024EEE7F26B013AF263B1E708B5EFF3AC
:1047F000108C72B6174B1A688242D0F8102213D070
:10480000D0F81432C2F81432C3F81022124A1349F5
:104810001368013B136001608CF3108800F5EE70A3
:10482000FFF78AFC002008BD904209D0D0F814128E
:10483000C2F81412C1F81022D0F810221A60E5E76D
:10484000D0F81422824202D0C2F81002F4E700220B
:104850001A60DBE7BC97FE1FB897FE1F44524F4E0D
:10486000F0B5054687686B6901FB07F403EB840E1E
:10487000D5F8703108460EEB87071146ABB103EB54
:10488000430305EB830C00222B46D3F874414CB153
:10489000A64504F5007605D8B74284BFC3F8742155
:1048A000C3F87C210C339C45EFD1D5F89C30BDE892
:1048B000F0401847012B2DE9F04705460F461646F4
:1048C00047D1D0F87001002843D00024F0B12A4627
:1048D0004FF0000CD2F8741104EB440305EB830392
:1048E00029B18F4201F5007E01D377453AD3A44523
:1048F00006D0D2F87C11D3F87C31994238BF644697
:104900000CF1010C844502F10C02E3D16B6904EB5C
:104910004409FA1A6FF3080205EB890903EB020850
:10492000D9F87811D5F8943080224046984758BB82
:10493000D5F8D831C9F87C010133C9F87481C5F8BC
:10494000D831D5F8D431D5F87001013BC5F8D43150
:10495000BCE7D5F894401A46314638462346BDE8B0
:10496000F04718470CEB4C0C05EB8C0CDCE95E2394
:10497000791A0133CCF87C3153583360D5F8D431EF
:1049800001330020C5F8D431BDE8F087012B70B5A4
:1049900005460846114606D0D5F898401A462346E3
:1049A000BDE870401847D5F87021002AF4D0AE4613
:1049B0004FF0000C03E00CF1010C6245ECD0DEF886
:1049C00074410EF10C0E002CF5D0844204F50076F3
:1049D000F1D8B042EFD20CEB4C0C05EB8C0C041B65
:1049E000DCF878210E681651D6E700BF024A034B67
:1049F0000020106018607047BC97FE1FB897FE1F1C
:104A00002DE9F04F8BB0D0F830B004929A46149A4A
:104A10000023CAF800301360BBF1000F00F0818062
:104A2000D0F8AC5007468946002D40F099807E684A
:104A3000D7E9124306F1FF38002E72D030460595B3
:104A400056460AE0013408F1FF38A04298BF00241E
:104A5000B8F1FF3F4FF0000363D0BA68796904FBF7
:104A600002F201EB82014D686A1C52D08A680792FB
:104A7000B2F1FF3F4ED0A945E4D34A45E2D33D69A8
:104A8000681E35B30022CDE90124D7F824C0CDF843
:104A90000C809A460CEB030201EB820E51F82220A7
:104AA000541C0CD002F02048B8F1004F28D001333C
:104AB000AB4228BF0023421E20B11046EAE7BAF1FC
:104AC000000F16D1019BDDE902486BB9079B01334A
:104AD0000AD0002307930831012307AA3846FFF7BD
:104AE00055FF002840F0A380BBF1000F19D0786873
:104AF000A8E70AF1FF324FF0000A53461046C9E713
:104B000022F06048C8450BF1FF3B0FD00122019213
:104B1000CDE707953D69681E002DB3D1BBF1000FAD
:104B2000E5D1032630460BB0BDE8F08F049C002C85
:104B300000F083805200E9D50A46B96A029CC6F8A3
:104B400000E001EBC31102EB81021499AC460A604C
:104B500001336345C7E9124342D30023FB643FE0BE
:104B600001F00303DA0002EB830200EB820203EBA5
:104B7000430300EB031303F1B005D2F8B03041F06A
:104B800000418B4202F1B0042CD0EB68994235D041
:104B9000AB69994206D06B6A99427DD0C36D0133EF
:104BA000C36544E7836D149A01338365EB69CAF8E2
:104BB00000302B6A136094E8070007AE05F1180770
:104BC00086E8070097E8070084E8070005F10C0372
:104BD00093E8070087E8070096E8070083E80700E6
:104BE00000269FE7836D01338365D2F8B430CAF89D
:104BF0000030D2F8B830149A1360F1E7836D149A3C
:104C0000013383652B69CAF800306B69136094E83F
:104C1000070007AE05F10C0386E8070093E80700DC
:104C200084E8070096E8070083E80700D8E706460F
:104C30000146384600F03AFE74E70A46B96AC6F8FB
:104C400000E001EBC31102EB8101149A029C116098
:104C5000D7F8AC20AC46B246059D002A3FF478AFA9
:104C600005F1180898E8070049F0004605F1240905
:104C700089E8070005F10C0E9EE8070088E80700A8
:104C800095E807008EE80700DAF800206A60149AB9
:104C90002E601268AA605BE7836D149A0133836506
:104CA000AB6ACAF80030EB6A136094E8070007AEFD
:104CB00005F1240C86E807009CE8070084E807005B
:104CC00005F1180797E807008CE8070005F10C03C9
:104CD00093E8070087E8070096E8070083E80700E5
:104CE0007EE700BF2DE9F04F8A469B460169C36A03
:104CF0008B4228BF836B91B02CBF04334FF0FF333E
:104D0000039343680293914642690C920546002B37
:104D100000F0F280DDF830C0CDF83CB0DCF80020C7
:104D20004FF0FF340026A242CDE90A66CDE90866BD
:104D3000CDE90666CDE90DA90196B0460596049623
:104D40003046009632D037BF0123274617460193DD
:104D5000009B934238BF13460093DCF804305E1C7E
:104D600042D0DCF80860B3423ED90023AE6B9642D5
:104D700021D08B46C3455AD9039E964204D3CDE930
:104D80000AE3CDE90820D846A24203D2CDE905BE08
:104D900007930490AB680CEB830C029B01309842A4
:104DA00055D0DCF800203C46A242CCD1019B013317
:104DB00001932746CCE7EE6B002EDAD0DDE90DA992
:104DC000009EDDF83CB0CAF80000C9F800201A9A2D
:104DD0001160CBF800E06A6882423ED0002B52D0CE
:104DE000002011B0BDE8F08F6B6A9B0000296BD0EA
:104DF0004FF0000B043B009E0CEB030ADE46D94645
:104E000009E0002B09F10109ACBF0BF1010B0EF118
:104E1000010E494504D05AF8043FB3F1FF3FF0D1E9
:104E2000594500964FF00103A0D0C345A4D8B8F16E
:104E3000000FA9D0C345A7D1039E9642A4D3089ED4
:104E4000B242A1D2CDE90AE3CDE908209CE7DDE931
:104E50000DA9009EDDF83CB03C46B8F1000F3AD0F9
:104E6000099BCAF80030089BC9F800301A9BC3F8A8
:104E700000800A9BCBF80030019BAF63C5E90F3679
:104E80000B9B002BACD1DAF80020A9686B6A28696B
:104E900001FB02339B0000283DD00C99043B002409
:104EA0001944234604E0002AB8BF0134984205D0D3
:104EB00051F8042F551C03F10103F4D10020CBF865
:104EC000004011B0BDE8F08FAB6B93420CD08E4622
:104ED0008B46012358E7049BCDE90843DDE90583B0
:104EE0000A93079B0B93BBE7D5F83CB0BBF1000FCF
:104EF00013D18E46012347E71A99CAF800301A46A3
:104F00004FF0FF33C9F800300A60CBF80020C0E949
:104F10000E320264B7E70446D0E7DDE90DA9009E32
:104F2000DDF83CB08E4601234DE700BF2DE9F04F80
:104F3000002104468DB015464FF4067207F084FF39
:104F40002046A847A2680323D109A36101F11E03EB
:104F50004FEA531B4F1E0BF1030007EB0B0360627C
:104F6000D81C8028C4F81CB040F20B810233DB0946
:104F70000133CF1ADB01D4F804C0A36217F01F017C
:104F800007FB0CF3E3601DBF01238B4003F1FF33EC
:104F90004FF0FF33002066692761069323620A9071
:104FA000BCF1000F00F0B9814FEA820E3546814610
:104FB0004FF0FF380BE03CBF98464FF001090A99CB
:104FC000994238BF0A9301308445754408D02B6854
:104FD0000793002BF7DD4345EDD109F10109EEE719
:104FE000B8F1FF3F00F00381CDF80C90C4F844C045
:104FF0000025B946CDF8108033680793002B7BDC81
:10500000636F002B40F09181012363672846D4F839
:10501000A030984768B1A36F002B40F08681012330
:105020000A9AA36729462046FFF71AFC002840F099
:105030000881A369013B03EB0B0106EB810101230E
:1050400006AA2046FFF7A2FC002840F0FA800A9B3F
:1050500043F000430B930BAA012331462046FFF790
:1050600095FC002840F0ED8001230AAA3146204635
:10507000FFF78CFC002840F0E480E36AD4E901C229
:105080004B44E3620135AC4506EB8206B4D8DDE95A
:105090000398636C0A9A22649C45C4E90E8904BF94
:1050A00000236364A8493423002204F5EE70FEF760
:1050B000F1FF002840F03E810123C4E91200C4F84A
:1050C000AC30EFF3108672B6A049A14B23600B6899
:1050D000002B00F025819F4A1268D2F81452C2F8C2
:1050E0001442C5F81042C4E9842501330B6086F3ED
:1050F00010880DB0BDE8F08FBBF1000F00F0DD802F
:10510000A36903EB0B08002006EB830E06EB88086F
:105110005EF8043B202113F0010F4FEA530305D042
:10512000676CBC4500F1010008BF65640139F2D12C
:10513000C6450793ECD1A9EB0007E36A0344E36299
:10514000B9F1000F9ED04FF000086FF0604A636A1B
:10515000434406EB830256F8233007939FB123F0B4
:105160006041514572D0002BC0F2AA80636B0133BD
:105170006363013F08F10108C145E8D1D4E901C2E8
:1051800080E78023F7E6013315D0D4F88C30013363
:10519000C4F88C305A21204600F088FB636A0797D8
:1051A000434406EB830107AA01232046FFF7EEFBE9
:1051B0000146002846D1A36A03EBC81106EB810122
:1051C0000B1F01F5FE7101E09942D3D053F8042F73
:1051D0000132F9D0D4F8903001335B21C4F890301B
:1051E000204600F063FB01200DB0BDE8F08F0125E3
:1051F00025670BF1FF3B03214FF0000814E0204628
:105200000795FFF7C3FB08F10108D0B9E36A6268AC
:1052100025643B44E362A3684245C4E90E5206EBB1
:1052200083067FF63FAFA1695944012306AA06EB26
:1052300081012046FFF7AAFB012307AA3146002877
:10524000DDD00146204600F031FBCCE7591C1FD0D1
:10525000002B8BDA9B0003D4236B0133236388E795
:10526000636B01336363D4F888300133C4F888304A
:10527000636A434406EB83010023079307AA0123D3
:105280002046FFF783FB014600283FF472AFD9E7C1
:10529000D4F88430002B52D11146079307AA01237A
:1052A0002046FFF773FB01460028CBD1D4F88430A9
:1052B0000133C4F88430079BCAE74F4658463CE7A1
:1052C0005800C7D4E36F09AA0133E367E36800928B
:1052D000226B05922363012208AB2046FFF790FB67
:1052E000089B059A2263002BE5D0636A434406EBD2
:1052F0008301079B23F00043079307AA012320465D
:10530000FFF744FB014600289CD1D4F88030B3B9A4
:105310000123C4F88030079B9AE701232367C1E685
:105320000C4AC4E984441460DFE65B21204600F0A7
:10533000BDFA58E75D21204600F0B8FA53E75A213C
:10534000204600F0B3FA4EE7E4E40000B897FE1FF1
:105350004F524F4EBC97FE1F2DE9F04F064689B0C5
:10536000006E029393461A46013000233066CBF854
:1053700000301360F26A0391002A00F0B480D6F87E
:1053800004E0D6F84480BEF1000F00F0AC809C46EB
:10539000D6F814A0B368F1690193019B08FB03F7E9
:1053A0000AEB8707002900F09380B269002507EB1C
:1053B000820203E001358D4200F08A80914652F866
:1053C000043B0593002BF5D00020044607E05B0862
:1053D00004F101044FF0010075D0202C73D013F0BC
:1053E000010FF4D000B10593D9F80020012303FA8E
:1053F00004F022EA000249460592304605AAFFF76A
:10540000C5FA8146002877D1059A736A5FEA520A85
:1054100043D1F269013AAA423FD1039AD6F810C0AB
:10542000CDE906229B00BCF1000F1BD0043B3B449E
:1054300052466FF0604E01E0624513D053F8040FFE
:10544000002802F1010220F06041F5DA069881425D
:1054500038BF06917145EFD00798884238BF079151
:105460006245EBD1736808F10108434588BFC24625
:1054700006AA0123391D3046FFF788FA8046002826
:1054800042D1012307AA07F108013046FFF77EFA4F
:105490008046002838D1736AD04603EB4513B26AC0
:1054A000C6F84480234407EB830304EB4515CBF88F
:1054B000003002EBC512029B07EB820748461F60D3
:1054C00009B0BDE8F08F01358D4205937FF476AFCA
:1054D00008F101080CF1010CF04528BF4FF000085D
:1054E000F4457FF45AAF736E4FF00209013348461A
:1054F000736609B0BDE8F08F0146304600F0D6F97A
:10550000484609B0BDE8F08F3046414600F0CEF97C
:10551000C146484609B0BDE8F08F00BFD0F8AC30B6
:105520001BB301F00303DA0003EB430C02EB83032C
:1055300000EB0C1C00EB830041F00041D0F8B030D0
:105540008B4230B50CF1B00C10D0DCF80C30994225
:1055500030D0DCF81830994220D0DCF82430994261
:1055600004BF0023CCF8243030BD70470CF10C0E82
:1055700000F1B0039EE8070083E807000CF1180370
:1055800093E807008EE807000CF1240494E8070074
:10559000002583E80700CCF8245030BD0CF124032B
:1055A00093E807000CF1180383E807000023CCF808
:1055B000243030BD0CF1180393E807000CF10C0403
:1055C00084E807000CF1240207CA83E807000023DF
:1055D000CCF8243030BD00BF2DE9F041044600F581
:1055E000EE7686B00D4630464FF0FF319046FEF71E
:1055F000B9FD636D05AF01336365002203AB00970E
:1056000029462046FFF7FCF9039BA3B105998023A7
:1056100042462046FFF74EF908B9002404E001464F
:10562000204600F043F901243046FEF7C3FD204632
:1056300006B0BDE8F0813B4603AA29462046FFF7A5
:105640008BFE039BC3B1E36A0599013BE3624246CB
:1056500080232046FFF72EF980B945F04045039995
:105660000495012304AA2046FFF790F958B9236B4B
:10567000013323630024D7E70324D5E701462046FE
:1056800000F014F9E9E70146204600F00FF9304632
:10569000FEF790FD0124CAE7F0B5044600F5EE7769
:1056A00087B00D4638464FF0FF31FEF75BFD636D66
:1056B0000133636505AB00932946002203AB204606
:1056C000FFF79EF9039991B30B6823F040430493CD
:1056D00004AA01232046FFF759F90646E0B9636B97
:1056E00001336363236B013B294623632046FFF7A5
:1056F00015FF354605E0FEF765FF63680135AB42EF
:1057000004D9E26A23699A422046F4D93846FEF762
:1057100051FD304607B0F0BD0146204600F0C6F806
:105720003846FEF747FD0126304607B0F0BD032698
:10573000ECE700BF2DE9F04300F5EE7789B00446B1
:105740000E4638464FF0FF3190460025FEF70AFD21
:1057500005E0FEF737FF63680135AB4204D92369E2
:10576000E26A9A422046F4D9236D0133236503ABE4
:105770000093002202AB31462046FFF741F906AB09
:1057800005AA31462046FFF7E7FD059B002B5BD0BD
:10579000E36A0699013BE362424680232046FFF715
:1057A000F5F8002847D1029951B10B6823F08043E6
:1057B000049304AA01232046FFF7E8F800283AD111
:1057C00046F0604307930599012307AA2046FFF797
:1057D000DDF800282FD1079B059923F0005307938C
:1057E00007AA01232046FFF7D1F80546002855D126
:1057F000236B02990133236399B1049B23F0004387
:10580000049304AA01232046FFF7C0F898B9636BFC
:1058100001336363236B013B236331462046FFF76B
:105820007DFED4F8AC308BB93846FEF7C3FC284671
:1058300009B0BDE8F0830146204600F037F838464D
:10584000FEF7B8FC0125F2E70225EDE706F00303B9
:1058500003EB430C04EB0C1C0CF1C80EDA0002EB5A
:1058600083039EE807000CF1D40888E807000CF1D8
:10587000BC0C9CE807008EE8070004EB830404F1ED
:10588000B00999E80700069B8CE80700059A46F0E6
:105890000046C4E92D23C4F8B060C5E701462046A0
:1058A00000F004F83846FEF785FCCBE7826E10B4B2
:1058B000D0F8A4400132C0E91A2124B12346084699
:1058C0005DF8044B18475DF8044B70472DE9F04F25
:1058D0009846D0F86831146891B001334FF0000E4B
:1058E000C0F868310546836A06920594CDF83CE01D
:1058F00066018A46A1B3D0F854C00CFB03F75FB32E
:10590000B6FBF7F9DAF8504007FB1967B7FBF3F37A
:1059100007931CB1DAF854604E4535D9DAF83440B3
:105920000026B14546D9012C12D905F5005B214668
:1059300008E003F04DFC013678B9B1450F9936D037
:10594000012905D9DBF8A8348B420FAA2846F0D8E4
:10595000082011B0BDE8F08F022011B0BDE8F08F33
:10596000426E002A00F0FC80D0F854C00CFB03F714
:10597000002FF1D0B6FBF7F96C6F07FB196756469D
:10598000B7FBF3F30793CCE7DAE91023DAF8580012
:10599000DAF85C10994208BF9042BFD1DAF8600093
:1059A000DAF848309842B9D1CAF850E0B9E7D5F8EA
:1059B00054C00C462B6D079A1344A21E0CFB0232F6
:1059C000AB680093032001234FF0000BCDE90130B9
:1059D0005B462846089204F0DBFA0028BDD1AB6A8A
:1059E000089AB7FBF3F003FB1070AB68C8F84800E7
:1059F000C8E9102B00211F18C8F8181088F80410E7
:105A000097F80BC0D8F80060BCF10F0F00F0D980F8
:105A10000023C8F8143001230D934FF0000E781EB8
:105A200086F800E08446724671464FF02E0B13E074
:105A3000202B19D0082900F08E80BEF1010F06D16D
:105A400006F802B09CF8003001324FF0020EB35459
:105A5000013201310B290DD01CF8013F53B12E2B1F
:105A6000E6D14FF0020EF2E7BEF1010F38BF4FF062
:105A7000010EEEE7D8F8143096F900101BB111F1C1
:105A80001B0F00F08A80002900F08C800023B354A3
:105A9000FB7A88F81C300D9A3B7B88F81D3012B1D8
:105AA0001B0700F12D817B7B88F81E3007F10E006B
:105AB00003F084FBC8F8200007F1100003F07EFB20
:105AC000C8F8240007F1120003F078FBC8F828009A
:105AD000686E002840F00E81C8F8340007F1160007
:105AE00003F06CFBC8F82C0007F1180003F066FB0C
:105AF000C8F8300007F11A0003F060FBD8F8343022
:105B000002461344C8F8343007F11C0003F05CFB74
:105B10000023C8E91433C8F83C30C8F860300022CC
:105B20000023C8E91623069B0599C8F83800C8F871
:105B30004C101960BAF1000F0BD0DAE91001CAE974
:105B40001601DAF84830CAF85040CAF85490CAF83A
:105B50006030002001E7BEF1000F3FF471AF6CE749
:105B6000826CB6FBF3F31A4483680093032101238C
:105B7000CDE9013153460792D34604F009FA0028D3
:105B80007FF4EBAE079AAB6CA96ACDF81CA0D31AD0
:105B900001FB1360D146544627E7D8F8003019704E
:105BA000002333703B78202B7FF470AF731E07F116
:105BB0000A0110F8012F03F8012F8142F9D10B22BD
:105BC00064E713F800C0BCF1E50F3FF421AF0CF01F
:105BD0001F0E0EEB4E0C0EEB8C0C7346CDF824E032
:105BE000ACF10D0EBEF1FE0F40F2E480C8F81830A3
:105BF000012308960D93CDE90B49CDF828A00D9E01
:105C00000799DDF81490924626E0AB6A203098425E
:105C10001BD30A9B002B00F086806B6D013B8B42EF
:105C200040F28E800AF1010A013101230322CDE9FD
:105C30000132AB680093524600232846059104F0D8
:105C4000A7F9059900287FF488AEAF6809F101092A
:105C50000744002C00F09D803C7804F01F04013CB8
:105C6000002ED2D104EB440B04EB8B0B3246012304
:105C70008E460790F91891F801C0BCF1000F09D0C9
:105C8000BCF1FF0F2BD00998C8F81800D8F8000015
:105C900008900126097801F1FF3C5FFA8CFCBCF109
:105CA000FD0F0BD80BEB020CD8F800000590BCF1EF
:105CB000FE0F63D8059800F80C10013202331F2B39
:105CC00015D80B2B2DD01A2B08BF1C23F91891F8CF
:105CD00001C0BCF1000FDDD0BCF1FF0FD3D191F8B2
:105CE00000C0BCF1FF0FCED102331F2BE9D90798BA
:105CF00071468AE707F1140003F060FA0004EBE64E
:105D0000731E0B3613F9011FCAB2A2F1410000291C
:105D10003FF4C9AE19289CBF20321A70B342F1D1AA
:105D2000C1E60E23A6E76B6E002B7FF476AFD5E9B4
:105D300012320AF1010A134453453FF676AF07E6E3
:105D40000B990FAA284603F043FA014600287FF476
:105D500004AE0F9A0B92012A7FF6FAAD05F50053B7
:105D6000D3F8A83493427FF6F3AD0C9B01330C9328
:105D7000D5E91430023A00FB023A56E7099B07982E
:105D8000C8F818307146DDF814E0CDF820E001269F
:105D90003BE70123C8F8143033460D96CDF8149034
:105DA0000B9CDDF83090DDF828A0089E002B3FF416
:105DB00034AE2DE608F1040308930CF1010C734690
:105DC00004E0B3F5807F05D0D8F80060F1540133CA
:105DD0009C45F6D800230D930DE700BF2DE9F04F49
:105DE000D0F86C310A680133C0F86C3192F9003098
:105DF0001B3395B006460C4600F0038200230A933D
:105E0000256C326DD4F84880636CAA42A94600F232
:105E1000E880706DAA1AB2FBF0F100FB1122079224
