:10000000C005FE1F71DA00003DD900006DDA000066
:100010006DDA00006DDA00006DDA00006DDA0000C4
:100020000000000000000000000000006DDA000089
:100030006DDA00000000000029B20000CDB200001F
:1000400089BF0000EDBE000019C0000061C00000C3
:1000500051D3000029D4000095D5000029D4000018
:1000600095D5000051D3000029D4000095D500009B
:0800700029D4000095D5000021
:1000780002000000E8000000060000008800000000
:1000880000000090000000900000006000010C0DCE
:100098000000009000000090000010400001020DD8
:1000A8000000009000000090400400000001010DD5
:1000B8000000FE1F0000FE1F0000006000010C038E
:1000C8000000FE1F0000FE1F000010400000020399
:1000D8000000FE1FC001FE1F4004000000000103D5
:1000E80000000090000000900001000DD805FE1FE0
:0800F800B8A4FE1F0000000384
:04040000FFFFFFFFFC
:04040400FFFDFFFFFA
:100440001C9BFE1F0C18FE1F000000000000000097
:10045000000000000000000000000000000000009C
:1004600000000000449BFE1FF417FE1F0000000068
:10047000000000000000000000000000000000007C
:100480000000000000000000FC070000FFFFFF1F4D
:100490000000000000000000785634120101000046
:1004A0002000000000010100210000000000000009
:1004B00022000000000000002300000000000000F7
:1004C000FFFFFF1F030000000B00000004000000FE
:1004D0000400000000000000000000000000000018
:1004E00000000000785634120101000020000000D6
:1004F00000010100210000000000000022000000B7
:1005000000000000230000000000000003000000C5
:100510000B0000000400000004000000AC0001001B
:100520000000000000000060000000000000000269
:10053000FFFFFFFF289CFE1F89B70000400040001E
:10054000F0F0F0F001000000F8000000454C2046FB
:10055000494C4558436F7079726967687420286305
:1005600029204D6963726F736F667420436F7270D8
:100570006F726174696F6E2E20416C6C20726967B6
:100580006874732072657365727665642E20202A04
:10059000202046696C65582047656E657269632046
:1005A00056657273696F6E20362E312E35202A0003
:1005B0007401FE1F0000000070A3FE1FD8A3FE1FE1
:1005C00040A4FE1F0000000000000000000000002A
:1005D000000000000000000000000000000000001B
:1005E000000000000000000000000000000000000B
:1005F00000000000000000000000000000000000FB
:100600000348044B834202D0034B03B118477047A1
:10061000C001FE1FC001FE1F000000000548064B80
:100620001B1AD90F01EBA301491002D0034B03B1F0
:1006300018477047C001FE1FC001FE1F00000000E8
:1006400010B5064C237843B9FFF7DAFF044B13B11A
:100650000448AFF300800123237010BDD805FE1FAE
:10066000000000000804000008B5054B1BB1054957
:100670000548AFF30080BDE80840FFF7CFBF00BFDB
:1006800000000000DC05FE1F080400002DE9F04119
:10069000D0E902850446A8EB050740689742284444
:1006A000154408D83A460E46A5EB08050DF0D8FCCF
:1006B00060682A46F1190DF0D3FCBFF35F8FE56047
:1006C000BDE8F0812DE9F8430646D0E902048946E9
:1006D00017464FF0000833699C4203F1FF3228BFF0
:1006E00003F1FF33A0EB04052ABF1B18131B1B1BD0
:1006F000BD4228BF3D469D42706828BF1D46494601
:100700002A4620440DF0ACFCB0682C44A844A9440F
:100710007F1BA04208BF0024BFF35F8FF460002F4F
:10072000D9D14046BDE8F88310B5154CA822002168
:1007300020460DF085FC03212161124A61611248B7
:10074000A2614FF40061E061002321620F48A362BF
:1007500010216362E36222666066A1662367E36636
:100760006367BFF35F8F0A4BA3F1100C1846C21AE0
:1007700013F9011DA1546345F9D1BFF35F8F10BD7B
:10078000040EFE1F7CE900000406FE1FF405FE1F98
:100790005CFE00002DE9F04FDFF8A89099F80030DA
:1007A000532B83B005460F46144601D0FFF7BCFF1C
:1007B00005EB450309EBC3034FEA4508D3F86CB0DA
:1007C0001E6F5E451FD8ABEB060B5C4528BF5C4631
:1007D0001CB9204603B0BDE8F08FA24608EB050324
:1007E00009EBC3033846596E224631440DF038FCFC
:1007F0002644BAF1000F04D0A84409EBC808C8F891
:1008000070605446E5E79A6E596E0193A2EB060AB2
:10081000A24528BFA2463144524638460DF020FC7E
:10082000019B9B6E5644B342A4EB0A0414BFABEB8E
:10083000060B00265C4528BF5C46002CD9D05744E7
:10084000A244CBE7040EFE1F10B50B46EFF3118454
:100850004FF0200181F311881946FFF79BFF84F3C5
:10086000118810BD38B5214B00EB400403EBC40EDA
:100870000130DEF82C4000EB4000012C8C46154680
:1008800003EBC00015D0022C0FD034BBDEF82830AB
:10089000DEF8242093429CBFDEF820105B18013B59
:1008A0009A1A95421CD9204638BDBDE83840FFF75A
:1008B00009BFDEF82830DEF82440A3429CBFDEF8F2
:1008C00020105B18013B1C1B944228BF1446224693
:1008D0006146FFF7DBFE204638BD0024204638BDC8
:1008E0002A466146FFF7D2FE2C46DCE7040EFE1FC7
:1008F000F8B50B4B1B78532B04460D46164601D01A
:10090000FFF712FFEFF311874FF0200181F31188F9
:10091000324629462046FFF7A5FF87F31188F8BD28
:10092000040EFE1F10B5064C2378532B01D0FFF7A1
:10093000FBFEE36E206FC01A18BF012010BD00BF80
:10094000040EFE1FD0E9013210B50446501C984237
:1009500007D823689954E2686368A0600132E260B6
:1009600002469A4200D010BD21682069FFF7C0FFFF
:10097000A368984215BF4FF0FF330023E360A360E4
:1009800010BD00BF2DE9F84F1546A942DDF82890AB
:100990000B9A0F4683461E4669D30B464FF001085B
:1009A000B3FBF5F39D4208F10108F9D9B04538BF12
:1009B000B04612F0010A02D1B9F1000F3ED1DBF8C6
:1009C0000C30002B29DB012402E0013E05FB04F47E
:1009D000012EFAD8B7FBF4F39D4205D805FB04F4C9
:1009E000B7FBF4F39D42F9D9224E06E0AC42B4FBCA
:1009F000F5F30CD31C46B7FBF3F3F156584604FB52
:100A00001377FFF79FFFDBF80C30002BEEDABAF11B
:100A1000000F02D0B9F1000F07D1BDE8F88FFFF742
:100A200091FFDBF80C30002BF7DBC1454FF02001C4
:100A3000584609F1FF39F2D8BDE8F88F930711D471
:100A400020240AE0FFF77EFFDBF80C30002B09F1D1
:100A5000FF39E2DBB9F1000FB3D0C145214658465A
:100A6000F0D8ACE7002E0CBF30242024F5E74FF07F
:100A700001089BE760FE00002DE9F04F9BB040238A
:100A80000DF12809CDE904930023CDE90730804614
:100A90000C461746069306E004A8FFF753FF079B92
:100AA000002BC0F2AE8014F9011B002900F0A180D8
:100AB0002529F1D10026234613F9011BA1F12302B8
:100AC0000D2A08D8DFE802F08007070707070707A5
:100AD0007C0784070778A1F13002D2B2092A4FF0CF
:100AE000000501D90EE0013305EB850501EB450555
:100AF00093F90010A1F13002D2B2092A1C46A5F1E7
:100B00003005F0D92E2900F08080002294F90010E1
:100B1000924621F00403682B04F101045CD02529DE
:100B2000BAD05839CBB2202BB9D82029B7D801A3D5
:100B300053F821F05B0C00009F0A00009F0A0000A0
:100B40009F0A00009F0A00009F0A00009F0A000001
:100B50009F0A00009F0A00009F0A00009F0A0000F1
:100B6000770C0000FF0C00009F0A00009F0A0000A5
:100B70009F0A00009F0A00009F0A00009F0A0000D1
:100B80009F0A00009F0A00009F0A00009F0A0000C1
:100B90009F0A0000E10C00009F0A00009F0A00006D
:100BA000A50C00009F0A00008B0C00009F0A0000AB
:100BB0009F0A00005B0C000046F002061C467AE724
:100BC00046F004061C4676E746F008061C4672E727
:100BD00046F001061C466EE714F9011B21F00403E0
:100BE000682B9CD114F9011B21F00403682B96D1CA
:100BF000F2E7079B002B04DD069C002C40F0B3803D
:100C0000234418461BB0BDE8F08F94F901102A293F
:100C100009D13B6802341A1D3A6094F900101A6831
:100C20004FF0010A75E7A1F13003DBB2092B04F1A3
:100C300001044FF0000200F2E38002EB820201EBBC
:100C4000420214F9011FA1F13003DBB2092BA2F11A
:100C50003002F2D94FF0010A5BE7386813460168A9
:100C600010220430CDE9005638600DEB0200FFF78A
:100C700089FE079B14E73B681A1D93F900103A6040
:100C800004A8FFF75FFE079B0AE738680168043095
:100C90001346CDE900560A22386004A8FFF772FE19
:100CA000079BFDE63B68191D39601D68002D00F0AB
:100CB0008E800132AE1815F9011B04A800293FF4FB
:100CC000EEAEBAF1000F02D0B5423FF4E8AEFFF746
:100CD00039FE079B002BEEDA18461BB0BDE8F08FFB
:100CE0003A68116804323A60002208230192102207
:100CF00000930DEB0200FFF745FE079BD0E63B6833
:100D0000D3F800B004333B608BEAEB73A3EBEB73D7
:100D1000092B77DD4E484FF0010A19466329A0FBE5
:100D200003C30AF1010A4FEAD303F6DC924538BF48
:100D300092460DBB0798002503460028FFF661AFD9
:100D4000BBF1000F47DB730753D406F00303022BFC
:100D50005BD01346CDE9005659460A2204A8FFF796
:100D600011FE079B9CE62246494640460393FFF747
:100D7000BFFD039B234444E7BBF1000F06F00203D1
:100D80001CDB71071AD4002B59D0A2B1F3070ED582
:100D900011E004A80392FFF7D5FD0798039A0028F5
:100DA00005F1FF350346FFF62CAF002DC5D0AA454F
:100DB0004FF02001EDD307980346BEE7013D0BB18C
:100DC000002AF8D0F107F6D4002DF0D1B2E7214D7A
:100DD0004FF0000A6DE72D2104A80392FFF7B2FD42
:100DE000039ACBF1000B079800280346FFF609AFE2
:100DF000ABE72B2104A80392FFF7A4FD039AF2E7C7
:100E0000924686E64FF0010A90E7002AA1D1002D14
:100E10009FD055454FF0300117D904A80392FFF732
:100E200091FD0798002805F1FF350346FFF6E9AE6E
:100E3000039A002DEDD10028FFF6E3AE89E7F00715
:100E4000B5D5079B002B84DADBE60346F3E700BF4A
:100E5000CDCCCCCC88E900000EB400B582B003AB99
:100E600001AA53F8041B0193FFF706FE02B05DF8D8
:100E700004EB03B0704700BF8388B3F5806F30B5D3
:100E8000046912D005D9B3F5006F1DD10123237277
:100E900030BD9A1E062AFBD84FF48A7222FA03F359
:100EA000DB07F5D50123A37230BD00F1140CBCE8BB
:100EB0000F0004F10C0EAEE80F000125DCF8003045
:100EC000CEF80030657230BDB3F5804FEAD030BD4A
:100ED0000B4610B5154A164904460020FFF7BCFF23
:100EE000144883684BB914488368A3B91349224650
:100EF0000020FFF7B1FF00BE10BD0BF085FE0028FB
:100F0000F1D00F4B094A0A490020FFF7A5FF0A4814
:100F10008368002BEAD00BF077FE0028E6D0094B5F
:100F2000024A03490020FFF797FFDFE780FE000039
:100F300090E900001C9BFE1F449BFE1FE4E900009B
:100F4000ACE90000C8E900002DE9F04F002585B0AC
:100F50005E4903952846FFF77FFF5D484FF0FF335A
:100F6000102203A903F060FB0446002861D1039B13
:100F70004FF4807618705E6056484FF0FF3203A938
:100F800003F054FD0446002846D15349DFF8409150
:100F9000DFF870B1DFF83CA13246FFF75DFF27466E
:100FA00017E003980BEB04010370A0F80C80857226
:100FB00004300DF055F84FF0FF3203A9504603F00E
:100FC00035FD2C448046002855D1FF2C07F1010740
:100FD00039D84FF0FF33102203A9484603F024FB11
:100FE000C4F58075062D28BF06251FFA87F8012352
:100FF0002A4606460028D4D0384B394A39490020C1
:10100000FFF72AFF38493A460020FFF725FF34460C
:10101000204605B0BDE8F08F344B314A31492846AF
:10102000FFF71AFF039803F0A5FB204605B0BDE8C3
:10103000F08F2F4B2A4A2B492846FFF70DFF2046F9
:1010400005B0BDE8F08F3A462749FFF705FF29496B
:101050004046FFF701FF1E484FF0FF33102203A95F
:1010600003F0E2FA0446D8B1234B1D4A1D4940461D
:10107000FFF7F2FED9E7BAB2204B1A490092304688
:10108000174AFFF7E9FE039803F074FB16493A4646
:101090003046FFF7E1FE4446204605B0BDE8F08F3C
:1010A000039B0C4802221A7003A94FF0FF3203F091
:1010B000BDFC04460028B8D0114B094A09494046F6
:1010C000FFF7CAFE039803F055FBAEE704EA000001
:1010D0003022FE1FAC0FFE1F4CEA0000ACEA0000FD
:1010E00094FE000090E90000DCEA000084EA0000C1
:1010F00020EA00002CEB000048EB0000F8EA0000BA
:1011000074EB0000C0FE00002DE9F041174D184FB0
:10111000184EDFF878800FCD3C460FC495E80300E9
:1011200084E80300D6E90001C7E902860BF078FEE7
:1011300098B9114C114D124F0FCCAC46ACE80F00D2
:1011400094E803008CE80300D6E90901C5E90287A9
:101150000BF066FE28B9BDE8F0810A49FFF7B8FE3A
:10116000E7E7BDE8F0410849FFF7B2BE0000010023
:101170000C18FE1F0000FE1F40000100F417FE1FA8
:101180002400FE1F9CEB0000B8EB0000790E00006D
:10119000F0B5504D2C78012C83B025D0032C1CD0F9
:1011A0001CB100232B7003B0F0BDC368B3F5E26F30
:1011B000F9D1067E012EF6D1817C052963D1D0F8C4
:1011C0001920454BB2F5006F1A6066D94FF40061E3
:1011D000CDE90021414B424A45E0424B404A424959
:1011E0000020FFF739FEDCE7C36840F2117293423A
:1011F00015D0B3F5E26FD6D1047E032CD3D13B4E8C
:10120000354B31681A68914257D0CDE90021384BEF
:10121000334A35490020FFF71FFE2C70C3E7354FD6
:10122000018B3C888C421AD1867C2B4A023E04EB0F
:1012300044031268F6B206EB430191424FEA4303BE
:1012400018D800F11A012C48324618440CF008FF57
:10125000264A13680134334413603C80A3E7CDE988
:101260000041264B1E4A20490020FFF7F5FD0323CD
:101270002B7098E7224B1A4A1B490020FFF7ECFD20
:1012800003232B708FE71F4B0091154A1649204608
:10129000FFF7E2FD03232B7085E71B492046FFF78C
:1012A000DBFD124A134B146013481C804FF400629C
:1012B00021460CF0C5FE2E7075E714490020FFF79B
:1012C000CBFD134932680020FFF7C6FD02232B70C7
:1012D00069E700BFF017FE1FE80FFE1FD4EB000008
:1012E00070FE000074ED000090E90000EC0FFE1F9E
:1012F00034ED0000E40FFE1FF00FFE1FA8EC00000D
:101300006CEC000044EC000018EC0000E8EC00007D
:1013100014ED00002DE9F0438BB0002503A80395E0
:101320000CF0B6FA38214FF48072CDE900216B4BF6
:101330006B496C48012203F0DFFA002840F0BF80BF
:101340009DF80E009DF80D409DF80F30664A6749E4
:10135000674E644FDFF8C091CDE900040020FFF72D
:101360007BFDFFF7D1FE06F124080024224604A9E4
:101370003846049403F038FB054600284AD1CDE9ED
:101380000500CDE90700049909900B78012B71D075
:10139000022B00F08780002B7DD14A685549FFF76A
:1013A0005BFD0122049B8DF8202005218DF81A1089
:1013B0005B68CDF821304FF4E2620592002430687A
:1013C000347205AA21460BF0A9FC002830D0009009
:1013D000494B4A4A4A492046FFF73EFD049803F02C
:1013E000C9F996F82D30002B38D196F82E30002B05
:1013F000BBD0B36A414A1B6800930020404986F87D
:101400002E004B46FFF728FD0A2DAED1052002F035
:101410004DFEAAE796F82D3023B996F82E30002B12
:10142000F2D0E6E7404686F82D40FFF7B1FEF4E73C
:101430006524337A0120002BD0D102F037FE013C25
:10144000F7D1304B2D4A2E492046FFF705FD049871
:1014500003F090F996F82D30002BC6D000234046BB
:1014600086F82D30FFF794FE96F82E30002B3FF4CF
:101470007CAFBEE78B7A8A89ADF8202040F21170EC
:101480008A7A0590023304310DF122008DF81A306A
:101490000CF0E6FD92E71C49FFF7DEFC049803F030
:1014A00069F962E71949FFF7D7FC4FF4E2610122BD
:1014B000032305918DF81A208DF820307EE7144B18
:1014C0000E4A0F4904462846FFF7C6FC114922463A
:1014D0002846FFF7C1FC00BE32E700BFAC0EFE1F7E
:1014E0009CED0000AC0FFE1FD8ED0000DCED00000D
:1014F0000000FE1F14F0000068F00000ACFE0000C9
:1015000090E9000090F0000044F0000034F000008A
:10151000ACED0000E4E90000A4F0000070B582B07A
:1015200034230093184A194919484FF4006303F013
:10153000B1F8044610B1204602B070BD382614251B
:10154000CDE90056134B14491448012203F0D4F995
:10155000044698B9CDE90056114B124912480122B0
:1015600003F0CAF904460028E5D0094803F0ECF876
:101570000A4803F023FA204602B070BD044803F085
:10158000E3F8204602B070BD4C18FE1FC8F0000002
:101590004C20FE1F3818FE1FE0F00000B820FE1F90
:1015A0002418FE1FF0F000008020FE1F08B5084838
:1015B00003F0CAF8074803F001FA074803F0FEF900
:1015C000064901220020FFF747FC00BE08BD00BF0E
:1015D0004C20FE1FB820FE1F8020FE1FE4E9000003
:1015E0002DE9F04FB04A02F1200C07CAADF5177D86
:1015F0000EAD03C525F8022B120C2A709CE80700DB
:1016000016AB03C323F8022B0024120C1A702146D8
:10161000224605200B94CDF84340CDF84740CDF845
:101620004B40CDF84F40CDF853408DF85740CDF8A2
:101630006340CDF86740CDF86B40CDF86F40CDF8F2
:1016400073408DF8774000F051FF8DF82B400DF17D
:101650002B0000F083FF04460028F8D19DF82B30C2
:10166000013B072B00F2FE84DFE813F02A00520151
:10167000B002710018038201280308008B4A172169
:10168000022000F033FF8A4803F022FB054610B128
:10169000122840F03983022002F008FD854A2921F2
:1016A000022000F023FFFFF74FFC0546002800F062
:1016B0001E83814A2321032000F018FF2C46F8E204
:1016C0007E4D7F4A1D21022000F010FF2F68D7E9D0
:1016D000011338681B689847002840F0F682BB6801
:1016E000A9689B6938684FF0FF329847002840F09E
:1016F000EC826D69DFF80C92DFF80CB2DFF80CA217
:101700000DF17808BB683868DB69414698470646A2
:10171000002840F08D84C5F31001002914BF49460C
:101720005946FFF799FB35F07F433046514640F06C
:101730000A831846FFF790FB98F80030002B00F062
:1017400046836B1E002D00F00E831D46DAE75D4ACE
:1017500000924FF4007342F2B841CDE901315A4A88
:101760005A4B5B495B4809F019FC0546002840F0DC
:10177000B382584816A909F02DFB0428054600F04D
:101780002A83002840F0D182534A1B21022000F016
:10179000ADFE504816A909F0ADFA0546002840F004
:1017A0000F834E4A1B21022000F0A0FE4FF4F0727E
:1017B00000924B494748012316AA09F01FFB054632
:1017C000002840F0F682474B03F8015F0135B5F57C
:1017D000205FF9D1444942482A4609F07DFB06467C
:1017E000002840F02283414A2321022000F07EFE9F
:1017F0003F4A38485369039313690293D3680193AE
:10180000536800931368926816A909F087FA064690
:10181000002840F01183324809F058FA07460028A2
:1018200040F024834FF4F0710346009129482C497D
:1018300016AA09F0E3FA0646002840F01D83014687
:101840002A462C480CF0FCFB2A4925480BAB2A46BB
:1018500009F026FB0646002840F02C83264A222168
:10186000022000F043FE1E4809F030FA0646002828
:1018700040F074831F491C482A460CF0B7FB00282F
:1018800040F073831D4A1C21022000F02FFE1148F6
:1018900009F038FB0546002840F02F82184A1F2126
:1018A000022000F023FE04E2C0FF0000FCF4000070
:1018B000709BFE1F30F600005CF60000DC00FE1F8F
:1018C00000F100006074FE1F75B600008C0001007E
:1018D000D8F100006076FE1F14F3000048F300000A
:1018E0008072FE1F674AFE1F684AFE1F64F30000F5
:1018F0006872FE1F6822FE1F9CF30000E4F30000E4
:1019000000F40000C4F0000058F50000A0F0000052
:10191000974809F0F7FA054610B1112840F0ED811B
:10192000944A1621022000F0E1FD93494DF6F97327
:1019300001224FF40070059300254FF48073CDE928
:101940000602CDE90335CDE90112CDE90822009068
:101950008A4B8B4A8B49864809F0E8FA05460028ED
:1019600040F0FA81884A2021022000F0BFFDA0E16A
:10197000864A824F2121022000F0B8FD4FF4007307
:1019800042F2B842CDE9013281497D4B7D4A784827
:10199000009709F003FB0546002840F09D814FF4B5
:1019A000F072034600927B4971480EAA09F026FAAC
:1019B0000546002840F0AF814FF420522946764872
:1019C0000CF03EFB744973480BAB42F2FF7209F016
:1019D00067FA064610B1092840F013826F4A6E4E2E
:1019E000DFF8E4812321022000F080FD6C490B9A8E
:1019F0000020FFF731FA06E016F8012B0135FFF75A
:101A00002BFA202D05D00B9BAB4241464FF0000036
:101A1000F2D864490020FFF71FFA5E4809F056F932
:101A20000546002840F0EA81514809F06BFA054666
:101A3000002840F062815C4A2021022000F056FD1F
:101A40005A4A1721022000F051FD594803F040F98D
:101A5000054610B1122840F05781564A262102202F
:101A600000F044FD0023CDE90C3342F2B8424FF4BC
:101A7000007302920193434A414B45493C48009709
:101A800009F08CFA0546002840F0E4814FF4F0712B
:101A90000DF178080346009135480EAA414609F039
:101AA000ADF90546002840F0EE81434AD8F8486079
:101AB0001A21022000F01AFD40484FF0FF33102297
:101AC0000DA902F0B1FD0546002840F0E6810D9B0E
:101AD0004FF0FF3218705E6039480DA902F0A6FF82
:101AE0000746002840F05A82364ADFF8D0B0DFF8C7
:101AF000D0A01C21022000F0F9FCB94612E09D7232
:101B0000A3F80C9083F800C002F090FF09F10109DE
:101B10001FFA89F90546002840F063820137092E33
:101B200000F046824FF0FF3310220DA9584602F014
:101B30007BFD054606220CAB4046002D40F01C8282
:101B40000D99043109F0ACF906464FF0010C4FF045
:101B5000FF320DA9504616B1092E40F06B82DDE927
:101B60000C53002DCBD1184602F004FED7E700BF7E
:101B70006076FE1F8CF1000020F100006074FE1FF3
:101B80008C00010075B60000B8F1000040F40000C0
:101B9000D8F100008072FE1F6822FE1F80F4000052
:101BA000A4F4000080EA0000DCF40000FCF4000073
:101BB000709BFE1F34F5000004EA00003022FE1F77
:101BC000AC0FFE1F84F50000D4F40000BD49009165
:101BD0004FF4007342F2B842CDE90132BA49BB4B2F
:101BE000BB4ABC4809F0DAF90546002874D1B94867
:101BF0000EA909F07FF80B28054600F0F2800028B6
:101C000040F09A80B44A1B21022000F06FFC4FF490
:101C1000F0730093B149AF4801230EAA09F0EEF822
:101C20000546002840F0C580AD4B03F8015F013543
:101C3000B5F5205FF9D12A46AA49A84809F04CF920
:101C40000546002840F0D380A74A2321022000F057
:101C50004DFCA64A9F48D2E90431CDE90231D16852
:101C60005368CDE900310EA91368926809F056F85F
:101C70000546002840F0D280984809F027F805462C
:101C8000002840F0E080934809F03CF90546A0BBED
:101C9000974A1F21022000F029FC0AE0954A1E21E4
:101CA000022000F023FC944B944801221A7003F0A8
:101CB0000FF820460DF5177DBDE8F08F00F0DEFD32
:101CC00020460DF5177DBDE8F08F04468C4A232190
:101CD000032000F00BFCECE78A4A1221032000F0FD
:101CE00005FC2C4620460DF5177DBDE8F08F864A91
:101CF0002721022000F0FAFBDBE7844A13210320AE
:101D000000F0F4FB2C46D4E7814A1D21032000F0AB
:101D1000EDFB2C46CDE77F4A1A21032000F0E6FBBD
:101D20006C4809F0EFF82C46C3E77B4A16210320E4
:101D300000F0DCFB2C46BCE7784A1621032000F0BB
:101D4000D5FB2C46B5E74946FFF786F898F80030F2
:101D5000002B3CD0013DD5E4714A1421032000F052
:101D6000C5FB2C46A5E7BB6838681B6B9847002865
:101D7000ABD14DF6F9726B4D059201234FF4007112
:101D80004FF48072CDE90613CDE90320CDE9083385
:101D9000CDE9001502934D4A4A4B4D494D4809F093
:101DA000C5F8002891D1604A2521022000F09EFB51
:101DB0007FE75E4A1121032000F098FB2C4678E76C
:101DC0005B4A1621032000F091FB2C4671E7002DA1
:101DD000C9D114247AE7574A1021022000F086FB6B
:101DE000D7E4554A1921022000F080FB0FE7534A3F
:101DF0001221032000F07AFB2C465AE7504A1221A8
:101E00008BE7504A1121032000F070FB334808F0A3
:101E10005DFF304809F076F834464AE74A4A1D210A
:101E2000032000F063FB2C4643E7444A12210320C1
:101E300000F05CFB34463CE7434A1D21032000F0E0
:101E400055FB344635E73E4A1221032000F04EFB95
:101E50002C462EE73D4A1421032000F047FB2C4678
:101E60003B4A1F21032000F041FB22E73449304662
:101E7000FEF7F2FF3C461CE72C4A1121032000F03C
:101E800035FB344615E7334A1321032000F02EFBBF
:101E9000104809F037F82C46E2E72F4A2C2103209E
:101EA00000F024FB2C46404608F010FF094809F0DA
:101EB00029F8D5E7234A1121032000F017FB344607
:101EC000F7E600BF6074FE1FD8F100008C0001002F
:101ED00075B600006076FE1F30F200008072FE1FB3
:101EE000674AFE1F684AFE1F74F200006872FE1FF8
:101EF000CCF2000020F400006422FE1F709BFE1F45
:101F00002CF10000E8F1000080F6000078F10000FC
:101F100014F5000064F40000FCF2000018F2000068
:101F2000A4F1000020F1000050F100004CF200008C
:101F300030F30000ECF20000FCF1000060F2000061
:101F4000B8F2000088F3000098F200005CF5000091
:101F500010F6000070F5000020EA0000444A12214B
:101F6000032000F0C3FA3446A3E6424A22210320AC
:101F700000F0BCFA95249CE63F4A2D21032000F096
:101F8000B5FA3E493A460020FEF766FF404608F0A3
:101F90009DFE3B4808F0B6FF2C4661E7394A2621F2
:101FA000032000F0A3FA0D9802F0E4FB3C467AE728
:101FB00032493A460020FEF74FFF334A1A210220E9
:101FC00000F094FA31484FF0FF3310220DA902F0CF
:101FD0002BFB0546A8B12E4A2C21032000F086FADF
:101FE000D4E72C4A2721032000F080FA0D9802F054
:101FF000C1FB22493A460020FEF72EFF092EDCD015
:10200000C4E70D9B244802261E704FF0FF320DA935
:1020100002F00CFD0546E0B9404608F057FE1848AE
:1020200008F070FF1D4A2321304600F05FFA40E6B9
:1020300004464BE61A4A2321032000F057FA0D9874
:1020400002F098FB28460D493A46FEF705FF354653
:102050009CE7144A2621032000F048FA0D9802F06C
:1020600089FB93E7104A1B21022000F03FFA20E68B
:10207000B8F20000C0F30000ACEA0000DCEA0000A7
:102080006076FE1F84EA00002CEB00003022FE1F69
:1020900048EB0000C4F50000AC0FFE1FECF500009B
:1020A000A0F5000074EB0000A8F6000080B5002346
:1020B0008CB0CDE9023300F06DFA342300937F4AEF
:1020C0007F4980484FF4A07302F0E4FA039000289F
:1020D00040F0A78003AC00221146012000F006FA70
:1020E00079497A4800F07AFA0290002800F0888056
:1020F000774A2821032000F0F9F90421084602AAB2
:1021000000F0F4F907F068FB03F002F803900028F0
:102110007CD104AB20263246002118460BF090FFFC
:102120006C4A6D4D034607CA83E8070095E807002F
:1021300007AB03C305A81A708DF81B600BF09AFE5D
:10214000664D03460DF117006B600BF093FE0346DE
:1021500007A8AB600BF08EFE03460DF11F00EB608D
:102160000BF088FE03460DF122002B610BF082FE7E
:102170006B686861B3F5FA6F84BFA3F516636B6093
:102180009DF91030413B122B0DD8DFE803F06F0CA6
:102190000C770C7A0C0C0C7D0C0C890A910C0C0C35
:1021A0006C000B232B60D5E90012A86808F068FFCB
:1021B000039000284CD1D5E90412E86808F088FFA4
:1021C0000390002839D1464E464D474FFFF708FA95
:1021D00003900028FAD032462521032000F086F92A
:1021E000284608F08FFE28B904210846224600F050
:1021F0007DF9EBE73A461321032000F077F9F3E786
:102200003A4A1E21022000F071F97BE7384A272163
:10221000032000F06BF904212246084600F066F91D
:1022200077E7344A2921032000F060F903AC042148
:102230000846224600F05AF94DE72F4A172103209D
:1022400000F054F904212246084600F04FF9BAE79D
:102250002A4A1721032000F049F9042122460846A2
:1022600000F044F9A7E709232B609CE79DF91130A2
:10227000702B0CBF042308232B6094E70C232B60E6
:1022800091E702232B608EE79DF91130612B12D06C
:102290009DF912306E2B0CBF062307232B6082E7BB
:1022A0009DF91230722B0CBF032305232B607AE7B4
:1022B0000A232B6077E701232B6074E7F020FE1FD1
:1022C000C4F600003022FE1FB8000100549FFE1F1C
:1022D00004F7000074F7000080F700006872FE1F2A
:1022E000BCF700006076FE1F78F100002CF70000BC
:1022F0004CF70000D8F60000A4F700008CF70000AF
:10230000037803B17047012001F0D0BE022800D04D
:102310007047024B024859680AF0B8BB80000100C0
:10232000209CFE1F2DE9F04300249DB0232221466E
:102330000AA8CDE907440694CDF823400BF080FEAF
:10234000039402F049F85A4A034623210AA80BF0E5
:1023500019FEFFF7E3F8002840F09980DFF8848148
:10236000DFF884910027FEF7DDFA48B30F2206A9B3
:102370000020FEF769FA4FF0FF3300F10A0213A9BB
:102380004046139702F050F9044600287AD1139D75
:10239000039506A82C700BF071FE421CC5F80120B5
:1023A00006A905F109000BF05BFE4FF0FF3203A90F
:1023B000484602F03BFBCDE906440894CDF82340A3
:1023C0002322002113A804973A4C394E3A4D0BF0C2
:1023D00037FE01E00A2825D0012204A9204602F098
:1023E00003FB0028F6D1049B3246D3F805302321A5
:1023F00013A80BF0C7FD049A1378013B042B52D8A5
:10240000DFE803F02A241E1403002C490020FEF705
:1024100023FD29460020FEF71FFD049802F0AAF9CB
:102420000A28D9D1012001F041FE9CE7D2F8092009
:10243000002AEED022490020FEF70EFD00BEE8E79C
:10244000204909320020FEF707FDE2E71E49093264
:102450000020FEF701FDDCE705A805970BF018FA50
:102460009DF8153001939DF816300093174A1849CE
:102470009DF817300020FEF7EFFC16490020FEF70C
:10248000EBFCC6E714490020FEF7E6FC98E705469A
:1024900012492046FEF7E0FC09492A462046FEF78D
:1024A000DBFC00BE5AE70E490020FEF7D5FCB0E782
:1024B000E4F70000B820FE1F80EA000008FA0000E0
:1024C000E4E90000F8F90000ECF90000D8ED0000A4
:1024D000DCED00009CF800002CF8000004F800007F
:1024E00040FC00004C20FE1F8020FE1FF0B583B092
:1024F0000C46002706461546154801F109024FF023
:10250000FF3301A9CDE9007702F08EF8E0B111495F
:102510003846FEF7A1FCFFF749F8009F3E7001F036
:102520005BFF009BC7F805002246C3F8014029461F
:1025300003F109000BF094FD4FF0FF3269460648A5
:1025400002F074FA03B0F0BD019F0097E6E700BF08
:102550004C20FE1F6CFC0000B820FE1F30B583B07D
:10256000044600250A480195FF2201A902F03CFA21
:1025700028B9019808B103781BB102F0FBF803B049
:1025800030BD09300BF076FC034623700198F4E768
:102590008020FE1F30B5202291B000210DEB0200FB
:1025A0000BF04EFD0C480790002403E001F07EFD87
:1025B0007DB90798009409AACDE90344CDE9014407
:1025C0000AAB002102F068FB0A9A05460120002AA6
:1025D000ECD011B030BD00BF68A0FE1F70B586B052
:1025E000054609F0A7FD044610B1204606B070BDAF
:1025F000F52203468DF8082002A90122284609F099
:102600008BFF052240F20A317F480AF091F92246F9
:1026100040F20A317C480AF09FF84FF47A710A20A0
:102620000BF046F9012240F20A3177480AF094F89B
:10263000764A754840F20A310AF07AF94FF0C843F9
:1026400002A91A6B64F301021A6301239F228DF819
:10265000082028461A46CDE9044409F05DFF0446E7
:102660000028C2D1032204A9284609F00DFE044621
:102670000028BAD19DF81030C22B40F0C0809DF8E0
:102680001130202B40F0BB809DF81230192B40F008
:10269000B680012315228DF8082002A91A46284683
:1026A00009F03AFF044600289FD101220DF10701ED
:1026B000284609F0E9FD0446002896D101230522A9
:1026C0008DF8082002A91A46284609F025FF04467D
:1026D00000288AD101220DF10601284609F0D4FD17
:1026E0000446002881D19DF8063013F040033CD108
:1026F00006228DF8082002A90122284609F00CFFC5
:10270000044600287FF471AF9DF8062042F0400295
:102710008DF809209DF807208DF80A200346012630
:10272000032202A928468DF8086009F0F5FE044648
:1027300000287FF45AAF8DF8046005E009F07AFDB7
:10274000044600287FF451AF9DF8043001A92846C3
:10275000002BF3D104228DF8082002A9012209F0F0
:10276000DBFE044600287FF440AFB7228DF8082036
:102770000023012202A9284609F0CEFE04460028C3
:102780007FF433AF352203468DF8082002A90122D9
:10279000284609F0C1FE044600287FF426AF4FF01A
:1027A000C84302201A6B60F301021A63AF238DF84D
:1027B0000830012302A91A462846CDE9044409F04D
:1027C000ABFE044600287FF410AF032204A928467C
:1027D00009F05AFD044600287FF407AF9DF8103039
:1027E000C22B0CD19DF81130202B08D19DF812304E
:1027F000192B04D1284609F0FBFC0446F5E6012418
:10280000204606B070BD00BF209CFE1F000C0111C9
:102810000379013B1F2B11D8DFE803F015191010C5
:102820001010101D1010101010101021101010108A
:1028300010101010101010101010101170470A49CD
:102840000020FEF709BB094B01221A707047084BA4
:1028500001221A70704707490020FEF7FDBA0649A9
:102860000020FEF7F9BA00BFD8FC0000189BFE1F3D
:10287000199BFE1F94FC0000B4FC0000334B2DE9B3
:10288000F043D3E900750FCD8BB002AC0FC495E8CF
:102890000F002F4E84E80F0002A93846079609F072
:1028A00029F908B10E2848D12A4A2B4CDFF8B890F4
:1028B000DFF8B880294D45210220FFF717FE0026DA
:1028C00001220DF107013846267009F0EBF818B126
:1028D00023E00A2001F0EAFB2378002BF9D09DF8D1
:1028E000072041460020FEF7B7FA9DF807301B2B62
:1028F00018D0002301220DF1070138462B7009F092
:102900004BF80028DBD12B78002BD8D1012001F027
:10291000CDFB2B78002BF9D0D1E749463046FEF7A6
:102920009BFACCE70E4A1A210220FFF7DFFD38465A
:1029300008F098FF0BB0BDE8F0830A4A2421032079
:10294000FFF7D4FD0BB0BDE8F08300BFF800010035
:102950001128000020FD0000189BFE1F199BFE1F80
:10296000A4FD0000FCFC000068FD000090FD0000DC
:1029700008B500F0F7F8BDE80840FEF7CBBC00BF93
:1029800030B51148026889B0511C0024022301228D
:10299000CDE90424CDE902334FF480620B4B019260
:1029A000B025009306950A4A0160234609490A4862
:1029B00002F0CEF808B909B030BD0748214609B089
:1029C000BDE8304000F0A8B864A0FE1FB8A4FE1F08
:1029D00071290000C0FD0000709BFE1F00BE012099
:1029E000704700BF014608B5034808F00BFE0038E9
:1029F00018BF012008BD00BF449EFE1F08B5034656
:102A00000A460448194608F0DDFD003818BF0120C9
:102A100008BD00BF449EFE1F844608B50448134607
:102A20000A46614608F05EFD003818BF012008BD67
:102A3000449EFE1F844608B5044813460A46614674
:102A400008F038FD003818BF012008BD449EFE1F65
:102A5000014808F0F7BD00BF449EFE1F0A4910B5AB
:102A600004460A484C6008F0DDFC58B9084A094B96
:102A70000949C4E92523094A094BC4F8A430C4E92B
:102A8000271210BD012010BDDC00FE1F449EFE1F5A
:102A9000352A0000192A0000FD290000E529000060
:102AA000DD290000704700BF08B500F05BF8BDE805
:102AB0000840FFF7FBBA00BF30B5104C104D22683C
:102AC00089B00123D018B0214FF48052CDE90433EE
:102AD000CDE902330691019200950A4A20600A4925
:102AE0000A48002302F034F808B909B030BD07489D
:102AF000002109B0BDE8304000F00EB864A0FE1F10
:102B0000B8A8FE1FA92A0000E4FD0000649FFE1F74
:102B1000FFF7C8BF704700BF00BE70470D4A0E499F
:102B20000E4838B500240E4D14701C2301222C6071
:102B300001F09EFF40B9FFF7BFFF00F053F8FFF729
:102B40001FFFFFF7E7FF38BD04482146FFF7E4FF0A
:102B5000F1E700BF60A0FE1FF4FD000044A0FE1FCF
:102B600064A0FE1F38B515484FF0FF3101F0CEFFCD
:102B7000F0B9134B1A7802B138BD124C01221A7009
:102B8000FFF7C6FF2368013B2360002BF4D00B4DF9
:102B900004E02368013B2360002BEDD0284601F0C0
:102BA000CBFF0028F5D000212846FFF7B5FFF0E75E
:102BB00002480021FFF7B0FFDBE700BF44A0FE1F83
:102BC00060A0FE1F64A0FE1F08B500F06FFA002091
:102BD00008BD00BF08B5FFF7C5FFBDE80840FFF717
:102BE000A1BB00BF30B5104C104D226889B0012345
:102BF000D018B0214FF48062CDE90433CDE902331F
:102C00000691019200950A4A20600A490A48002369
:102C100001F09EFF08B909B030BD0748002109B096
:102C2000BDE83040FFF778BF64A0FE1FB8B8FE1FB4
:102C3000D52B000008FE000068A0FE1F03322DE91E
:102C4000F04104460F46984622F00306EFF3108247
:102C500072B6264B1D68256282F3108831462046E5
:102C600000F018F9EFF3108272B628B1386082F3E1
:102C700010880020BDE8F081236AAB42EBD13860B8
:102C8000B8F1000F25D01A4B196811BBD5F8AC105C
:102C90001848EC660131C5F8AC10A16AA866481C5A
:102CA000C5E91E67A062C9B96562C5E91C5509215D
:102CB00029630121A9631968C5F84C8001311960A5
:102CC00082F31088284601F0B9FAD5F88400BDE8EF
:102CD000F08182F310881020BDE8F081616A2967D5
:102CE000486F686705674D67E1E700BFDCA1FE1F1D
:102CF00044A1FE1FF92C000010B5EFF3108372B64B
:102D00001A4A846E944202D083F3108810BDD0F822
:102D1000AC208A42F8D1C26E002AF5D0144914685A
:102D20008C42F1D1916A0029EED0002401398466E9
:102D30009162C1B1D0E91C144C672167546A844286
:102D400011D0026B092ADFD10A490A681024013226
:102D5000C0F884400A6083F3108801F0F5F9EFF3BE
:102D6000108372B6D0E75162EBE700BFF92C000088
:102D70004554594244A1FE1FF8B516460F461D465C
:102D80003422002104460BF05BF925F00303C4E96B
:102D90000663A3F1080102223344E2601A46C4E943
:102DA0000171C4E90466114943F8044C42F8086D06
:102DB0000023C6E900212362EFF3108172B60C4AAA
:102DC0000C48136820600C4843B9E4620460246333
:102DD0000133136081F310880020F8BD0068056B93
:102DE0000463EC62C4E90B05F2E700BFEEEEFFFFFF
:102DF0001CA1FE1F4554594220A1FE1F2DE9F041A0
:102E0000EFF3108172B6204A13680024013B04607E
:102E10001360002B2ED11D4A13601D4E446A336887
:102E2000856A0027013333604762876281F3108827
:102E30009DB14FF00108013DEFF3108272B6336887
:102E4000A7660133C4F8848020463360246F82F380
:102E5000108801F079F9002DEDD1EFF3108272B6F0
:102E60003368013B336082F3108801F04FF9002092
:102E7000BDE8F081D0E90B32044C1A63D3622268BA
:102E8000824208BF2360C8E71CA1FE1F20A1FE1FCD
:102E900044A1FE1FF0B5EFF3108C72B6C3688268D0
:102EA0009C1E02EBC4028A421AD9334A446915684F
:102EB000324E0562013300276268B24220D0246896
:102EC00093B1013B8CF31088EFF3108C72B6026A59
:102ED000AA4203D0C368446905620133002BEBD1D9
:102EE0008CF310880020F0BD8CF31088EFF3108C69
:102EF00072B6036A9D42EDD18CF310880020F2E790
:102F000007B9446127683A1B083A914215D9D7E9B5
:102F100000E2B24204D06BB1013B74460127CFE717
:102F2000C268C4F800E0013AC2604269BA42F5D111
:102F30004461F3E774460127C4E7002AD0D0531A4E
:102F4000132B0AD9C3685D1C01F108030A46E75038
:102F500023440A495960C560236083686060083B68
:102F60009B1A42698360A24204BF236843618CF3C9
:102F7000108804F10800F0BDDCA1FE1FEEEEFFFF9B
:102F8000EFF3108372B600287CD02DE9F0413F4A60
:102F900050F8044C9442A0F1080504D01CB13C49FF
:102FA00026688E4204D083F310880320BDE8F081A8
:102FB00038490E68266250F8081C40F8042CA268B4
:102FC000491B0A44A2606269AA4200D96561A26AEB
:102FD000002A52D02D4F656AD5F8788083F3108887
:102FE00041462046FFF756FFEFF3108372B6A0F17B
:102FF0000802266290B1D4E9091CA94215D050F804
:10300000085C40F8047CA1686069AD1A29449042CC
:10301000A16088BF6261BCF1000FDCD183F310882E
:1030200001F074F80020BDE8F081A96F4145E6D1B8
:103030000CF1FF32A2621AB32A6F696F62625167A4
:103040000A67DFF854E0DEF8002002F1010CEA6FB5
:103050000021A9661060CEF800C0C5F8841083F383
:103060001088284601F070F8EFF3108372B6D4F898
:1030700028C0BCF1000FAED1D0E783F31088D1E7B0
:103080006262DEE783F3108803207047EEEEFFFFF5
:1030900045545942DCA1FE1F44A1FE1F08B500F0B3
:1030A00045FFBDE8084001F063BA00BF10B50E4C03
:1030B000236813F10F3F0AD04FF0F033236008F07C
:1030C00015F8FFF7EBFF094A136801331360084A4C
:1030D0004FF0F03310682360FFF720FD00232360DA
:1030E000BDE8104008F08CB80001FE1F44A1FE1F8F
:1030F00018A1FE1F10B5EFF3108372B61A4A846E42
:10310000944202D083F3108810BDD0F8AC208A42DC
:10311000F8D1C26E002AF5D0144914688C42F1D15E
:10312000D1690029EED0002401398466D161C1B192
:10313000D0E91C144C6721679469844211D0026B5A
:103140000D2ADFD10A490A681D240132C0F88440E3
:103150000A6083F3108800F0F7FFEFF3108372B674
:10316000D0E79161EBE700BFF53000004554554DC5
:1031700044A1FE1F70B50446EFF3108372B60D4EE6
:10318000D0F8A40032680132326028B93268013ABE
:10319000326083F3108870BD0125856083F3108849
:1031A00000F0B6F9EFF3108372B6D4F8A40000284B
:1031B000F3D1EBE744A1FE1F70B5044615460E4659
:1031C000342200210AF03CFF66602561EFF3108194
:1031D00072B60C4B0C480D4A20600D4818601368FD
:1031E0000C4843B92462046064620133136081F3C4
:1031F0001088002070BD0068456A44622C62C4E9F2
:103200000805F2E740A1FE1F4554554D24A1FE1FBD
:103210007531000028A1FE1F2DE9F041EFF3108267
:1032200072B627490B680024013B04600B60002B39
:103230003BD124490B60244E84693368C56901334E
:103240003360C36800218161C16143B101238360A0
:1032500082F3108800F05CF9EFF3108272B682F30B
:103260001088ADB14FF000080127013DEFF3108247
:1032700072B63368C4F868800133C4F8847020469D
:103280003360246F82F3108800F05EFF002DECD1D4
:10329000EFF3108272B63368013B336082F310881B
:1032A00000F034FF0020BDE8F081D0E90831054C82
:1032B00059620B622168814208BF2360BBE700BFEF
:1032C00024A1FE1F28A1FE1F44A1FE1FF8B5EFF3A5
:1032D000108C72B6384A83681468E3B90123C0E9D8
:1032E0000234A4B10369012B03D1E26A42612023B5
:1032F0008362D4F8A430002B40D01A6B1863D062DC
:10330000C0E90B32D4F8A0300133C4F8A0308CF3FC
:1033100010880020F8BDC268A24229D021B3274BF3
:103320001D680DBBD4F8AC50254EE0660135C4F8DD
:10333000AC50C569A66635BB8461C4E91C4401353F
:10334000C561E1641968013119600D23236301230C
:10335000A3638CF310880369012B1BD0204600F077
:103360006DFFD4F88400F8BD8CF310881D20F8BDE3
:10337000013383608CF310880020CBE7C4F8A400ED
:10338000C0E90B00BEE786692667776F67673C6711
:103390007467D4E7E16A836A8B42D2F89C3088BFB5
:1033A00081629942D36A38BFC2F89C109942D5D243
:1033B000104600F053F8D1E7DCA1FE1F44A1FE1F28
:1033C000F530000070B5EFF3108C72B6C469012CB3
:1033D00026D98269116FD36ACD6A022C1DD01E4E88
:1033E000336801339646336005E0C469196F1A46A5
:1033F0008B4219D09E46CD6AD36A9D4238BF0A4699
:103400008CF31088EFF3108C72B683697345ECD19E
:10341000C569A5421ED02C46E8E79D4238BF8161B0
:103420008CF31088002070BD3168934201F1FF31A8
:10343000316009D0D2E91C4161670C67596FC2E95C
:103440001C310A675A6782618CF3108800F05EFEB7
:10345000002070BD096FCBE744A1FE1F2DE9F041AC
:1034600004460D46EFF3108272B6036B53B1D0F8E9
:103470009830E1628B4228BF0B46C36382F3108809
:10348000BDE8F0811F49C3640B681F4ED0F82C8043
:10349000376802330B600E2303630123836382F3D7
:1034A000108800F0CBFEEFF3108272B6D4F898309B
:1034B000E562AB4228BF2B46E36382F310882046C7
:1034C00000F042FEEFF3108272B633689C4207D0E0
:1034D000216B29B9D96AE36A8B4205D8BC4208D06E
:1034E00082F31088BDE8F081E06B8342F8D9814215
:1034F000F6D3A84538BF0549346038BF41F82340AA
:10350000EEE700BF44A1FE1FD8A1FE1F48A1FE1F89
:10351000EFF3108272B68368002B63D07D492DE9EA
:10352000F04109680446C0688842944604D07A4D48
:103530002968002900F09B80013BA360002B4DD13E
:1035400000284BD0D0F8A030013BC0F8A030002BB1
:1035500000F09280D4E90B311963CB62D0F8A4104B
:10356000A14200F08980A6692369002E33D0012B87
:10357000D0F894703AD0E369674D012B6BD9002ED7
:103580007DD04FF00008D6F8A020002A40F09C80A3
:10359000C6F8A440C4E90B440132C6F8A020013BA0
:1035A0000122E660E361A260002B40F08780A36106
:1035B0002B6801332B600023B366C6F884308CF38C
:1035C00010882369012B00F08780304600F0BCFD95
:1035D0000020BDE8F081002BC9D1E36082F31088A0
:1035E0000020F6E782F310881E2070474A4D2B68B2
:1035F00001332B6082F31088D0F8A41020260B46EC
:103600004BB11A69012A03D19A6A964228BF16461D
:10361000DB6A9942F4D1EFF3108C72B62A68E36941
:10362000C0F89C60B74228BF3746013A012B2A6098
:1036300010D92269012A5BD12B6801332B608CF3EE
:1036400010882046FFF7BEFEEFF3108C72B62B6891
:10365000013B2B60A66996B12369012B2AD1F36A3D
:1036600063612023A362D4F80C80E3698BE782F3C3
:1036700010881E20BDE8F081C0F8A43073E72B68E5
:1036800001332B608CF31088E0682023A362C36AA7
:10369000BB4202D03946FFF7E1FEEFF3108272B66B
:1036A0002B680021013B2B60E16082F3108800F061
:1036B0002DFD95E7E3694FF0000864E7336F726F03
:1036C000A3615A67136773E7D6F8A410086B0C63FD
:1036D000C462C4E90B105FE7E36973B9D8F82C3012
:1036E000BB423FF472AF39464046FFF7B7FE6CE786
:1036F000A669002E7FF445AFC1E72046FFF762FEC2
:10370000EFF3108272B6A3690BB1DB6AA36282F396
:103710001088E3E7DCA1FE1F44A1FE1F10B5EFF304
:10372000108372B61C4A846E944202D083F31088D0
:1037300010BDD0F8AC208A42F8D1C26E002AF5D074
:10374000164914688C42F1D1D16A0029EED00024C8
:1037500001398466D162E9B1D0E91C144C67216754
:10376000946A844216D0016B0529DFD10C49146993
:103770000A68002C02F101020CBF0A240B24C0F8D5
:1037800084400A6083F3108800F0DEFCEFF31083BE
:1037900072B6CBE79162E6E71D37000055455551FB
:1037A00044A1FE1FF8B516460F46382200210446F4
:1037B0001D460AF045FCB200069BB3FBF2F303FB87
:1037C0000252C4E908556760E261A660A5616361C1
:1037D000E360EFF3108172B60A4A0B481368206069
:1037E0000A4843B92463046064630133136081F3BE
:1037F00010880020F8BD0068456B44632C63C4E961
:103800000C05F2E72CA1FE1F5545555130A1FE1FB6
:103810002DE9F041EFF3108172B6204A13680024BD
:10382000013B04601360002B2ED11D4A13601D4E16
:10383000846A3368C56A0027013333608762C762D0
:1038400081F310889DB14FF00108013DEFF3108224
:1038500072B63368A7660133C4F8848020463360AB
:10386000246F82F3108800F06FFC002DEDD1EFF390
:10387000108272B63368013B336082F3108800F027
:1038800045FC0020BDE8F081D0E90C32044C5A63BD
:1038900013632268824208BF2360C8E72CA1FE1F81
:1038A00030A1FE1F44A1FE1F2DE9F84F0346EFF3A0
:1038B000108E72B60569C66A25B38768002E4BD193
:1038C000066A012F56F8042B0A600CD97A1E30467E
:1038D00050F8044B41F8044F013AF9D107F1804701
:1038E000013F06EB8706DA695969B24208BF9E6953
:1038F0001E62013D0131C3E904518EF3108800209E
:10390000BDE8F88F002A75D06A4D2868002871D16B
:10391000694C2468C4E91F10D4F8AC10E366013187
:10392000C4F8AC106549A166002E68D19C62C4E958
:103930001C440136DE62052323630123A3632B6845
:10394000E26401332B608EF31088204600F076FC91
:10395000D4F88400BDE8F88F806AD0E91FA2012A5C
:103960000AF1040452D0D3F820B0012F5BF8042BE5
:103970000A6072D97A1E94465D4655F8048B41F868
:10398000048FBCF1010CF8D107F18049D3F81C80F9
:1039900009F1FF390BEB8901414572D0454DDAF849
:1039A00000A02F68196201372F60596A2F688C4672
:1039B000013F2F604CF804AB54F8047B41F8047FBE
:1039C000013AF9D10CEB890CC44508BFD3F818C0F3
:1039D000C3F824C0013E3AD19E62DE622B68002209
:1039E00001338266C0F884202B608EF3108800F0CB
:1039F000ABFB84E78EF310880A20BDE8F88F996A44
:103A00002167486F606704674C6792E7DAF8002027
:103A10000A60012F06D9013F54F8042B41F8042F06
:103A2000013FF9D1013E43D0026F416F9A62516765
:103A30000A67204ADE621368002101338166C0F8FC
:103A4000841013608EF3108800F07EFB57E7026F3E
:103A5000416F9A6251670A67BFE7D3F81C80C3457C
:103A60000FD0144DDAF800102A68D3F824C0C3F838
:103A700020B001322A602A68013A2A604CF8041BFF
:103A8000A2E70C4DDAF800902A68596A01322A60E0
:103A90002A688C46013A2A60012F9A691A624CF80A
:103AA000049B91D907F180497A1E09F1FF3983E718
:103AB0009E62BEE744A1FE1FDCA1FE1F1D37000071
:103AC000F8B50346EFF3108C72B6C56A406920B3AF
:103AD0009A6851F8047B002D4BD15C6A013858611B
:103AE000186926460130012A186146F8047B0BD973
:103AF000501E51F8045B44F8045F0138F9D102F11B
:103B00008042013A06EB8206DA69B24208BF9E693A
:103B10005E628CF310880020F8BD002A4DD02C483E
:103B20000668002E49D12B4C2468C4E91F16D4F82E
:103B3000AC10E3660131C4F8AC102749A166002D32
:103B400041D0996A21674E6F666734674C670135CB
:103B5000DD62052323630123A3630368E264013369
:103B600003608CF31088204600F068FBD4F88400D2
:103B7000F8BD013D986A24D0046F466F9C62666769
:103B80003467C46FDD62012A4FF00003836627604B
:103B900007D9531E224651F8044B42F8044F013B0B
:103BA000F9D10B4A136800210133C0F88410136067
:103BB0008CF3108800F0C8FAADE78CF310880B2066
:103BC000F8BD9D62DDE79C62C4E91C44BFE700BF0D
:103BD00044A1FE1FDCA1FE1F1D37000010B5EFF34E
:103BE000108372B61A4A846E944202D083F310880E
:103BF00010BDD0F8AC208A42F8D1C26E002AF5D0B0
:103C0000144914688C42F1D111690029EED00024C6
:103C1000013984661161C1B1D0E91C144C67216778
:103C2000D468844211D0026B062ADFD10A490A689F
:103C30000D240132C0F884400A6083F3108800F03C
:103C400083FAEFF3108372B6D0E7D160EBE700BFE1
:103C5000DD3B0000414D455344A1FE1F002330B41D
:103C6000C0E901120360C360036143618361EFF344
:103C7000108172B60B4A0C4C136804600B4C4BB9A4
:103C80004061206080610133136081F3108800205F
:103C900030BC70472468A569A0616861C0E905452A
:103CA000F1E700BF34A1FE1F414D455338A1FE1F6F
:103CB000F8B5EFF3108272B683682BB1013B8360D5
:103CC00082F310880020F8BD31B3174B1C681CBB71
:103CD000164C174E2468D4F8AC50E0660135C4F891
:103CE000AC500569A666DDB1C6682667776F676761
:103CF0003C67746701350561062020630120A063DD
:103D00001868E1640130186082F31088204600F0E2
:103D100095FAD4F88400F8BD82F310880D20F8BD20
:103D2000C460C4E91C44E5E744A1FE1FDCA1FE1FFA
:103D3000DD3B000038B50346EFF3108172B602692F
:103D400032B982680132826081F31088002038BD68
:103D5000013AC06813D0046F456FDC6065672C675B
:103D6000084C1A612368002501338566C0F8845029
:103D7000236081F3108800F0E7F9002038BDDA6095
:103D8000EEE700BF44A1FE1F2DE9F84F0A9D0B9EF0
:103D90000C9FDDF838B004468A469146EF21324642
:103DA000284698460AF04CF9B022002120460AF035
:103DB00047F92023C4F89C300D9B66619F4206F1B1
:103DC000FF36344BE5604FF003023544C4E91198E7
:103DD000C4E906BBC4E915342F49C4F828A02561FD
:103DE000E762C4F8947004BFE763C4F89870226374
:103DF000204607F06DFAEFF3108172B6274A284B80
:103E00002360136863BB2748C4E92244046001337C
:103E10001360254A1368013313600F9B012B2AD1CD
:103E2000EFF30582214B1B681343B3F1F03F07D238
:103E300081F31088204600F087F90020BDE8F88F54
:103E40001B4B1D68002DF3D0EB6AEE6BEB6381F327
:103E50001088204600F078F9EE630020BDE8F88F66
:103E600010480068D0F88C50C0F88C40C5F88840E5
:103E7000C4E92205CBE781F31088EFF3108172B615
:103E80001368013B136081F3108800F03FF90020B4
:103E9000BDE8F88FA943000055400000D0A1FE1FE7
:103EA00044524854D4A1FE1F44A1FE1F0001FE1F2E
:103EB000D8A1FE1FEFF3108372B6024A106883F395
:103EC00010887047DCA1FE1F2DE9F041DDF8288045
:103ED000DDE906C7DDE90865EFF3108E72B609B1BA
:103EE000846A0C600AB1016B11600BB142681A6000
:103EF000BCF1000F03D0D0F89430CCF8003017B1EB
:103F0000D0F898303B600EB18369336015B1D0F8BA
:103F100088302B60B8F1000F02D0036FC8F8003072
:103F20008EF310880020BDE8F08100BF044A0549E7
:103F30001368202043F0C77308601360704700BF08
:103F40003CA1FE1FC8A1FE1F08B50346D0F894008F
:103F500088420DD0EFF3108C72B60021D3F8980090
:103F600010600846C3F89810D9638CF3108808BD18
:103F7000EFF3108C72B6D3F89410814203D218205C
:103F80008CF3108808BDD3F898101160D3F89C20EA
:103F90001049C3F89800824228BF02460968DA63D4
:103FA000DA6A8A4203D800208CF3108808BD814267
:103FB000F9D2094A10689842F5D1084B53F82130DC
:103FC00013608CF3108800F0A1F8EFF3108C72B638
:103FD0000020CAE7C8A1FE1FD8A1FE1F48A1FE1FEE
:103FE00038B5EFF3108272B6016B032909D0416B2B
:103FF000012905BF002141631220192082F3108896
:1040000038BDEFF30581104B1B680B43B3F1F03F54
:104010000FD30E4B1C6864B10D49E36AE56BE36393
:104020000B6801330B6082F3108800F08DF8E563B4
:1040300007E007490B6801330B6082F3108800F03A
:1040400083F8002038BD00BF0001FE1FD8A1FE1F6D
:1040500044A1FE1F124B10B51C68D4E911309847DB
:10406000104B1B680BB120469847EFF3108172B6D6
:104070000D4A01232363A363136800200133E06426
:10408000136081F31088EFF3148323F0040383F3A8
:104090001488BFF36F8F2046BDE8104000F0CEB803
:1040A000DCA1FE1F40A1FE1F44A1FE1F10B5EFF3CF
:1040B000108272B6124B1C6864B1EFF30581114B8C
:1040C0001B680B4306D110B982F3108810BD0E4B4C
:1040D000196819B182F31088132010BDC4F8841038
:1040E0001968E06401311960042101232163A3638D
:1040F00082F31088204600F0A1F8D4F8840010BDA7
:10410000DCA1FE1F0001FE1F44A1FE1F0A4B1B681D
:104110008BB90A4A0A4B12681B689A420BD0094BAA
:104120004FF080525A60EFF3058323B9EFF3108309
:1041300062B683F31088704744A1FE1FDCA1FE1F06
:10414000D8A1FE1F00ED00E0F8B50446EFF310859E
:1041500072B6436E002B5AD04C3000F04FFA304A02
:10416000A16B1368013B1360236B002945D15BB938
:104170002C492D4B1B6885F310880968994202D0A1
:104180001368002B2BD0F8BD636B002B3AD1E06A8B
:104190002649236351F8203033B1596A0C625C62BE
:1041A000616223621F49E4E7214E41F820403368F1
:1041B000204F012181400B4333603B688342C4E9B7
:1041C0000844D5D9174938600B6833B3DB6B834299
:1041D000CFD90C6085F310881368002BD3D1164B10
:1041E0004FF080525A60EFF30583002BCBD1EFF3F1
:1041F000108362B683F31088F8BD013B012BB7D959
:10420000636B33B103210023C4E90C13B0E7C3642B
:10421000A5E70449A3632363ABE70C60A9E700BFEC
:1042200044A1FE1FD8A1FE1FDCA1FE1F48A1FE1F56
:10423000CCA1FE1FC8A1FE1F00ED00E0F8B5374B72
:1042400004461D68EFF3108672B685423BD0344AAF
:104250001368013B1360A36B012B08D0314B86F32D
:1042600010881B68AB4201D01368F3B1F8BD216A16
:10427000E06A4FF0000C8C42C4F838C032D0636A58
:10428000294F4B62196257F82030A34227D0254BA3
:104290001968A142E3D12549096857F8211019602E
:1042A00086F310881368002BE0D1214B4FF0805229
:1042B0005A60EFF30583002BD8D1EFF3108362B679
:1042C00083F31088F8BDEB6C013B033303D805F191
:1042D0004C0000F067F9174BE2691A60B7E747F83E
:1042E0002010D4E71449104F834047F820C00868D5
:1042F00020EA03030B6033B193FAA3F30B49B3FA3B
:1043000083F30B60C3E709492020086005490B606F
:1043100086F310881368002BC7D0F8BDDCA1FE1F00
:1043200044A1FE1FD8A1FE1F48A1FE1FC8A1FE1F69
:1043300000ED00E0E4A1FE1FCCA1FE1F144B1B68A2
:10434000EFF3108272B613490020086093B1196B25
:1043500081B9D3E9071010B40F4C996198422160DC
:1043600003D0D96ADB6B994207D082F310885DF8DD
:10437000044B704782F310887047084B084C43F891
:1043800021002068074953F820300B60EDE700BF9B
:10439000DCA1FE1F88A2FE1FE4A1FE1F48A1FE1F94
:1043A000C8A1FE1FD8A1FE1FEFF3108C72B6026BDE
:1043B000042A07D0826ED0F8AC108CF3108802B1BA
:1043C00010477047034A1368013313608CF3108859
:1043D000FFF7BABE44A1FE1FEFF3108372B6024A84
:1043E000106883F3108870478CA2FE1FF8B504464E
:1043F0000F46164600212C221D4609F021FE069B81
:10440000A360079B6760C4E903366561EFF310851D
:1044100072B6134A134B2360136863B901331360F8
:10442000089B1149012BC4E909440C600FD085F3A6
:1044300010880020F8BD0C49013309681360089BFF
:10444000886A8C62012B4462C4E90910EFD104F13F
:10445000080000F0A7F885F310880020F8BD00BF21
:10446000F0A1FE1F4D495441F4A1FE1F2DE9F04F6C
:1044700083B0EFF3108A72B6374A1768002F5FD106
:10448000364E3368002B5BD00123DFF8D880DFF88D
:10449000D8B0DFF8D8901360314B1B6818680090D3
:1044A00008B1C0F818D0D8F8000043F8047B2C4AB3
:1044B00037608342136004BFDBF8003013608AF377
:1044C0001088EFF3108A72B6009C002C33D001AD37
:1044D00012E020382060A56124610194C9F80040F1
:1044E0008AF31088EFF3108A72B6019BC9F8007046
:1044F0009C422CD0009CF4B1236901979C4224D0AB
:10450000606958610361C3F818D0206800932028BF
:10451000DFD860682060D4E9023210B124610194D0
:104520002846A061C9F800408AF31088002BD9D032
:1045300010469847D6E73368002BADD1064A136082
:104540008AF3108803B0BDE8F08F0023DDE7A76190
:10455000204600F027F8CDE7E8A1FE1FF8A1FE1FD6
:10456000FCA1FE1F00A2FE1F04A2FE1FECA1FE1F65
:1045700010B4074B074C084A236003F18000136016
:104580000649074B5DF8044B086000221A6070472B
:1045900008A2FE1F04A2FE1FFCA1FE1F00A2FE1F18
:1045A000E8A1FE1F03685A1E033201D8826902B1D6
:1045B00070470F4A0F4912680968202B28BF202333
:1045C000013B02EB8303994208D91A685AB1516939
:1045D00008615061C0E904218361E9E7064A126875
:1045E0005B1A1344F1E7C0E904001860F4E700BF68
:1045F000FCA1FE1F00A2FE1F04A2FE1F836963B17F
:10460000026990420AD0416951610A611968814288
:1046100004BF93611A600023836170471A68824265
:10462000F9D100221A60F6E7E8B130B4174C0568FA
:10463000A54202D0022030BC7047E1B1AAB1C469E2
:10464000944212D3CBB9124CEFF3058C256855EA8E
:104650000C050DD0EFF3058524682C43B4F1F03F31
:1046600006D21320E7E702207047052030BC7047D0
:1046700030BCFEF7E3BA0320DDE7EFF3058C044C12
:10468000256855EA0C05DFD00420D4E7455459428B
:104690000001FE1F2DE9F041069C08B1342C02D028
:1046A0000220BDE8F081884617461E460546EFF316
:1046B000108172B6204B1A6801321A6081F310889B
:1046C0001E4A10681E4A146858B1A54209D04FF01E
:1046D000000C01E0A54204D00CF1010C8445E46A11
:1046E000F8D1EFF3108172B61A68013A1A6081F3BB
:1046F0001088FFF70BFDA542D2D0C7B1632E14D9A5
:10470000EFF305810F4A13680B4306D0EFF30581E1
:1047100013680B43B3F1F03F0BD333463A4641469F
:104720002846BDE8F041FEF727BB0520B9E7032086
:10473000B7E71320B5E700BF44A1FE1F1CA1FE1F71
:1047400020A1FE1F0001FE1F18B1084A0368934212
:1047500001D002207047EFF30582054B1B6813431D
:1047600001D013207047FEF749BB00BF45545942A2
:104770000001FE1F80B1EFF30581084A13680B4367
:1047800006D0EFF3058113680B43B3F1F03F01D37B
:10479000FEF7F6BB13207047032070470001FE1F91
:1047A00008B1342B01D01C207047F8B50F461646CF
:1047B0000546EFF3108172B61E4A13680133136089
:1047C00081F310881C4B1C681C4B186848B1A5422B
:1047D00007D0002301E0A54203D001338342246ABD
:1047E000F9D1EFF3108172B61368013B136081F3C6
:1047F0001088FFF78BFCA54217D0012E01D91F208E
:10480000F8BDEFF305810E4A13680B4306D0EFF3B2
:10481000058113680B43B3F1F03F08D332463946A4
:104820002846BDE8F840FEF7C7BC1C20F8BD1320A1
:10483000F8BD00BF44A1FE1F28A1FE1F24A1FE1F3A
:104840000001FE1F18B1084A0368934201D01C20E2
:104850007047EFF30582054B1B68134301D013200B
:104860007047FEF7D9BC00BF4554554D0001FE1FEF
:1048700018B1114B02689A4201D01C20704779B9D7
:104880000E4BEFF3058C1A6852EA0C0206D0EFF3D8
:1048900005821B681343B3F1F03F0AD3FEF716BD40
:1048A000EFF3058C054B1A6852EA0C02E9D004209C
:1048B00070471320704700BF4554554D0001FE1F3F
:1048C00018B10B4B02689A4201D01C207047EFF3DD
:1048D0000581084A13680B4306D0EFF3058113687E
:1048E0000B43B3F1F03F01D3FEF712BE1320704724
:1048F0004554554D0001FE1F2DE9F047DDF820908D
:104900001E46099B08B1382B02D00920BDE8F0876C
:10491000884617460546EFF3108172B6234B1A6896
:1049200001321A6081F31088214A1068214A146804
:1049300058B1A54209D04FF0000C01E0A54204D0C7
:104940000CF1010C8445246BF8D1EFF3108172B6A1
:104950001A68013A1A6081F31088FFF7D7FBA54265
:10496000D3D00EB37B1E0F2B11D8B7EB990F0ED8F7
:10497000EFF30581104A13680B430BD0EFF3058169
:1049800013680B43B3F1F03F04D21320BEE70520B8
:10499000BDE8F087CDF8209033463A464146284698
:1049A000BDE8F047FEF7FEBE0320AFE744A1FE1FBF
:1049B0002CA1FE1F30A1FE1F0001FE1F18B1084AE6
:1049C0000368934201D009207047EFF30582054B3D
:1049D0001B68134301D013207047FEF719BF00BFB7
:1049E000554555510001FE1FB8B110B40D4B046878
:1049F0009C4203D009205DF8044B704779B132B175
:104A0000EFF3058C084B1B6853EA0C0303D15DF8E8
:104A1000044BFEF749BF0420EDE70920704703204F
:104A2000E9E700BF554555510001FE1FB8B110B46C
:104A30000D4B04689C4203D009205DF8044B70477D
:104A400079B132B1EFF3058C084B1B6853EA0C03C4
:104A500003D15DF8044BFFF733B80420EDE70920DC
:104A600070470320E9E700BF554555510001FE1F7F
:104A700008B11C2B01D00C207047F8B50F46164624
:104A80000546EFF3108172B61C4A136801331360B8
:104A900081F310881A4B1C681A4B186848B1A5425C
:104AA00007D0002301E0A54203D0013383426469AB
:104AB000F9D1EFF3108172B61368013B136081F3F3
:104AC0001088FFF723FBA54213D0EFF305810E4AB0
:104AD00013680B4306D0EFF3058113680B43B3F162
:104AE000F03F08D3324639462846BDE8F840FFF784
:104AF000B5B80C20F8BD1320F8BD00BF44A1FE1FBF
:104B000038A1FE1F34A1FE1F0001FE1F18B1084B83
:104B100002689A4201D00C20704729B1EFF3058258
:104B2000044B1B68134301D1FFF7C2B80420704740
:104B3000414D45530001FE1F18B1044A03689342DA
:104B400001D00C207047FFF7F5B800BF414D455329
:104B50002DE9F04F85B09A46119B0193129B039368
:104B6000139B0293DDE90F890E9D149B08B1B02BB6
:104B700003D00E2005B0BDE8F08F8B4617460646E1
:104B8000EFF3108272B6DFF80CC1DCF800300133AD
:104B9000CCF8003082F310883B4B1A683B4B08F18D
:104BA000FF301C682844CAB1A64217D000230097E2
:104BB000D4F80CE0AE454FF0000104D82769AF42AD
:104BC00084BF01210025864503F1010343D82769ED
:104BD000874240D9009FD4F888400025EFF3108227
:104BE00072B6DCF80030013BCCF8003082F310885C
:104BF000FFF78CFAA642BCD0002D38D0002F36D05B
:104C0000B8F5806F31D3B9F11F0F36D8019B9945A4
:104C100035D3029B012B2ED8EFF305811C4A136874
:104C20000B4306D0EFF3058113680B43B3F1F03F5C
:104C300027D3029B1393039B1293019B3A46CDE922
:104C40001093594653463046CDE90E5805B0BDE89D
:104C5000F04FFFF799B89342D4F8884003D0A642AA
:104C600001D00029A4D0009FB8E7052082E70320E7
:104C700005B0BDE8F08F10207CE70F207AE7182000
:104C800078E7132076E700BFD0A1FE1FD4A1FE1F56
:104C90000001FE1F44A1FE1F2DE9F043DDF82C901A
:104CA000DDE90767DDE909E818B10568074CA542A9
:104CB00002D00E20BDE8F083CDE90A89CDE9087E57
:104CC0000796BDE8F043FFF7FFB800BF44524854D1
:104CD00018B1044A0368934201D00E207047FFF7D1
:104CE0007FB900BF445248542DE9F0478CB008AB5F
:104CF0000646009304AA07AB03A900F085FB039BBB
:104D0000726C9A4206D171685A1C8A42726424BF3E
:104D100000227264B168726901FB03F302EB83093C
:104D20003369089A934200F08D800799F06A0A442B
:104D30000244D21A914200F2E580776A4FF00008EF
:104D400009EB870723B97DE008F10108434579D9CC
:104D5000BA4657F8045B02956A1C73D0002DF3DA4B
:104D600025F060452946304600F06AFF29460AAB27
:104D700009AA304600F082FE0A99494515D3B36866
:104D800009EB8303994210D2039B7268013393426B
:104D900028BF0023736429460AAB09AA304600F0F5
:104DA0006DFE0A99494580F0A280099B002B00F016
:104DB000A580B26A02EBC81209EB8202802330465A
:104DC00000F076F90446002840F08980029B23F029
:104DD0008043029302AA01235146304600F068F94D
:104DE000044600287BD1099945F0604501230BAAB0
:104DF00030460B9500F05CF9044600286FD10B9B00
:104E0000099923F000530B930BAA0123304600F0BD
:104E10004FF90446002862D1029B23F0004302931D
:104E200002AA51460123304600F042F90446002808
:104E300055D1079B013B079323B1336908F1010862
:104E4000434585D800220692012306AA49463046EA
:104E500000F02EF90446002841D1DDE90312304666
:104E6000013200F08FF80446002838D1049BB26B61
:104E70009A4249D0013352BF1A466FF0004213469E
:104E80000492326C9A4238BF3364D6E90632134436
:104E9000591E09EB8101012306F12002304600F082
:104EA00007F90446D8B9049A42F00042059201235A
:104EB00005AA4946304600F0FBF8044678B90123BC
:104EC00004AA4946304600F0F3F8044638B9089978
:104ED000F26A736B0A445B1AF262736312E0214652
:104EE000304601F075F820460CB0BDE8F08709F5B2
:104EF00000739942BFF459AF002309935C213046F7
:104F000001F066F80024EEE7F26B013AF263B1E7D4
:104F100008B5EFF3108C72B6174B1A688242D0F8BE
:104F2000102213D0D0F81432C2F81432C3F8102271
:104F3000124A13491368013B136001608CF3108817
:104F400000F5EE70FFF77EFC002008BD904209D00E
:104F5000D0F81412C2F81412C1F81022D0F810229E
:104F60001A60E5E7D0F81422824202D0C2F810029B
:104F7000F4E700221A60DBE794A2FE1F90A2FE1F56
:104F800044524F4EF0B5054687686B6901FB07F444
:104F900003EB840ED5F8703108460EEB87071146F7
:104FA000ABB103EB430305EB830C00222B46D3F894
:104FB00074414CB1A64504F5007605D8B74284BFCC
:104FC000C3F87421C3F87C210C339C45EFD1D5F88C
:104FD0009C30BDE8F0401847012B2DE9F04705460D
:104FE0000F46164647D1D0F87001002843D0002460
:104FF000F0B12A464FF0000CD2F8741104EB4403D0
:1050000005EB830329B18F4201F5007E01D377457B
:105010003AD3A44506D0D2F87C11D3F87C3199421A
:1050200038BF64460CF1010C844502F10C02E3D157
:105030006B6904EB4409FA1A6FF3080205EB89095E
:1050400003EB0208D9F87811D5F894308022404655
:10505000984758BBD5F8D831C9F87C010133C9F855
:105060007481C5F8D831D5F8D431D5F87001013B39
:10507000C5F8D431BCE7D5F894401A4631463846D5
:105080002346BDE8F04718470CEB4C0C05EB8C0CA5
:10509000DCE95E23791A0133CCF87C315358336054
:1050A000D5F8D43101330020C5F8D431BDE8F087FC
:1050B000012B70B505460846114606D0D5F8984034
:1050C0001A462346BDE870401847D5F87021002ADB
:1050D000F4D0AE464FF0000C03E00CF1010C624539
:1050E000ECD0DEF874410EF10C0E002CF5D08442A9
:1050F00004F50076F1D8B042EFD20CEB4C0C05EB86
:105100008C0C041BDCF878210E681651D6E700BF22
:10511000024A034B002010601860704794A2FE1FE3
:1051200090A2FE1F2DE9F04F8BB0D0F830B0049262
:105130009A46149A0023CAF800301360BBF1000F9E
:1051400000F08180D0F8AC5007468946002D40F031
:1051500099807E68D7E9124306F1FF38002E72D09D
:105160003046059556460AE0013408F1FF38A04262
:1051700098BF0024B8F1FF3F4FF0000363D0BA6836
:10518000796904FB02F201EB82014D686A1C52D07E
:105190008A680792B2F1FF3F4ED0A945E4D34A4551
:1051A000E2D33D69681E35B30022CDE90124D7F86A
:1051B00024C0CDF80C809A460CEB030201EB820E62
:1051C00051F82220541C0CD002F02048B8F1004FB6
:1051D00028D00133AB4228BF0023421E20B1104625
:1051E000EAE7BAF1000F16D1019BDDE902486BB97D
:1051F000079B01330AD0002307930831012307AA34
:105200003846FFF755FF002840F0A380BBF1000FA0
:1052100019D07868A8E70AF1FF324FF0000A534628
:105220001046C9E722F06048C8450BF1FF3B0FD09C
:1052300001220192CDE707953D69681E002DB3D18B
:10524000BBF1000FE5D1032630460BB0BDE8F08F6F
:10525000049C002C00F083805200E9D50A46B96A0C
:10526000029CC6F800E001EBC31102EB8102149925
:10527000AC460A6001336345C7E9124342D30023B9
:10528000FB643FE001F00303DA0002EB830200EB72
:10529000820203EB430300EB031303F1B005D2F8E2
:1052A000B03041F000418B4202F1B0042CD0EB68E9
:1052B000994235D0AB69994206D06B6A99427DD04C
:1052C000C36D0133C36544E7836D149A013383656D
:1052D000EB69CAF800302B6A136094E8070007AE48
:1052E00005F1180786E8070097E8070084E807003B
:1052F00005F10C0393E8070087E8070096E807002C
:1053000083E8070000269FE7836D01338365D2F8A9
:10531000B430CAF80030D2F8B830149A1360F1E70C
:10532000836D149A013383652B69CAF800306B6969
:10533000136094E8070007AE05F10C0386E8070048
:1053400093E8070084E8070096E8070083E8070071
:10535000D8E706460146384600F03AFE74E70A46AA
:10536000B96AC6F800E001EBC31102EB8101149A9F
:10537000029C1160D7F8AC20AC46B246059D002ACD
:105380003FF478AF05F1180898E8070049F00046A7
:1053900005F1240989E8070005F10C0E9EE80700D5
:1053A00088E8070095E807008EE80700DAF8002093
:1053B0006A60149A2E601268AA605BE7836D149A83
:1053C00001338365AB6ACAF80030EB6A136094E876
:1053D000070007AE05F1240C86E807009CE80700EB
:1053E00084E8070005F1180797E807008CE8070034
:1053F00005F10C0393E8070087E8070096E807002B
:1054000083E807007EE700BF2DE9F04F8A469B4600
:105410000169C36A8B4228BF836B91B02CBF0433F0
:105420004FF0FF33039343680293914642690C9215
:105430000546002B00F0F280DDF830C0CDF83CB01E
:10544000DCF800204FF0FF340026A242CDE90A66C6
:10545000CDE90866CDE90666CDE90DA90196B0460D
:10546000059604963046009632D037BF0123274672
:1054700017460193009B934238BF13460093DCF814
:1054800004305E1C42D0DCF80860B3423ED90023F1
:10549000AE6B964221D08B46C3455AD9039E9642A5
:1054A00004D3CDE90AE3CDE90820D846A24203D2CD
:1054B000CDE905BE07930490AB680CEB830C029B0F
:1054C0000130984255D0DCF800203C46A242CCD1B5
:1054D000019B013301932746CCE7EE6B002EDAD017
:1054E000DDE90DA9009EDDF83CB0CAF80000C9F85E
:1054F00000201A9A1160CBF800E06A6882423ED020
:10550000002B52D0002011B0BDE8F08F6B6A9B00D9
:1055100000296BD04FF0000B043B009E0CEB030AFC
:10552000DE46D94609E0002B09F10109ACBF0BF1B9
:10553000010B0EF1010E494504D05AF8043FB3F1B6
:10554000FF3FF0D1594500964FF00103A0D0C3456D
:10555000A4D8B8F1000FA9D0C345A7D1039E9642A5
:10556000A4D3089EB242A1D2CDE90AE3CDE9082036
:105570009CE7DDE90DA9009EDDF83CB03C46B8F1A2
:10558000000F3AD0099BCAF80030089BC9F80030D8
:105590001A9BC3F800800A9BCBF80030019BAF63D5
:1055A000C5E90F360B9B002BACD1DAF80020A968B7
:1055B0006B6A286901FB02339B0000283DD00C99DF
:1055C000043B00241944234604E0002AB8BF0134F8
:1055D000984205D051F8042F551C03F10103F4D172
:1055E0000020CBF8004011B0BDE8F08FAB6B9342C8
:1055F0000CD08E468B46012358E7049BCDE9084327
:10560000DDE905830A93079B0B93BBE7D5F83CB014
:10561000BBF1000F13D18E46012347E71A99CAF850
:1056200000301A464FF0FF33C9F800300A60CBF85B
:105630000020C0E90E320264B7E70446D0E7DDE996
:105640000DA9009EDDF83CB08E4601234DE700BF5A
:105650002DE9F04F002104468DB015464FF4067237
:1056600008F0EEFC2046A847A2680323D109A361F5
:1056700001F11E034FEA531B4F1E0BF1030007EB12
:105680000B036062D81C8028C4F81CB040F20B8168
:105690000233DB090133CF1ADB01D4F804C0A36263
:1056A00017F01F0107FB0CF3E3601DBF01238B40C4
:1056B00003F1FF334FF0FF33002066692761069343
:1056C00023620A90BCF1000F00F0B9814FEA820E0C
:1056D000354681464FF0FF380BE03CBF98464FF00F
:1056E00001090A99994238BF0A93013084457544EB
:1056F00008D02B680793002BF7DD4345EDD109F166
:105700000109EEE7B8F1FF3F00F00381CDF80C90FE
:10571000C4F844C00025B946CDF81080336807931B
:10572000002B7BDC636F002B40F0918101236367CA
:105730002846D4F8A030984768B1A36F002B40F0FA
:10574000868101230A9AA36729462046FFF71AFC9F
:10575000002840F00881A369013B03EB0B0106EB35
:105760008101012306AA2046FFF7A2FC002840F091
:10577000FA800A9B43F000430B930BAA01233146A6
:105780002046FFF795FC002840F0ED8001230AAA8F
:1057900031462046FFF78CFC002840F0E480E36AA5
:1057A000D4E901C24B44E3620135AC4506EB820605
:1057B000B4D8DDE90398636C0A9A22649C45C4E975
:1057C0000E8904BF00236364A8493423002204F532
:1057D000EE70FEF7E5FF002840F03E810123C4E9AA
:1057E0001200C4F8AC30EFF3108672B6A049A14B9A
:1057F00023600B68002B00F025819F4A1268D2F8C5
:105800001452C2F81442C5F81042C4E98425013389
:105810000B6086F310880DB0BDE8F08FBBF1000F70
:1058200000F0DD80A36903EB0B08002006EB830E7C
:1058300006EB88085EF8043B202113F0010F4FEAC5
:10584000530305D0676CBC4500F1010008BF6564D7
:105850000139F2D1C6450793ECD1A9EB0007E36A01
:105860000344E362B9F1000F9ED04FF000086FF0DF
:10587000604A636A434406EB830256F82330079379
:105880009FB123F06041514572D0002BC0F2AA8035
:10589000636B01336363013F08F10108C145E8D13F
:1058A000D4E901C280E78023F7E6013315D0D4F8AC
:1058B0008C300133C4F88C305A21204600F088FB2C
:1058C000636A0797434406EB830107AA0123204636
:1058D000FFF7EEFB0146002846D1A36A03EBC8118F
:1058E00006EB81010B1F01F5FE7101E09942D3D057
:1058F00053F8042F0132F9D0D4F8903001335B21F2
:10590000C4F89030204600F063FB01200DB0BDE8E4
:10591000F08F012525670BF1FF3B03214FF00008B5
:1059200014E020460795FFF7C3FB08F10108D0B942
:10593000E36A626825643B44E362A3684245C4E9C4
:105940000E5206EB83067FF63FAFA169594401234F
:1059500006AA06EB81012046FFF7AAFB012307AA4E
:1059600031460028DDD00146204600F031FBCCE76F
:10597000591C1FD0002B8BDA9B0003D4236B0133FF
:10598000236388E7636B01336363D4F888300133A2
:10599000C4F88830636A434406EB8301002307930D
:1059A00007AA01232046FFF783FB014600283FF4A6
:1059B00072AFD9E7D4F88430002B52D11146079347
:1059C00007AA01232046FFF773FB01460028CBD12D
:1059D000D4F884300133C4F88430079BCAE74F46BB
:1059E00058463CE75800C7D4E36F09AA0133E36780
:1059F000E3680092226B05922363012208AB2046E4
:105A0000FFF790FB089B059A2263002BE5D0636AA1
:105A1000434406EB8301079B23F00043079307AA47
:105A200001232046FFF744FB014600289CD1D4F80F
:105A30008030B3B90123C4F88030079B9AE7012373
:105A40002367C1E60C4AC4E984441460DFE65B21A5
:105A5000204600F0BDFA58E75D21204600F0B8FA74
:105A600053E75A21204600F0B3FA4EE714FE000037
:105A700090A2FE1F4F524F4E94A2FE1F2DE9F04FF1
:105A8000064689B0006E029393461A460130002301
:105A90003066CBF800301360F26A0391002A00F000
:105AA000B480D6F804E0D6F84480BEF1000F00F0D0
:105AB000AC809C46D6F814A0B368F1690193019BB1
:105AC00008FB03F70AEB8707002900F09380B2690F
:105AD000002507EB820203E001358D4200F08A8049
:105AE000914652F8043B0593002BF5D00020044664
:105AF00007E05B0804F101044FF0010075D0202C91
:105B000073D013F0010FF4D000B10593D9F8002041
:105B1000012303FA04F022EA0002494605923046C6
:105B200005AAFFF7C5FA8146002877D1059A736A5E
:105B30005FEA520A43D1F269013AAA423FD1039A7D
:105B4000D6F810C0CDE906229B00BCF1000F1BD097
:105B5000043B3B4452466FF0604E01E0624513D077
:105B600053F8040F002802F1010220F06041F5DA39
:105B70000698814238BF06917145EFD00798884258
:105B800038BF07916245EBD1736808F101084345BE
:105B900088BFC24606AA0123391D3046FFF788FA9E
:105BA0008046002842D1012307AA07F108013046A8
:105BB000FFF77EFA8046002838D1736AD04603EB9F
:105BC0004513B26AC6F84480234407EB830304EB11
:105BD0004515CBF8003002EBC512029B07EB82079C
:105BE00048461F6009B0BDE8F08F01358D4205932E
:105BF0007FF476AF08F101080CF1010CF04528BFE5
:105C00004FF00008F4457FF45AAF736E4FF002096D
:105C100001334846736609B0BDE8F08F014630464F
:105C200000F0D6F9484609B0BDE8F08F304641464D
:105C300000F0CEF9C146484609B0BDE8F08F00BF7C
:105C4000D0F8AC301BB301F00303DA0003EB430CD4
:105C500002EB830300EB0C1C00EB830041F00041DE
:105C6000D0F8B0308B4230B50CF1B00C10D0DCF86D
:105C70000C30994230D0DCF81830994220D0DCF852
:105C80002430994204BF0023CCF8243030BD704743
:105C90000CF10C0E00F1B0039EE8070083E807004A
:105CA0000CF1180393E807008EE807000CF12404B8
:105CB00094E80700002583E80700CCF8245030BDA5
:105CC0000CF1240393E807000CF1180383E80700A4
:105CD0000023CCF8243030BD0CF1180393E8070002
:105CE0000CF10C0484E807000CF1240207CA83E8D5
:105CF00007000023CCF8243030BD00BF2DE9F0416F
:105D0000044600F5EE7686B00D4630464FF0FF3182
:105D10009046FEF7ADFD636D05AF0133636500226C
:105D200003AB009729462046FFF7FCF9039BA3B17C
:105D30000599802342462046FFF74EF908B9002412
:105D400004E00146204600F043F901243046FEF706
:105D5000B7FD204606B0BDE8F0813B4603AA2946C0
:105D60002046FFF78BFE039BC3B1E36A0599013B15
:105D7000E362424680232046FFF72EF980B945F0C2
:105D8000404503990495012304AA2046FFF790F9A2
:105D900058B9236B013323630024D7E70324D5E7E5
:105DA0000146204600F014F9E9E70146204600F0DC
:105DB0000FF93046FEF784FD0124CAE7F0B504462A
:105DC00000F5EE7787B00D4638464FF0FF31FEF70D
:105DD0004FFD636D0133636505AB009329460022D7
:105DE00003AB2046FFF79EF9039991B30B6823F0AC
:105DF0004043049304AA01232046FFF759F90646BD
:105E0000E0B9636B01336363236B013B2946236372
