:10000000004000200D060000A50400001B060000B3
:100010001B0600001B0600001B0600001B0600005C
:100020000000000000000000000000001B060000AF
:100030001B060000000000001B0600001B0600005D
:1000400080B56F4682B040F62420C0F200000188DF
:10005000002901915AD0406844F2600440F600083B
:1000600043F6FA790126C2F200046FF03F0BC4F2A6
:100070000808CFF6FE794FF0000A0090EFF31080E9
:1000800086F31088216839B940F603520021C4F282
:10009000080211704021117021680131216080F344
:1000A00010884AF00400DDE90012C0B231F8023BCA
:1000B000013A0BEA9305DBB205EB830353F80850D2
:1000C00005EA090545EA000543F80850EED1EFF3CB
:1000D000108086F31088216811B1216801392160F0
:1000E000216839B940F603520021C4F208021170A8
:1000F0008021117080F310884FF4FA704FF47A71F8
:100100008AF0010A00F0A1F9B8E700BFFEE7022873
:1001100018BF704744F2200040F69411C2F200006C
:10012000C0F2000100F006B880B56F46FFF788FF07
:10013000002080BD80B56F4645F25422C5F24F02C3
:100140000260084600F002F8002080BDF0B503AF61
:100150004DF804BD044600F05FF844F2600CEFF384
:100160001080012181F31088C2F2000CDCF800102D
:1001700039B940F60351C4F2080100220A70402246
:100180000A70DCF800100131CCF8001080F3108800
:10019000208818B340F6000E0021C4F2080E00BFFC
:1001A000606800EBC102928850F83130100ADD031C
:1001B000D2B20BD50EEB801555F8226026F48036AE
:1001C00045F8226023F4803645F822600EEB80105B
:1001D00040F82230208801318142E1D3EFF31081D1
:1001E000012080F31088DCF8000020B1DCF800006A
:1001F0000138CCF80000DCF8000038B940F60350B4
:10020000C4F20800002202708022027081F310887C
:100210005DF804BBF0BDD4D4F0B503AF2DE9000FF9
:1002200081B00446008800285DD043F240084EF2B9
:10023000BB4940F6A01BC4F208080026C4F201091D
:10024000C0F2000B002500BF60683BF8152000EBF2
:10025000C601898891423FD150F8360099F80010C4
:10026000012200F0B85002FA05FAB0F1807F0AEAE4
:10027000010015D158B9012000F0A0F999F800004B
:1002800040EA0A0089F80000012000F06EF918F930
:100290001500002820D418F8150040F0800015E063
:1002A00058B1012000F08AF999F8000020EA0A000C
:1002B00089F80000012000F058F918F91500B0F194
:1002C000FF3F09DC18F8150000F07F0008F8150062
:1002D000C820012100F0B9F80135032DB4D12088E0
:1002E00001368642AED301B0BDE8000FF0BD4EF23C
:1002F0002000C4F20100817944F200020068C2F2D9
:10030000000252F82110C0F3026021FA00F044F21A
:100310007001C2F2000108607047D4D4F0B503AF99
:100320002DE9000B4EF2FE34C4F201044CF200152C
:100330004AF20350C4F2010520800120A88000BFCA
:10034000A8880028FCD10120288044F2000842F649
:1003500000504CF2002C4EF22006C2F20008C0F20F
:10036000311041F200214FF4004243F20063C0F625
:10037000EB3CC4F20106C0F27A01C0F26E1388E8C9
:100380000F00C8E9042CB079316858F82000C1F397
:10039000026144F27009C840C2F20009C9F80000C5
:1003A00000206075092086F8820094F8820018B950
:1003B00094F88300800742D094F8820050B901205D
:1003C00084F88200C820012100F03FF894F88200F0
:1003D0000128FBD1002084F8830084F882000020EB
:1003E000B07400BF307F0007FCD543F202103081AB
:1003F0000020B072307F8006FCD50120287741F2C2
:100400002120C2F2021030600520B071B07931684D
:1004100058F82000C1F30261C840C9F8000042F258
:100420000800C4F20000F121017100210170F021E7
:1004300001714FF425402080BDE8000BF0BD4FF462
:100440007A7000F001F8CAE77047484344F270013F
:10045000C2F2000109684CF6002348F63812C3F6D0
:100460009A33C0F24102B3FBF1F1904206D24FF44D
:100470007A725043B0FBF1F0800807E08900B0FBCE
:10048000F1F0904206D24FF47A71484308B100F07F
:1004900005B870474FF0FF3000F000B80138002871
:1004A000FCD17047F0B503AF2DE9000B46F22018E0
:1004B000C4F20008B8F80000B8F8201044F228058B
:1004C00001EA00091FFA89F60024C2F2000500BF04
:1004D00026FA04F0C00704D055F8241009B1E0B2A0
:1004E000884701340E2CF3D1A8F81090BDE8000B1A
:1004F000F0BDD4D4F0B503AF4DF804BD84B048F2DC
:1005000048040320C4F2000400F058F840F610211B
:10051000C0F200010E886FF0FF0020604FF0FF3046
:1005200003900290019016B16FF0010001904EF21D
:100530008032002001A9CEF2000200BF51F8203025
:1005400004EB8005AB6242F8203001300328F5D17E
:10055000032000F00AF826B146F20030C4F2000091
:10056000066004B05DF804BBF0BD0122EFF310811A
:1005700082F3108844F26402C2F2000232F81030B2
:1005800023B132F81030013B22F8103032F810203D
:100590008AB94EF2FE3CC4F2010C40F61222BCF8BD
:1005A0000030C0F2000232F8100043F4254222EA83
:1005B0000000ACF8000081F31088704780B56F46EA
:1005C0000122EFF3108182F3108844F26402C2F238
:1005D000000232F810308BB94EF2FE3C40F6122386
:1005E000C4F2010CC0F20003BCF800E033F8103094
:1005F00043EA0E0343F42543ACF8003032F81030E0
:10060000013322F8103081F3108880BD80B56F4629
:1006100000F006F8FFF788FDFEE700BE7047D4D46F
:10062000B0B502AF4EF60850CEF200004FF47001A4
:10063000C0F8801040F20001C0F20001016000200B
:100640000024FFF764FDFFF769FE0120FFF75FFD5F
:1006500040F20000C2F2000080F30A88002000F09F
:100660004DF8FFF744FE0320FFF7A8FF40F61050B7
:10067000C4F208004FF6FF7120F814100134082C62
:10068000FAD10320FFF771FF0320FFF797FF042043
:10069000C4F20E000021016041608160C16003204E
:1006A000FFF763FF0220FFF732FD012000F026F87C
:1006B00044F28404C2F20004204600F055F82046BB
:1006C00000F068F840F67A2040F67A21C0F2000087
:1006D000C0F20001081A8410012C08DB40F67A25CC
:1006E000C0F2000555F8040B8047013CFAD1FFF732
:1006F00001FF0020BDE8B04000F034B8F0B503AF12
:100700004DF8048D40F6A818C0F20008D8F8006033
:1007100004467EB1D8F80400051D00BF6879A042E8
:1007200004D155E90101091A00F03EF8013E05F136
:100730000C05F3D1D8F808608EB1D8F80C0000F1A0
:10074000080500BF6879A04205D155E90202296871
:10075000121A00F02DF8013E05F11005F2D15DF8F6
:10076000048BF0BD7047D4D4D0B502AF0549044620
:10077000054A00F01DF805480549204400F014F82A
:10078000D0BD00BF400000000000000000000000DD
:10079000000000000249401A02490860704700BF8B
:1007A00008000000804000200A46002100F00AB83E
:1007B000D0B502AF00239A4203D0CC5CC4540133BD
:1007C000F9E7D0BD00239A4208BF7047C1540133F6
:1007D000F9E7D4D400800000000000000080000091
:1007E0000100000000800000020000000080000006
:1007F0000300000000800000040000000040000032
:10080000050000000040000006000000008000001D
:1008100007000000104000000800000000800000F9
:100820000E000000008000000F0000000000010426
:1008300000010000000001040101000004000000AC
:10084000020100000400000003010000000001118B
:100850000401000004000000050100000400000085
:100860000601000004000000070100000000010074
:100870000801000000000100090100000000010063
:100880000A010000000001030B0100004000010408
:100890000C010000400001040D01000004000000F4
:1008A0000E010000040000000F0100000000010420
:1008B0000602000000000104070200000000010021
:1008C0000003000004000000040300000000011108
:1008D00005030000000001110603000000000111E3
:1008E00007030000000001040004000000000104F0
:1008F00001040000040000000204000004000000E5
:1009000003040000040000000404000004000000D0
:10091000050400000400000006040000400001057A
:100920000804000040000105090400000000010463
:100930000D040000104000000E0400000400000040
:100940000F0400001040000002050000000001112B
:10095000030500000000011105050000000001056D
:1009600000060000400001050106000040000105EE
:10097000020600000000010503060000040000005C
:100980000806000004000000090600000400000042
:100990000A06000038000000D40700000000000034
:1009A000020403040404D4D402000000B8090000C7
:1009B00004000000D00900002040002084400020F6
:1009C0000000000384400020844000200000000359
:1009D00000000020000000200000006000010C0367
:1009E00000000020000000200000000800000203BA
:1009F0000000002000000020400000000000010373
:100A000084400020844000204000000000000103DA
:100A10000000010002000800100020000F04040480
:100A20000504D4D4030000001C0A000000000206E4
:100A3000362E322E30004275696C742077697468E6
:100A40002052656E6573617320416476616E6365E3
:100A50006420466C657869626C6520536F667477B4
:100A6000617265205061636B6167652076657273A2
:0A0A7000696F6E20362E322E300022
:020000040100F9
:04A10000FFFFFFFF5F
:04A20000FFFDFFFF60
:04A28000F8F8FFFFEC
:040000030000060DE6
:00000001FF
