S00C000065785F312E73726563AB
S31500000000500400208D370000F93500009D370000B0
S315000000109D3700009D3700009D3700009D3700008A
S315000000200000000000000000000000009D370000F6
S315000000309D370000000000009D3700009D3700003E
S31500000040AD26000005260000C52F0000E93000009F
S315000000509D320000E93000009D320000111C0000B6
S31100000060451B0000E91C00006D1D00009F
S3150000006C1000000000000000017A5200017C0E0115
S30D0000007C1B0C0D000000000042
S3150000008440003500030000000B00000004000000DF
S3150000009404000000FFFFFF1F200000000001010014
S315000000A42100000000000000220000000000000003
S315000000B42300000000000000FF070000FF07000007
S315000000C410070000000000001107000000010000F6
S315000000D4F0B503AF2DE9000F83B040F2704300EB97
S315000000E44000C2F2000303EBC008D8F82C00934684
S315000000F40228894616D0012809D0002877D144461B
S3150000010454F8245F6068A8426AD9E9436CE044461F
S3150000011454F8245F6168A9423BD9EA43D8F8200021
S3150000012411443BE058F8244F002608F104000290DD
S31500000134A8F1040AA8F10800019000BF0298E2435E
S315000001440168DAF80000A1421144A0EB040598BF47
S315000001540144A94238BF0D4601985D45006828BF91
S315000001645D46204449462A4603F011FCDAF80000AD
S315000001742919ABEB050B0C1A2E44A94418BF0C46DF
S31500000184BBF1000FBFF35F8F4046C8F80040D5D1DE
S3150000019453E0D8F82000EA4311440144594538BFD6
S315000001A48B46461B58F81C0FB345284408D24946CB
S315000001B45A4603F0ECFBBFF35F8F0BEB050028E018
S315000001C449463246454603F0E2FBABEB060828688F
S315000001D409EB0601424603F0DAFBBFF35F8F29E021
S315000001E4D8F82010EA4310440844584501D20026A2
S315000001F423E058F81C0FD8F8041028444E1BB345C6
S3150000020409D249465A4603F0C2FB05EB0B00BFF37D
S315000002145F8F206010E049463246454603F0B7FB3F
S31500000224ABEB0608286809EB0601424603F0AFFB70
S31500000234BFF35F8FC4F800805E46304603B0BDE866
S31500000244000FF0BDF0B503AF4DF8048D40F27045D4
S31500000254C2F200052B780C46532B36D0804628462E
S31500000264A821164603F08FFB03202861686143F634
S31500000274C27140F21850C0F20001C2F20000A96136
S31500000284E8614FF4006028620020A8626862E862B0
S31500000294296640F61851C2F2000169661021A96662
S315000002A443F6B411C0F200012867E8666867BFF335
S315000002B45F8F00BF80F00F028A5C2A540130102839
S315000002C4F8D132464046BFF35F8FEFF311854FF006
S315000002D4200181F311882146FFF7FAFE85F3118880
S315000002E45DF8048BF0BDD4D4F0B503AF2DE9000F4F
S315000002F481B040F27044C2F20004EFF311884FF06B
S31500000304200181F311882078532832D02046A82171
S3150000031403F039FB03202061606143F6C27140F2A9
S315000003241850C0F20001C2F20000A161E0614FF46E
S31500000334006020620020A0626062E062216640F6EE
S315000003441851C2F2000161661021A16643F6B41188
S31500000354C0F200012067E0666067BFF35F8F00BFED
S3150000036480F00F028A5C225401301028F8D1BFF3C2
S315000003745F8FD4F86CB0266F5E451FD9D4E9190A8D
S31500000384AAEB0601BAEB0609B1FA81F118BF4FF0E0
S3150000039401094D098119A7F11D004A4603F0F7FA30
S315000003A406EB0901B1EB0A0018BF0846ABEB0001E6
S315000003B4A94238BF0D46C5B1064603E0B3451CD075
S315000003C44FF00009606EA7F11D01805DB9F1000FC1
S315000003D401F8090006F10100206788F3118817F86F
S315000003E41D0C18BF4FF0FF300BE0B24505D0206757
S315000003F488F3118817F81D0C03E04FF0FF3088F3DB
S31500000404118801B0BDE8000FF0BDD4D4D0B502AF59
S3150000041440F27044C2F200042078532831D02046BA
S31500000424A82103F0B0FA03202061606143F6C2718B
S3150000043440F21850C0F20001C2F20000A161E0616E
S315000004444FF4006020620020A0626062E0622166D0
S3150000045440F61851C2F2000161661021A16643F606
S31500000464B411C0F200012067E0666067BFF35F8FD6
S3150000047480F00F028A5C225401301028F8D1BFF3B1
S315000004845F8FE06E216F081A18BF0120D0BDD4D447
S31500000494D0B502AF40F27044C2F200042046A8214F
S315000004A403F071FA03202061606143F6C27140F2E1
S315000004B41850C0F20001C2F20000A161E0614FF4DD
S315000004C4006020620020A0626062E062216640F65D
S315000004D41851C2F2000161661021A16643F6B411F7
S315000004E4C0F200012067E0666067BFF35F8F00BF5C
S315000004F480F00F028A5C225401301028F8D1BFF331
S315000005045F8FD0BDF0B503AF2DE9000F9BB00C464D
S3150000051406A9169140214CF6CD4C9346179100211D
S3150000052404901A900DF15808CCF6CC4C0020CDE975
S31500000534181112E0011DCBF800100168404653461D
S31500000544CDE9005900F034FA4CF6CD4CCCF6CC4C3F
S315000005541998B0F1FF3F40F3278214F8011B2529AF
S315000005641CD0002900F01282DDE91720431C9342B7
S3150000057407D8169A11541998179A013019901846E3
S3150000058418939042E4D116991A98FFF75BFE1899CE
S31500000594884240F0F88100201890D5E74FF0000912
S315000005A42178A1F123030D2B14D80222DFE803F0EE
S315000005B40C121212121212120E121012120749EA19
S315000005C402090134ECE700BF0822F8E70422F6E743
S315000005D40122F4E7A1F13A02002512F10A0F0FD322
S315000005E40A4600BF14F8011F05EB850302EB43021C
S315000005F4A2F13005A1F13A0212F10B0F0A46F1D825
S315000006042E290FD1224612F8011F2A290ED1DBF812
S31500000614001002340A1DCBF80020D1F800A00121F5
S3150000062420E000BF00214FF0000A1BE0A1F13A03CD
S3150000063413F10A0F03D200214FF0000A11E04FF024
S31500000644000A00BF0AEB8A0301EB430112F8013FDB
S31500000654A1F1300AA3F13A0111F10B0F1946F1D8B1
S3150000066401211446621E00BF12F8013F03F0FB0687
S31500000674682EF9D0A3F15806202E02F1010426D8DB
S31500000684DFE806F0121111111111111111111116D1
S315000006943C11111111111111111111116B11117953
S315000006A411381111120053E7DBF80000102241E75C
S315000006B4DDE91720DBF80030411C1E1D9142CBF802
S315000006C400603FF65EAF1A68169B1A540BE0252BA2
S315000006D47FF43EAFDDE91720411C91423FF651AF4E
S315000006E4169A252313541998179A01301990084617
S315000006F4189146E7DBF800000A221BE7DBF8001036
S315000007044FF001080A1DCBF8002009680029C1F141
S3150000071400020E4648BF11460A29039208DB00BFB1
S31500000724A1FB0C2363294FEAD30108F10108F7D88A
S31500000734D045CDF814B098BFD046002D5ED0002128
S31500000744002E48BF012109F0040241EA9201A5EBFB
S31500000754010B5FEA897556D479E0DBF800001022B4
S31500000764011DCBF800100168404608230026082521
S31500000774CDE90056E6E6DBF80020C146131DCBF8AA
S315000007840030156843F6CC432A46002D18BF0122D3
S3150000079401EA0208C0F2000308BF1D460CE000BFD0
S315000007A419984CF6CD4C0021CCF6CC4C1891B0F1EE
S315000007B4FF3FAAF1010A1FDD15F8011BE1B1BAFAE0
S315000007C48AF2520912EA080216D1DDE917235E1CE1
S315000007D4964207D81698C1541998179A0130334689
S315000007E4189619909342E2D116991A98FFF72AFDA2
S315000007F418998842D4D0C6E0C846A9E64FF0000B43
S315000008045FEA897523D5BAF1000F20D1002800F1DB
S31500000814B580B6F1FF3F4CDD5FEA497170D5DDE97D
S3150000082417214B1C934208D816982B224254199828
S31500000834179A0130194618931990914258D116996E
S315000008441A98FFF7FFFC189988424AD09BE05FEAA2
S31500000854C971DBD1BBF1000FD8D0029504E000BF0B
S315000008640028AB4600F18A80ABF101055D4538BF2F
S31500000874D84540D2DDE917214B1C934208D8169877
S31500000884202242541998179A013019461893199040
S315000008949142E5D116991A98FFF7D4FC1899884223
S315000008A471D119984CF6CD4C0021CCF6CC4C18914C
S315000008B4D6E7DDE917214B1C934208D816982D225A
S315000008C442541998179A013019461893199091426F
S315000008D413D116991A98FFF7B5FC1899039E884206
S315000008E451D10020189019984CF6CD4CCCF6CC4C2E
S315000008F4002805D542E0029D88E7039E00283DD4E2
S31500000904002D0CD40DF15808404631460A225346B0
S31500000914CDE900B900F04CF8DDF814B014E609F09E
S31500000924010151EA0A01EDD1BBF1000FEAD0ABF1A6
S3150000093401055D4538BFD845E4D2DDE917214B1CD6
S31500000944934208D81698302242541998179A0130BF
S31500000954194618931990914209D116991A98FFF7D6
S3150000096471FC189988420ED11998002118914CF6F9
S31500000974CD4C0028AB46CCF6CC4CD8D5DDF814B01B
S315000009840DF15808E4E54FF0FF300DE040B1189A38
S3150000099442B1049806A9FFF755FCDDE9181002E0F8
S315000009A4002001E0002108441BB0BDE8000FF0BDA3
S315000009B4F0B503AF2DE9000F81B0D7F808A01E46A5
S315000009C415468846914204464FF0010906D340462F
S315000009D4B0FBF5F009F10109A842F9D2F968B1456D
S315000009E498BFB146BAF1000F36D011F0010033D1E9
S315000009F44FF0200B880748BF4FF0300B2020002E05
S31500000A0418BF834604E000BFE068B0F1FF3F23DD72
S31500000A14BAF1000F20D0D1451ED2D4E90120411CE1
S31500000A24914208D8226802F800B0E0686268013092
S31500000A34E0600846A1609042AAF1010AE4D1216867
S31500000A442069FFF7FFFBA168884202D10020A0605D
S31500000A54DAE74FF0FF30E060E06800283ED44FF05C
S31500000A64010B02E0013E0BFB05FB022EFAD2B8FB9A
S31500000A74FBF1A942F7D2A2686168B8FBFBF6531CE6
S31500000A848B420CD844F2E910C0F20000805D216864
S31500000A948854E068616801301A46A360E0608A42BF
S31500000AA409D121682069FFF7CDFBA26890420CD1D9
S31500000AB4E0680022A26000280AD4BBFBF5F106FB1D
S31500000AC41B88AB458B46D7D202E04FF0FF30E0607F
S31500000AD4F968C90718BFBAF1000F03D101B0BDE820
S31500000AE4000FF0BD2025AAF10106564538BFD145B1
S31500000AF4F4D26168531C8B4207D820688554E06899
S31500000B04616801301A46A360E0608A4209D121680F
S31500000B142069FFF797FBA168884207D1E0680022A5
S31500000B24A260B0F1FF3FB246DDDCD7E74FF0FF30FD
S31500000B34E060D3E782B080B56F4682B0C7E902238E
S31500000B4407F10802019201AAFFF7DCFC02B0BDE836
S31500000B54804002B07047D4D480B56F46FFF798FC46
S31500000B6444F22101C0F200010020FFF7E3FF40F642
S31500000B74846044F25821C2F20100C0F2000101F07F
S31500000B842BFF48B143F619510246C0F2000100207A
S31500000B94BDE88040FFF7CEBF43F63E51C0F20001E8
S31500000BA40020BDE88040FFF7C5BFD4D4F0B503AF3D
S31500000BB44DF8048D8288B2F5006F00F01581B2F508
S31500000BC4806F1DD140F62855C2F200052978DFE86A
S31500000BD401F0025E2B224169B1F5807F40F0048169
S31500000BE490F82010012940F0FF80827E052A2AD041
S31500000BF443F6E321C0F200010020FFF79BFFFDE06E
S31500000C0443F6CB71C0F2000100205DF8048BBDE809
S31500000C14F040FFF78FBF43F69721C0F20001044668
S31500000C240020FFF787FF20464169B1F5807F40F039
S31500000C34DB8090F82010012940F0D680827E0021C6
S31500000C44052A2970D4D110F8211F40F62C56427873
S31500000C548378C07841EA022143EA002041EA00424F
S31500000C6444F2AD01C2F20006C0F200010020326077
S31500000C740024FFF75FFF3268B2F1011F77D343F612
S31500000C843021C0F2000100204FF48033B4E0416902
S31500000C94B1F5807F23D040F20112914240F0A48046
S31500000CA440F63458C2F20008048CB8F80020944286
S31500000CB47DD1817E8B1E02EB420140F62C52C2F29C
S31500000CC400024900126851FA83F6964276D943F631
S31500000CD41071C0F200010020FFF72CFF8EE090F89F
S31500000CE42000032840F0808044F26301C0F2000132
S31500000CF40020FFF71FFF40F6305040F62C54C2F296
S31500000D040000C2F200040368226893426FD143F6DE
S31500000D144D31C0F2000100201A46FFF70BFF0220F6
S31500000D2443F6AC312870C0F200010020FFF702FF41
S31500000D34226843F64B7102F17F0020F07F04C0F273
S31500000D44000100202346FFF7F5FE40F6AC6044F2AE
S31500000D547021C2F20100C0F2000101F03FF900283F
S31500000D6451D043F6C5110246C0F2000144E740F6ED
S31500000D743050C2F20000046040F63450C2F2000063
S31500000D84048040F63850C2F200004FF48031FF224E
S31500000D9402F0F4FD012244F21B11C0F2000100200E
S31500000DA42A705DF8048BBDE8F040FFF7C3BE43F636
S31500000DB4C651C0F20001002023461DE040F6385219
S31500000DC4C2F20002DDB20A4400F1220110462A46AC
S31500000DD402F0DDFD40F63050C2F2000001682944FD
S31500000DE40160601CA8F800005DF8048BF0BD43F6B2
S31500000DF4EF11C0F200010020FFF79CFE03202870CB
S31500000E045DF8048BF0BD44F24411C0F200010020E9
S31500000E14FFF790FE41F6FF702044420B40F6AC60AB
S31500000E24C2F201004FF4803101F056FA28B143F6BC
S31500000E3452610246C0F2000120E043F63841C0F296
S31500000E4400010020FFF776FE43F6D431C0F200011C
S31500000E540020FFF76FFE40F6AC6040F63851C2F250
S31500000E640100C2F200014FF48032234601F0A4F9D6
S31500000E7498B143F6AD610246C0F200010020FFF7C7
S31500000E8459FE032140F6AC60C2F2010029705DF8F8
S31500000E94048BBDE8F04001F0DBBA44F26B11C0F2FA
S31500000EA400010020FFF746FE40F6AC60C2F20100E6
S31500000EB401F0CEFA43F6D361C0F200010020FFF739
S31500000EC439FE00F001F8D4D480B56F464EF2FE30F8
S31500000ED4C4F201004AF202514EF201520180552138
S31500000EE4C4F20102AA2380F80211137051704FF460
S31500000EF425419370018040F68460C2F2010001F03E
S31500000F04EDFF40F6AC60C2F2010001F0A1FA00F078
S31500000F1401F8D4D44EF60C50BFF34F8FCEF2000036
S31500000F240168042201F4E061C0F2FA52114301603F
S31500000F34BFF34F8F00BFFDE70278072A3FD80FF2B1
S31500000F440600DFE802F0042712190B2E352044F2BE
S31500000F54F701C0F200010020FFF7ECBD44F2800166
S31500000F64C0F200010020FFF7E5BD43F68141C0F25F
S31500000F7400010020FFF7DEBD43F6EF71C0F2000169
S31500000F840020FFF7D7BD43F67851C0F200010020D8
S31500000F94FFF7D0BD43F6D341C0F200010020FFF7AE
S31500000FA4C9BD44F29011C0F200010020FFF7C2BD92
S31500000FB443F60661C0F200010020FFF7BBBD43F60D
S31500000FC48A31C0F200010020FFF7B4BDF0B503AFCB
S31500000FD42DE9000F83B00179042940F0AB818068C4
S31500000FE4C1B20D2901D00A2922D140F63854C2F2E1
S31500000FF4010420680228C0F09D8140F63C5AC2F2E2
S31500001004010A9AF8001000253A290AF8005040F01F
S3150000101489819AF80110A1F13000C2B20A2A20D3BC
S31500001024A1F14100C0B2052814D8A1F1370018E097
S3150000103440F63851C2F201010A687E2A07D8531CC9
S315000010440B6040F63C51C2F20101885472E1002063
S3150000105408606FE1A1F16100C0B2052819D8A1F1B9
S3150000106457009AF80210A1F13002D3B20A2B0ED31C
S31500001074A1F14102D2B2052A02D8A1F1370206E053
S31500001084A1F16102D2B2052A03D8A1F1570242EABC
S3150000109400199AF80310A1F13000C2B20A2A0ED33D
S315000010A4A1F14100C0B2052802D8A1F1370006E03B
S315000010B4A1F16100C0B2052819D8A1F157009AF828
S315000010C40410A1F13002D3B20A2B0ED3A1F14102CE
S315000010D4D2B2052A02D8A1F1370206E0A1F16102D3
S315000010E4D2B2052A03D8A1F1570242EA001B9AF8A4
S315000010F405205FFA8BFEA2F13001C8B20A280BEB79
S3150000110409000FD3A2F14101C9B2052902D8A2F1FF
S31500001114370107E0A2F16101C9B2052900F29781FE
S31500001124A2F157019AF80620A2F13003DEB20A2E84
S315000011340FD3A2F14103DBB2052B02D8A2F1370388
S3150000114407E0A2F16103DBB2052B734605D8A2F1D1
S31500001154570343EA011B5FFA8BF302939AF80730AD
S31500001164A3F13002D1B20A2900EB0B010ED3A3F18D
S315000011744100C0B2052802D8A3F1370206E0A3F164
S315000011846100C0B2052819D8A3F157029AF80830AD
S31500001194A3F13000C6B20A2E0ED3A3F14100C0B2A9
S315000011A4052802D8A3F1370006E0A3F16100C0B216
S315000011B4052803D8A3F1570040EA021C5FFA89F810
S315000011C4B8F1000F614436D00AF10A02434608E03A
S315000011D4A0F1370444EA061B5944013B02F102021A
S315000011E429D012F8010CA0F13006F4B20A2C0FD360
S315000011F4A0F14106F6B2052E02D8A0F1370607E0A3
S31500001204A0F16106F6B2052EE6D8A0F1570600BF96
S315000012141078A0F13004E5B20A2DDBD3A0F1410524
S31500001224EDB2052DD4D9A0F16105EDB2052DD3D8C3
S31500001234A0F15704CEE70AEB4803587AA0F130022E
S31500001244D6B20A2E0ED3A0F14102D2B2052A02D892
S31500001254A0F1370206E0A0F16102D2B2052A18D83D
S31500001264A0F15702987AA0F13003DEB20A2E0ED30B
S31500001274A0F14103DBB2052B02D8A0F1370306E047
S31500001284A0F16103DBB2052B03D8A0F1570343EAAF
S31500001294021BCBF10000C0B2C9B2814236D15FFA5B
S315000012A48CF2052A00F2E48040F63854C2F20104B6
S315000012B40025DFE812F00600800137003700CE0073
S315000012C4370040F63C66C2F201063078002800F08A
S315000012D4D7805FEA096025D040F64060C2F201007B
S315000012E40068029A4FEA0E21104440F6446C40F618
S315000012F4486E40F6BC5600EB01090AF10A0AC2F22E
S31500001304010CC2F2010EC2F2010626E044F2DF012C
S31500001314C0F200010020FFF70DFC40F63854C2F27B
S315000013240104002540F63C50C2F2010080212560EC
S3150000133402F029FB03B0BDE8000FF0BD0020CEF893
S315000013440090411CB8F1010809F101090AF1020AE9
S31500001354CCF8001006F800B0E4D01AF8011CA1F18C
S315000013643000C2B20A2A0ED3A1F14100C0B2052848
S3150000137402D8A1F1370006E0A1F16100C0B2052848
S3150000138419D8A1F157009AF80010A1F13002D3B28E
S315000013940A2B0ED3A1F14102D2B2052A02D8A1F139
S315000013A4370206E0A1F16102D2B2052A03D8A1F1FF
S315000013B4570242EA001BDCF800000028BED0324681
S315000013C4DEF800607F2804D83118894501D1164615
S315000013D4B7E710F07F01144605D02044C1F180011F
S315000013E4FF2202F0CBFA40F6AC60C2F201002146BD
S315000013F43246802300F0E0FEA0B143F65D4102468A
S315000014040020C0F20001FFF795FB40F6446CC2F2DF
S31500001414010CDCF80000264640F63854C2F20104FA
S3150000142400250FE020468021FF2202F0A7FA264677
S3150000143440F6385440F6446C0020C2F201040025FC
S31500001444C2F2010C40F6486EC2F2010E77E773460B
S3150000145483E69AF80910A1F13000C2B20A2A2AD307
S31500001464A1F14100C0B205281ED8A1F1370022E03F
S3150000147443F63061C0F200010020FFF75BFB4CE746
S3150000148440F6AC6044F27021C2F20100C0F20001E1
S31500001494CDF804E000F0A2FD00285FD043F67421E5
S315000014A40246C0F2000170E0A1F16100C0B2052855
S315000014B419D8A1F157009AF80A10A1F13002D3B253
S315000014C40A2B0ED3A1F14102D2B2052A02D8A1F108
S315000014D4370206E0A1F16102D2B2052A03D8A1F1CE
S315000014E4570242EA001B9AF80B20A2F13001C8B257
S315000014F40A285FFA8BF00ED3A2F14101C9B205297D
S3150000150402D8A2F1370106E0A2F16101C9B20529A8
S315000015143FD8A2F157019AF80C20A2F13003DEB2AB
S315000015240A2E0FD3A2F14103DBB2052B02D8A2F196
S31500001534370307E0A2F16103DBB2052B034604D8A7
S31500001544A2F1570343EA0111CBB2190441EA006040
S3150000155440F64061C2F201010860E3E643F6FB315E
S31500001564C0F2000100203822FFF7E4FA40F6AC602E
S31500001574C2F201004FF48031382200F0ADFE50B1C2
S3150000158444F23C010246C0F200010020FFF7D2FA01
S31500001594C8E60346D9E743F6CB21C0F20001002092
S315000015A4FFF7C8FADDF804E0012030705FEA09604D
S315000015B47FF492AEB6E640F64464C2F201042068B3
S315000015C440F64865C2F20105C8B110F07F0109D0A2
S315000015D440F6BC52C2F201021044C1F18001FF225E
S315000015E402F0CCF92A6840F6AC6040F6BC51C2F26F
S315000015F40100C2F20101802300F0DEFD58B900208B
S315000016042060286040F6BC50C2F201008021FF220F
S3150000161402F0B4F907E043F65D410246C0F2000168
S315000016240020FFF787FA43F68A71C0F20001002012
S31500001634FFF780FA40F6AC64C2F20104204600F0DB
S3150000164407FF43F6F741C0F200010020FFF772FAE4
S315000016544EF2FE30C4F201004AF202514EF2015239
S3150000166401805521C4F20102AA2380F802111370E5
S3150000167451704FF425419370018040F68460C2F2A4
S31500001684010001F02BFC204600F0E2FEFFF742FCCD
S3150000169480B56F4640F6546044F21021C2F2010050
S315000016A4C0F2000100F0A0F848B143F6A351024687
S315000016B4C0F200010020BDE88040FFF73BBA40F6C7
S315000016C4BC50C2F201008021FF2202F057F900BF8C
S315000016D4FEE7D4D4B0B502AF4EF201524EF2FE315B
S315000016E4C4F20102C4F2010191F8020113781B0449
S315000016F443EA00605378957840EA032045F2AA53FA
S315000017042844C5F2AA53984228D14AF202500880C6
S31500001714002081F802011070507090704FF4254239
S315000017240A804EF2802272B60121CEF2000200BF78
S3150000173400F01F034509013001FA03F3602842F85B
S315000017442530F5D14FF48030006880F308880420F2
S31500001754C0F201000068BDE8B0400047FFF7FCF99D
S3150000176443F60E31C0F200010020FFF7E3F944F21C
S31500001774BD1443F6A545C0F20004C0F2000505E019
S3150000178400202146FFF7D6F9FFF782FFFEF73EFE5B
S315000017940028FBD0FEF7A8FDC0B23228F0D03128CD
S315000017A404D000202946FFF7C5F9EFE743F6786130
S315000017B4C0F200010020FFF7BDF900BFFEE7D4D454
S315000017C4022818BF704740F64C6044F21C41C2F22E
S315000017D40100C0F2000100F01FBBD4D480B56F46EF
S315000017E4FFF778FF002080BD0A780123934013F0A9
S315000017F4060F06D0CB695B681B781B0744BF032022
S315000018047047F0B503AF2DE9000F48F20003C4F2A8
S31500001814110343EA02224FF00008026280F80080B6
S31500001824C1614B694EF2001C43628B69C0F8288083
S31500001834C3628378CEF2000C23F003035E1C867029
S315000018444E784FF0010E002E04BF43F0020383705E
S3150000185491F90B208D7A02F01F040EFA04F60CF1AE
S315000018648004530944F8236046F20039BFF34F8FCE
S31500001874C4F20009BFF36F8F59F8223040F6347A68
S3150000188423F4803349F8223059F822302B010CF521
S315000018944075C2F2010AAB544AF8220091F90520B8
S315000018A491F804B002F01F060EFA06F6530944F83E
S315000018B42360BFF34F8FBFF36F8F59F8223023F4A1
S315000018C4803349F8223059F822304FEA0B13AB54CF
S315000018D44AF8220091F9072091F806B002F01F0693
S315000018E40EFA06F6530944F82360BFF34F8FBFF38D
S315000018F46F8F59F8223023F4803349F8223059F88F
S3150000190422304FEA0B13AB544AF8220091F909200E
S3150000191491F808B002F01F060EFA06F6530944F8C9
S315000019242360BFF34F8FBFF36F8F59F822304FF008
S31500001934004423F4803349F8223059F822304FEA20
S315000019440B13AB544AF82200EFF310828EF310887F
S3150000195444F204050B78C4F208052E6824FA03F34E
S3150000196426EA03032B602B6882F31088026A82F846
S315000019740280026A82F80480026A82F80980026A96
S3150000198482F80A80026A82F80B80026AA2F81A8038
S315000019940A780EFA02F340F21922134202D0036ABD
S315000019A44024DC74036A06241C770B780EFA03F3CE
S315000019B4134203D0026A4FF478439382CA784E786E
S315000019C48B78D20042EA03122EB1032E08BF42F0EE
S315000019D44002F22600E0E226036A00251A70026A33
S315000019E49671CA690226137B06EA4306082B036A24
S315000019F408BF0A265E73066A537894783572167899
S31500001A04056A06F0FE06022E4FEAC31664F345166F
S31500001A1409D1FF236B701278022A026A08BF46F0C6
S31500001A241006D67116E0EE715268036A96785E70F7
S31500001A3456781D7806F0030605F0FC052E441E7044
S31500001A44D6789E74DE79127806F0A30602F05C025C
S31500001A543244DA710022C369C0E90322C0E90522CF
S31500001A64D1F81CE093F905309EF8001059F823408C
S31500001A7403F01F0524F4803449F8234059F8234021
S31500001A84012404FA05F60CF5C0755B09BFF35F8FF4
S31500001A9445F823604CF82360C36993F90B3059F871
S31500001AA4236026F4803649F8236059F8236003F04E
S31500001AB41F0604FA06F65B09BFF35F8F45F8236039
S31500001AC44CF82360C36993F9073059F8236026F468
S31500001AD4803649F8236059F8236003F01F0604FA98
S31500001AE406F65B09BFF35F8F45F823604CF8236065
S31500001AF4C36993F9093059F8236026F4803649F806
S31500001B04236059F8236003F01F06B4405B09BFF352
S31500001B145F8F45F823404CF823401C23066A63F381
S31500001B249F01B170BEF80A10018144F65511C5F241
S31500001B3443314160BDE8000FBDE8F04010467047F0
S31500001B44D0B502AF84B0EFF303804FF0704101EBE0
S31500001B54006046F200318015C4F20001425822F4B6
S31500001B6480324250415840F63471C2F201010C5899
S31500001B74E0690169206911B1E0B104B0D0BDC8B112
S31500001B84A07800F00301E068022905D10088216AE3
S31500001B9440F47E40C88102E00078216AC870A078CB
S31500001BA4216900F00302881AE16820611144E160AA
S31500001BB40028E2D1206A817801F07B01043181702A
S31500001BC4606A00284FF00000E060D6D0A06A40B1F9
S31500001BD4D0E900C2D0E90213CDE900C2CDE902136F
S31500001BE400E06846E169097801600021816080218E
S31500001BF40171E16AC160616A8847A06A00281CBF56
S31500001C049DE81E001EC004B0D0BDD4D4D0B502AF2A
S31500001C1486B0EFF303804FF0704101EB006046F2AB
S31500001C2400318015C4F20001425822F48032425039
S31500001C34415840F63471C2F201010C58A07800F004
S31500001C440302206A022A03D1018A6FF35F2100E0AE
S31500001C544179A0690191D0B1606901A901F097FEAB
S31500001C64A0786169A26900F003000144101A616159
S31500001C74A06134D1606A90B3A06AE0B1D0E900C231
S31500001C84D0E90213CDE902C2CDE9041314E0606A77
S31500001C9428B3A06A40B1D0E900CED0E90232CDE93A
S31500001CA402CECDE9043200E002A8E269127881602E
S31500001CB40260042106E002A8E169097801600021B6
S31500001CC4816001210171E16AC160616A8847A06A85
S31500001CD428B102AC1ECC016042608360C46006B0C9
S31500001CE4D0BDD4D4B0B502AF84B0EFF303804FF0C7
S31500001CF4704101EB006040F634728115C2F20102B4
S31500001D0455580416296A8A7802F07B028A70696A31
S31500001D14E1B1A86A40B1D0E900C2D0E90213CDE925
S31500001D2400C2CDE9021300E06846E969097801605A
S31500001D340021816002210171E96AC160696A8847EC
S31500001D44A86A00281CBF9DE82E002EC046F200306B
S31500001D54C4F2000050F8241021F4803140F8241015
S31500001D6450F8240004B0B0BDF0B503AF4DF804BD7F
S31500001D7484B0EFF303804FF0704101EB006040F64E
S31500001D8434728115C2F201025458A178236A01F013
S31500001D940301022903D1198A6FF35F2100E05979FF
S31500001DA41A79D50602F0380204D51D7F65F386122A
S31500001DB482F040021D7905F0C7051D71636A051698
S31500001DC4D3B1A06A40B1D0E900CED0E90263CDE92F
S31500001DD400CECDE9026300E06846E3691B788160C2
S31500001DE403600271E16AC160616A8847A06A0028DB
S31500001DF41CBF9DE84E004EC046F20030C4F20000FF
S31500001E0450F8251021F4803140F8251050F82500AB
S31500001E1404B05DF804BBF0BD80B56F4645F25422AC
S31500001E24C5F24F020260084600F002F8002080BDA9
S31500001E34F0B503AF4DF804BD044600F05FF840F674
S31500001E44307CEFF31080012181F31088C2F2010C7B
S31500001E54DCF8001039B940F60351C4F20801002237
S31500001E640A7040220A70DCF800100131CCF8001028
S31500001E7480F31088208820B340F6000E0021C4F2B7
S31500001E84080E07E00EEB801040F82230208801315E
S31500001E94814216D2606800EBC102928850F8313054
S31500001EA4100ADD03D2B2EDD50EEB801555F822608B
S31500001EB426F4803645F8226023F4803645F82260FD
S31500001EC4E0E7EFF31081012080F31088DCF80000CE
S31500001ED420B1DCF800000138CCF80000DCF8000082
S31500001EE438B940F60350C4F208000022027080227A
S31500001EF4027081F310885DF804BBF0BDF0B503AF42
S31500001F042DE9000F81B004460088002861D043F211
S31500001F1440084EF2BB4944F23E4BC4F20808002680
S31500001F24C4F20109C0F2000B04E000BF20880136A8
S31500001F3486424ED2002508E008F81500C820012183
S31500001F4401F02AFB0135032DF0D060683BF815201B
S31500001F5400EBC60189889142F4D150F8360099F80D
S31500001F640010012200F0B85002FA05FAB0F1807FA1
S31500001F740AEA010016D158B9012001F0DDFB99F8EF
S31500001F84000040EA0A0089F80000012001F0A8FBDD
S31500001F9418F915000028D5D418F8150040F080006B
S31500001FA4CAE700BF58B1012001F0C6FB99F800004A
S31500001FB420EA0A0089F80000012001F091FB18F9D3
S31500001FC41500B0F1FF3FBDDC18F8150000F07F00E6
S31500001FD4B2E701B0BDE8000FF0BDD4D4F0B503AF4D
S31500001FE42DE9000F41600A784EF2140C002AC4F25F
S31500001FF47F0C51D04A684FF0010E0264CA684EF253
S3150000200400198264002242648CF804E00B7C91F986
S315000020141160CEF2000940F634781D0109F54074CA
S31500002024C2F2010846F20032A55548F82600C4F269
S31500002034000252F8265009F5C07325F4803542F89B
S31500002044265052F8265006F01F050EFA05F57609B5
S31500002054BFF35F8F43F8265049F8265098258CF82D
S3150000206400508D7C91F913102D01655448F8210018
S3150000207452F8214024F4803442F8214052F82120B9
S3150000208401F01F020EFA02F24909BFF35F8F43F80B
S31500002094212049F8212004E000218CF804108CF852
S315000020A4001000214EF2200280F83C10C4F2010216
S315000020B440F66C711368C2F201010968C3F3026643
S315000020C401FA06F6C3F3027340F6001526FA03F383
S315000020D412684EF21646C0F23D05C4F20106AB4242
S315000020E44FF00105357062D344F23F24C0F20F0469
S315000020F44DF683652344C4F21B35A3FB053EC2F3A8
S3150000210402624FF0FF3323FA02F211400E19A6FBC6
S315000021140513990C43F6B8524AF6AB294A43C2F65C
S31500002124AA29A2FB095840F6D8654D43A5FB092AFE
S3150000213449F68172C1F25E62A6FB022B4FF4FA22C3
S315000021444AF6AB244A43CAF6AA24A2FB04254DF652
S315000021548062C0F20F024A43A2FB04244FF2A0722B
S31500002164C0F203024A43A2FB09264FF4F05202EBE3
S315000021749E42ACF8D0204FEA9B420261CA00A2EB11
S31500002184934252004261AA08826140F6B832514332
S315000021944162A108C0E9076144F24E51C4F6507188
S315000021A4C0E9028A01600020BDE8000FF0BD4FF4CB
S315000021B4FB70BDE8000FF0BDF0B503AF2DE9000FCD
S315000021C481B004465808A063002084F83C002046E9
S315000021D4C4E90C1200F0A8FB002878D160680078E6
S315000021E420B1012084F83C00002500E0E5684EF2A9
S315000021F4100640F20009C4F27F064FF49648C4F272
S315000022047E094FF0B30A4FF0000B00BF2046294663
S3150000221400F01AFB61680978002958D13178C9069B
S3150000222402D4002108E000BF316F490444BF31786D
S3150000223486F800B040F2F511326FD20448BF182177
S31500002244002818BF014671B1CDF8008089F800A0B6
S31500002254306F000406D4009828B100980138009025
S31500002264F6E700BF307811B9A06B0028CED14FF441
S315000022742A40B6F87420A6F87400B6F8740088B13B
S315000022844BF200530020CFF6FF7300BF002B08BFAC
S315000022944FF4FA70B6F874500133002DF6D1012AC2
S315000022A403D011E00020012A0ED14CF204124DF69F
S315000022B40113C4F20102B386012313801388002B91
S315000022C4FCD1012322F8043C002918BF084601B0BA
S315000022D4BDE8000FF0BDD4D4F0B503AF2DE9000F6F
S315000022E481B00446002084F83C0021F03F002063BE
S315000022F42046A26300F018FB10B14FF4FA70A2E076
S315000023046068007828B1022084F83C004FF0000889
S3150000231401E0D4F824804EF280010023C4F27F0148
S31500002324C4F27E03012008F1010C4FF0200E4FF099
S31500002334D00B4FF0B30AA1F8600000BF206BB8F1D0
S31500002344000F41F8500C83F800E083F800B0206BCE
S31500002354A56B00F140002063A5F10100A0630DD038
S3150000236408680004604609D40138064618BF0126E9
S315000023743BD00D682D04F7D5002001E0002001268E
S3150000238465682D78002D5ED111F8705CED0601D4D8
S31500002394002509E00D686D0404D511F8705C00226F
S315000023A401F8702C40F2F515D1F800905FEA8942E5
S315000023B448BF1925002E18BF284688B14FF4964207
S315000023C4009283F800A000BF0A68120406D4009A9B
S315000023D432B1009A013A0092F6E700BF11F8702C68
S315000023E428B9A26B002AA9D101E01420C8E74FF44A
S315000023F42A428B888A808A887AB14BF20056002258
S31500002404CFF6FF76002E08BF4FF4FA728D88013698
S31500002414002DF7D1012B03D012E00022012B0FD19E
S315000024244CF204134DF60116C4F2010321F83C6C78
S315000024340121198019880029FCD1012123F8041CE3
S31500002444002808BF104601B0BDE8000FF0BDD4D483
S3150000245480B56F464FF0000E4168C0F800E091F970
S3150000246411204EF2801C002ACEF2000C0DD4D2B2FA
S3150000247402F01F01012303FA01F1C2F342124CF8E0
S315000024842210BFF34F8FBFF36F8F4EF21402C4F2C4
S315000024947F0282F804E0406890F9130000280DD406
S315000024A4C0B200F01F01012303FA01F1C0F3421088
S315000024B44CF82010BFF34F8FBFF36F8F002100201D
S315000024C4117080BDF0B503AF4DF8048D82B080461F
S315000024D44068017801B390F91100012200F01F0150
S315000024E44EF2801302FA01F14009CEF2000343F8DA
S315000024F42010BFF34F8FBFF36F8FD8F8040090F905
S31500002504130000F01F0102FA01F1400943F82010FC
S31500002514BFF34F8FBFF36F8F4EF28405C4F27F056E
S31500002524288810B9404600F0FFF900204FF4964180
S31500002534C4F27E000091B321017000BF55F8041C5B
S31500002544090405D4009959B1009901390091F5E7B8
S3150000255415F8741C40F2F512C90602EAE17100E0AE
S3150000256414214FF4964201925022027055F8040C3D
S31500002574000405D4019858B1019801380190F5E793
S3150000258415F8740C40F2F512C00602EAE07000E099
S3150000259414204FF42A422B882A802A887AB14BF2D7
S315000025A400540022CFF6FF74002C08BF4FF4FA72D1
S315000025B42E880134002EF7D1012B03D012E000221D
S315000025C4012B0FD14CF204134DF60116C4F201038C
S315000025D425F8406C01261E801E88002EFCD101269B
S315000025E423F8046C002918BF08460021002808BFF8
S315000025F4104688F83C1002B05DF8048BF0BDD4D4C4
S31500002604F0B503AF4DF804BD84B04FF07041EFF35D
S31500002614038001EB006240F634719015C2F20101A9
S315000026240C584EF21000C4F27F0090F90010006FAF
S315000026340B074FEA22660BD400290BD4C9B2C9068C
S315000026444FF0070507D510F4405F08BF062502E0E2
S31500002654042500E005252046FFF734FF46F2003046
S31500002664C4F2000050F8261021F4803140F82610F8
S3150000267450F82600606C30B18268D0E900130392EA
S31500002684CDE9011300E001A8002105704160A16CA9
S315000026948160216C8847606C10B101AB0ECB0EC013
S315000026A404B05DF804BBF0BDB0B502AF84B0EFF37F
S315000026B403804FF0704101EB006040F634718015E1
S315000026C4C2F201010C5846F20031C4F2000142582C
S315000026D422F480324250405894F83C104EF2840062
S315000026E40229C4F27F0057D0012969D1A16B0029C0
S315000026F44FF0010172D062684EF2001C92F911206B
S31500002704CEF2000C02F01F03520901FA03F30CEB9C
S315000027148202C2F88030BFF34F8FBFF36F8F626BB4
S3150000272440F2000EC4F27E0E40F8542CE8228EF8D5
S31500002734002002228EF80020226B1288AEF80020B8
S315000027442269019250F8042C520505D5019A531EAC
S31500002754002A0193F6D13AE004F130052CCDC907DD
S3150000276402F1020203F10203A5F101054FF0000193
S3150000277422636363A563E0D1D0208EF8000060680D
S31500002784012290F9110000F01F0102FA01F140093B
S315000027944CF8201004B0B0BDA16BF1B1216B40F828
S315000027A4541C0020C4F27E0020210170D021017047
S315000027B4206BA16B40302063481EA06304B0B0BDFB
S315000027C490F850200221012A08BF032106E0204682
S315000027D404B0BDE8B040FFF775BE002102884FF48F
S315000027E42A4303800388002BFCD1012A10D14CF222
S315000027F404124DF60113C4F2010220F8403C0120F4
S31500002804108000BF10880028FCD1012022F8040C97
S31500002814606C4FF0000C84F83CC030B18568D0E998
S3150000282400320395CDE9013200E001A80170C0F839
S3150000283404C0A16C8160216C8847606C10B101AB47
S315000028440ECB0EC004B0B0BDB0B502AF81B0A1B915
S315000028544268012392F9112002F01F0C03FA0CFCC2
S315000028644EF200135209CEF2000303EB8202C2F8C1
S3150000287480C0BFF34F8FBFF36F8F4EF28002436B5E
S31500002884C4F27F0240F2000CC4F27E0C42F8503CC3
S31500002894E8238CF8003002238CF80030036B4FF0E9
S315000028A4010E1B88ACF800300369009313685B05BE
S315000028B406D5009B5C1E002B0094F7D11EE000BFDA
S315000028C400F1300538CD013D0233023485635FEAF9
S315000028D4CE754FF0000E03634463E2D1D0238CF827
S315000028E4003071B1106800041AD40131013905D0E1
S315000028F4106800044FF00000F8D512E0142001B06F
S31500002904B0BD4068012290F9110000F01F0102FADF
S3150000291401F14EF200124009CEF2000242F82010F4
S31500002924002001B0B0BDD4D4D0B502AF81B04FF40D
S315000029349641009141680A78B2B391F9111046F2B2
S315000029440032C4F2000252F821304EF2001E23F483
S31500002954803342F8213052F8213001F01F034FF042
S31500002964010CCEF2000E0CFA03F30EF5C0744909FD
S31500002974BFF35F8F44F821304EF82130406890F958
S31500002984130052F8201021F4803142F8201052F836
S31500002994201000F01F010CFA01F14009BFF35F8F0C
S315000029A444F820104EF820104EF28400C4F27F0042
S315000029B44AF68021018000BF0188802905D000994C
S315000029C431B1009901390091F6E7002001B0D0BD7C
S315000029D44FF4FA7001B0D0BDF0B503AF2DE9000F86
S315000029E481B08846814608680C6948F20001C4F241
S315000029F40A0101EB003AC9F804A0EFF310800121A3
S31500002A0481F31088D8F8002044F20403C4F20803C2
S31500002A14C2F102021E68914026EA01011960196892
S31500002A2480F31088C9F80080D8F8080099F80D20BA
S31500002A34C9F81C00D8F80C00C9F824004FF00000AF
S31500002A44C9F820002178D9F8040089F81810F2B1E1
S31500002A54B0F8401821F48061A0F84018B0F8401886
S31500002A6421F4407101F50071A0F84018B0F842183D
S31500002A7401F4E061B1F5007FF8D1002180F858181F
S31500002A8402204D4625F80C0F55F8080C04E04D4677
S31500002A9415F80C1F012916D0B0F8401821F48061EE
S31500002AA4A0F84018B0F8401821F4407101F580717F
S31500002AB4A0F84018B0F8421801F4E061B1F5807F3F
S31500002AC4F8D101202870207B217D400040EAC10016
S31500002AD440F2C1110843AAF84008D8F804000026B9
S31500002AE490E80E00C0F2FF3606EB0141314041EAA0
S31500002AF402716FF0FF0201F1704102EB0322C0681C
S31500002B0411434FF20002CFF6FF7202EB003099F840
S31500002B14182008431044CAF8440899F80D10D9F847
S31500002B240400D1B1B0F8401821F48061A0F840182F
S31500002B34B0F8401821F4407101F50071A0F840186E
S31500002B44B0F8421801F4E061B1F5007FF8D1002134
S31500002B5480F8581889F80D1017E02978022916D03C
S31500002B64B0F8401821F48061A0F84018B0F8401875
S31500002B7421F4407101F50071A0F84018B0F842182C
S31500002B8401F4E061B1F5007FF8D1022028708020BD
S31500002B940AF50076009540F2000B8AF85008304694
S31500002BA44FF4C071C1F6FC7B00F0EDFE0AF502603D
S31500002BB4002106E0002242540131182906F11006CC
S31500002BC426D0A36803EBC1029579002DF2D12569BD
S31500002BD4A942EFD2257B4DB1022D0DD115792DB128
S31500002BE4013DB5FA85F56D09ED0706E053F8313078
S31500002BF400250BEA834304E0002553F8313023F023
S31500002C04604352792B4343EA827232604022D2E710
S31500002C142369042B02D26FF07F4024E04FF6FE7244
S31500002C240AF580600021C1F6FF724FF00F0C0026F2
S31500002C3404E000BF0131B1EB930F11D2656855F87A
S31500002C4421509542F6D8237B002B08BF0BEA854515
S31500002C548B0040F821500CFA03F523692E43E9E76B
S31500002C646FF07F40B043009ECAF82804217BE069D8
S31500002C7449B102290CD1017B29B10139B1FA81F19B
S31500002C844909C90705E081680BEA8142002103E08E
S31500002C940021826822F06042437B114341EA83713A
S31500002CA4CAF82014217B49B102290CD1017D29B12E
S31500002CB40139B1FA81F14909C90705E001690BEA4D
S31500002CC48142002103E00021026922F06042437D33
S31500002CD4114341EA8371CAF82414217BD0E9000226
S31500002CE4002904BF0BEA80400BEA8242CAF81804A2
S31500002CF4CAF81C2499F80D10D9F80400F1B1B0F8FB
S31500002D04401821F48061A0F84018B0F8401821F466
S31500002D14407101F50071A0F8401800BFB0F84218E0
S31500002D2401F4E061B1F5007FF8D1002180F858186C
S31500002D340221D9F80400A9F80C1001E0317891B108
S31500002D44B0F8401821F48061A0F84018B0F8401893
S31500002D5421F44071A0F84018B0F8421811F4E06F5D
S31500002D64FAD100203070BAF8400840F02000AAF8E2
S31500002D74400800BFBAF840088006FBD498F814004F
S31500002D844EF2001E98F91550CEF2000E40F6347C31
S31500002D9401010EF54073C2F2010C46F20032595598
S31500002DA44CF82590C4F2000252F8251005F01F06CF
S31500002DB421F4803142F8251052F82510012101FA38
S31500002DC406F00EF5C0766D09BFF35F8F46F8250051
S31500002DD44EF8250098F8140098F916500001585535
S31500002DE44CF8259052F8250020F4803042F825004E
S31500002DF452F8250005F01F0001FA00F06D09BFF333
S31500002E045F8F46F825004EF8250098F8140098F9C7
S31500002E141750000158554CF8259052F8250020F417
S31500002E24803042F8250052F8250005F01F0001FA0B
S31500002E3400F06D09BFF35F8F46F825004EF82500B4
S31500002E443E208AF84C08A46998F8140094F90550B1
S31500002E54000158554CF8259052F8250020F480308E
S31500002E6442F8250052F8250005F01F0001FA00F08B
S31500002E746D09BFF35F8F46F825004EF8250098F8D4
S31500002E84140094F90450000158554CF8259052F852
S31500002E94250020F4803042F8250052F8250005F07C
S31500002EA41F0001FA00F06A09BFF35F8F46F822009B
S31500002EB44EF82200206860F07F40CAF82C048AF895
S31500002EC44A188AF8481844F24E11C5F243210020E4
S31500002ED4C9F8081001B0BDE8000FF0BDD0B502AFC7
S31500002EE44FF0000C0168C0F808C091F915304FF096
S31500002EF4010E03F01F0259094EF280130EFA02F274
S31500002F04CEF2000343F82120BFF34F8FBFF36F8F38
S31500002F14016891F9161001F01F020EFA02F249092E
S31500002F2443F82120BFF34F8FBFF36F8F016891F9E8
S31500002F34171001F01F020EFA02F2490943F8212084
S31500002F44BFF34F8FBFF36F8F01680969896991F9E0
S31500002F54052002F01F040EFA04F4520943F8224035
S31500002F64BFF34F8FBFF36F8F91F9041001F01F0267
S31500002F740EFA02F2490943F82120BFF34F8FBFF33B
S31500002F846F8F416844F2040281F84AC881F848C840
S31500002F9481F84CC8C1F82CC4EFF310818EF3108865
S31500002FA40068C4F2080200681368C0F102000EFA51
S31500002FB400F018431060106881F310880020D0BD1B
S31500002FC4F0B503AF2DE9000B94B0EFF303804FF097
S31500002FD4704101EB006046F200328015C4F2000233
S31500002FE4835823F4803383508058EFF3038001EB36
S31500002FF4006040F634718015C2F2010151F8008078
S3150000300468460430242100F0BEFCD8F80490002160
S3150000301499F84D08ADF8040089F84D18B9F8422816
S31500003024D20616D540F02000ADF80400022199F826
S31500003034530889F8531899F8521889F8530801F077
S315000030441F0109EB010090F8202802F0FB0280F82A
S315000030542028D8F80000EC460268D8E90803009254
S31500003064CDE9031388B1034676CB0DF1280EAEE8FD
S31500003074760093E876008EE87600BCE87C0001468C
S315000030847CC19CE87C007CC100E06046D8F81C103A
S315000030948847D8F8200028B10AA97CC97CC091E8E1
S315000030A47C007CC0D8F800000169B9F84228D20631
S315000030B413D5097D89B190F9150000280DD4C0B245
S315000030C400F01F01012202FA01F11C2202EAD000DB
S315000030D44EF20022CEF20002815014B0BDE8000B7D
S315000030E4F0BDD4D4F0B503AF2DE9000F95B0EFF3DE
S315000030F403804FF0704101EB006046F20031801509
S31500003104C4F20001425822F4803242504058EFF390
S315000031140380103840F634714FFA80F9C2F2010187
S3150000312451F829B04FF48061ADF80810DBE9001AB4
S31500003134C0B20969D1F8188098F8051088420FD1F1
S315000031449AF84808C00609D59AF8480800F0EF002E
S315000031548AF848084FF48840ADF808001C200AE0B5
S3150000316400209AF853188AF853089AF852088AF8ED
S31500003174531800F01F00DBF8041001EB0013D3F81A
S315000031840022C2F380748DF81D40DBF800402469E8
S31500003194247BD3F8005204F0010454EAD5758DF863
S315000031A41C5022F0604508BFC2F38A450695B3F861
S315000031B4042202F00F05082D2A4628BF08228DF89E
S315000031C41E205DB101AD05F11F0403F2052300BF06
S315000031D413F8015F013A04F8015FF9D11C2803D101
S315000031E4FF2281F8492803E00144442281F820287B
S315000031F4002108910490DBF800000DF1040C01682D
S31500003204DBE908020191059288B1034676CB0DF1FC
S315000032142C0EAEE8760093E876008EE87600BCE8DD
S315000032247C0001467CC19CE87C007CC100E06046D1
S31500003234DBF81C108847DBF8200028B10BA97CC9F1
S315000032447CC091E87C007CC098F805005FFA89F19F
S31500003254814208D19AF8480840EA090040B2B0F120
S31500003264FF3F08DC14E0BAF84208B9F1000F0FD4A6
S3150000327410F001000CD009F01F00012101FA00F042
S315000032841C214EF2002201EAD901CEF20002885036
S3150000329415B0BDE8000FF0BDF0B503AF2DE9000F82
S315000032A495B0EFF303804FF0704101EB006046F2F6
S315000032B400318015C4F20001425822F48032425093
S315000032C44058EFF30380A0F1100140F6347248B27F
S315000032D4C2F2010252F820B05FFA81F8DBE9000A73
S315000032E40269D2F8189099F8042090450AD1182159
S315000032F4049199F8031089074FF4205158BF4FF4ED
S31500003304006116E001219AF853088AF853189AF8CE
S3150000331452188AF8530801F01F010AEB0100002233
S3150000332480F8202880F820280491DBF800004FF468
S315000033340061ADF808100168DBE908020DF1040C20
S315000033440191059288B1034676CB0DF12C0EAEE8B9
S31500003354760093E876008EE87600BCE87C000146A9
S315000033647CC19CE87C007CC100E06046DBF81C1054
S315000033748847DBF8200028B10BA97CC97CC091E8FA
S315000033847C007CC099F80400804517D0BAF842083E
S31500003394800713D5DBF8000090F9170000280DD438
S315000033A4C0B200F01F01012202FA01F11C2202EA56
S315000033B4D0004EF20022CEF20002815015B0BDE8D4
S315000033C4000FF0BD4EF22000C4F20100817940F2F4
S315000033D450420068C2F2000252F82110C0F30260A3
S315000033E421FA00F040F66C71C2F2010108607047E0
S315000033F4F0B503AF2DE9000B4EF28044C4F201048C
S315000034044CF204154AF20350C4F2010524F8820C66
S315000034140120288028880028FCD1012025F8040CE6
S3150000342440F2504842F600504CF2002C4EF2200670
S31500003434C2F20008C0F2311041F200214FF40042FA
S3150000344443F20063C0F6EB3CC4F20106C0F27A0113
S31500003454C0F26E1388E80F00C8E9042CB07931680D
S3150000346458F82000C1F3026140F66C79C840C2F2F4
S315000034740109C9F80000002004F86D0C092086F83B
S315000034848200207810B9607880073ED0207840B951
S3150000349401202070C820012100F07EF82078012840
S315000034A4FCD10020607020700020B074307F0007CB
S315000034B4FCD543F2021030810020B072307F8006C2
S315000034C4FCD50120287641F22120C2F20210306098
S315000034D40520B071B079316858F82000C1F3026153
S315000034E4C840C9F8000042F20C00C4F20000F12101
S315000034F40170002100F8041CF02101704FF42540EE
S3150000350424F8820CBDE8000BF0BD4FF47A7000F08D
S3150000351401F8C9E77047D4D4B0B502AF43F2240426
S31500003524C4F208040025C8200121257100F034F8EE
S31500003534257000BF20780028FCD1207840F00200D6
S31500003544207000BF20788007FCD4002004F8020C09
S3150000355414F8020C0028FBD1002004F11C0100BF62
S3150000356411F8102002F07F0201F8102011F9102042
S31500003574002AFBD401300328F2D1012000F0DCF844
S315000035844EF2BB41C4F20101002201200A70BDE8DB
S31500003594B04000F0A5B8D4D4484340F66C71C2F2EA
S315000035A4010109684CF6002348F63812C3F69A332B
S315000035B4C0F24102B3FBF1F1904206D24FF47A72A3
S315000035C45043B0FBF1F0800807E08900B0FBF1F04E
S315000035D4904207D24FF47A714843002808BF7047D7
S315000035E400F004B84FF0FF3000F000B801380028AE
S315000035F4FCD17047F0B503AF2DE9000B46F2201855
S31500003604C4F20008B8F80000B8F8201040F6F865CF
S3150000361401EA00091FFA89F60024C2F2010502E054
S3150000362401340E2C0AD026FA04F0C007F8D055F857
S3150000363424100029F4D0E0B28847F1E7A8F81090E6
S31500003644BDE8000BF0BDD4D4F0B503AF4DF804BD0E
S3150000365484B048F248060320C4F2000600F06CF871
S315000036646FF0FF0044F2284430604FF0FF30002131
S31500003674C0F200040122CDE9020000BF34F8113083
S3150000368402FA01F5002B01F1010118BFA8430B2929
S31500003694F4D14EF280320190002001A9CEF200024C
S315000036A451F8203006EB8005AB6242F82030013039
S315000036B40328F5D1032000F013F846F20031002068
S315000036C4C4F2000134F81020002A18BF41F8202063
S315000036D401300B28F6D104B05DF804BBF0BDD4D498
S315000036E40122EFF3108182F3108840F66072C2F271
S315000036F4010232F8103023B132F81030013B22F8BF
S31500003704103032F8102012B181F3108870474EF24F
S31500003714FE3CC4F2010C44F2AC42BCF80030C0F2E8
S31500003724000232F8100043F4254222EA0000ACF805
S31500003734000081F31088704780B56F460122EFF3CD
S31500003744108182F3108840F66072C2F2010232F8E8
S3150000375410308BB94EF2FE3C44F2AC43C4F2010C79
S31500003764C0F20003BCF800E033F8103043EA0E035D
S3150000377443F42543ACF8003032F81030013322F814
S31500003784103081F3108880BD80B56F4600F006F8CE
S31500003794FEF724F8FEE7D4D400BE7047F0B503AFB5
S315000037A42DE9000B4EF60850CEF200004FF47001DE
S315000037B4C0F8801040F20001C0F200010160002050
S315000037C4FDF7FEFFFFF714FE0120FDF7F9FF44F2B3
S315000037D44448C0F20008D8F8006040F25000C2F233
S315000037E4000080F30A8896B1D8F804003546041D13
S315000037F404E000BF013D04F10C0408D06079002800
S31500003804F8D154E90101091A00F0BDF8F2E7D8F835
S315000038140890B9F1000F13D0D8F80C004D4600F10A
S31500003824080403E0013D04F1100409D0607900287E
S31500003834F8D154E902022168121A00F0A8F8F1E757
S31500003844FFF7C0FDFFF768FE0320FFF775FF40F69C
S315000038540E510820C4F208014FF6FF72013821F810
S31500003864022FFBD10320FFF73BFF0320FFF764FF82
S315000038740420C4F20E000021016041608160C16031
S315000038840320FFF72DFF0220FDF79AFFA6B1D8F813
S3150000389404004FF48075041D04E000BF013E04F1EA
S315000038A40C0409D06079B5EB002FF7D154E9010176
S315000038B4091A00F068F8F1E7B9F1000F16D0D8F844
S315000038C40C004FF4807600F1080404E0B9F1010914
S315000038D404F110040AD06079B6EB002FF6D154E94E
S315000038E402022168121A00F052F8EFE740F67474E7
S315000038F4C2F20104204600F021F8204600F034F814
S3150000390444F2065044F20651C0F20000C0F200012F
S31500003914091A8C10012C06DB051F00BF55F8040F8D
S315000039248047013CFAD1FFF78FFE0020BDE8000B6B
S31500003934BDE8F04000F000B87047D4D4D0B502AF6B
S3150000394405490446054A00F022F80548054920447D
S3150000395400F019F8D0BD00BFD4000000000000003C
S3150000396400000000000000000249401A02490860F5
S31500003974704700BF08000000700F01200B46114677
S315000039841A4600F00EB80A46002100F00AB8D0B56F
S3150000399402AF00239A4203D0CC5CC4540133F9E746
S315000039A4D0BD00239A4208BF7047C1540133F9E7DA
S315000039B40000000000005454522052454747455326
S315000039C4005B424F4F544C4F414445525D20525F79
S315000039D4464C4153485F48505F4F70656E206661A0
S315000039E4696C65643A2025640D0A005B424F4F54A6
S315000039F44C4F414445525D204552524F523A20465F
S31500003A04696C652073697A65206D69736D61746389
S31500003A14682E20457870656374656420256C752C62
S31500003A2420676F7420256C752E0D0A005B424F4F7C
S31500003A34544C4F414445525D204552524F523A2010
S31500003A444669726D776172652073697A65202825E7
S31500003A546C7529206578636565647320627566668E
S31500003A6465722073697A6520282564292E0D0A005B
S31500003A745B4845585D20525F464C4153485F485069
S31500003A845F4F70656E206661696C65643A202564D3
S31500003A940D0A005B424F4F544C4F414445525D2042
S31500003AA4496E2053544154455F4552524F522E207D
S31500003AB457616974696E6720666F72206E65772038
S31500003AC4534F542E0D0A005B4845585D20457261DC
S31500003AD4736520636F6D706C6574652E0D0A005BEB
S31500003AE4424F4F544C4F414445525D204552524F2C
S31500003AF4523A20496E76616C696420534F542044CF
S31500003B044C433A2025642E0D0A000D0A5072657343
S31500003B14732027312720666F722043414E2075702B
S31500003B24646174652C206F722027322720666F72B9
S31500003B34205541525420282E6865782920757064D2
S31500003B446174652E2E2E0D0A005B424F4F544C4F66
S31500003B54414445525D205472616E736665722073EA
S31500003B6475636365737366756C2E205265636F6E39
S31500003B74737472756374656420256C752062797438
S31500003B8465732E0D0A005B43414C4C4241434B5D29
S31500003B9420556E6B6E6F776E204576656E74204980
S31500003BA4443A2025640D0A005B424F4F544C4F4162
S31500003BB44445525D205374617465202D3E20535450
S31500003BC44154455F434F4D504C4554452E0D0A0014
S31500003BD45B424F4F544C4F414445525D20537461F0
S31500003BE47274696E6720666C617368207772697493
S31500003BF4652E2E2E0D0A005B4845585D20466972D7
S31500003C0473742064617461207265636F72642E201C
S31500003C1445726173696E6720256C7520626C6F63EB
S31500003C246B73206F662061707020617265612E2E41
S31500003C342E0D0A005B424F4F544C4F414445525D92
S31500003C4420466C61736820657261736520636F6DCD
S31500003C54706C6574652E0D0A005B4845585D2052EC
S31500003C645F464C4153485F48505F577269746520FC
S31500003C746661696C65643A2025640D0A005B4341FC
S31500003C844C4C4241434B5D204576656E743A204266
S31500003C946C616E6B20436865636B204F4B2E0D0A77
S31500003CA400496E76616C69642073656C656374693A
S31500003CB46F6E2E20507265737320273127206F7222
S31500003CC4202732272E0D0A00284E554C4C29005B1E
S31500003CD443414C4C4241434B5D204576656E743AF4
S31500003CE420577269746520436F6D706C6574652E18
S31500003CF40D0A0053657474696E67206D61726B6595
S31500003D047220616E6420726573657474696E672EC1
S31500003D142E2E0D0A005B424F4F544C4F41444552E0
S31500003D245D20525F43414E5F4F70656E2066616948
S31500003D346C65643A2025640D0A005B424F4F544C6F
S31500003D444F414445525D2043414E20647269766575
S31500003D5472206F70656E65642E2057616974696E92
S31500003D646720666F72206669726D776172652E2EA2
S31500003D742E0D0A005B43414C4C4241434B5D202AC5
S31500003D842A204552524F523A2047656E657269633E
S31500003D94204661696C7572652E202A2A0D0A005B1D
S31500003DA44845585D20525F5343495F554152545F1D
S31500003DB44F70656E206661696C65643A2025640DF2
S31500003DC40A005B424F4F544C4F414445525D2045D7
S31500003DD452524F523A204F7574206F66206F7264A8
S31500003DE46572207061636B65742E20457870656317
S31500003DF47465642025752C20676F742025752E0D37
S31500003E040A005B43414C4C4241434B5D202A2A2025
S31500003E144552524F523A20436F6D6D616E64204C89
S31500003E246F636B65642E202A2A0D0A005B48455889
S31500003E345D20556E6B6E6F776E207265636F72646C
S31500003E4420747970653A20253032580D0A005B4299
S31500003E544F4F544C4F414445525D20466C61736844
S31500003E64204572617365204661696C65643A202554
S31500003E74640D0A0043414E206D6F64652073656CC2
S31500003E8465637465642E2057616974696E6720667C
S31500003E946F72206669726D77617265207061636BFB
S31500003EA46574732E2E2E0D0A005B424F4F544C4FF1
S31500003EB4414445525D20466C6173682057726974AB
S31500003EC465204661696C65643A2025640D0A005BC9
S31500003ED4424F4F544C4F414445525D20466C6173EA
S31500003EE46820636F6D706C6574652E2053657474F9
S31500003EF4696E67206D61726B657220616E642072F3
S31500003F046573657474696E672E0D0A005B424F4FC4
S31500003F14544C4F414445525D204552524F523A202B
S31500003F245265636569766564206461746120776FA0
S31500003F34756C64206F766572666C6F772062756641
S31500003F446665722E0D0A005B424F4F544C4F414436
S31500003F5445525D204F726967696E616C2073697A98
S31500003F64653A20256C752C20506164646564207361
S31500003F74697A6520666F7220666C6173683A2025DB
S31500003F846C752E0D0A005B4845585D20456E64200D
S31500003F946F662046696C65207265636F7264207271
S31500003FA4656365697665642E20466C617368696E1F
S31500003FB46720636F6D706C6574652E0D0A00546519
S31500003FC4726D696E616C005B424F4F544C4F4144B5
S31500003FD445525D2043414E204572726F72204576EC
S31500003FE4656E743A20256C750D0A005B43414C4C92
S31500003FF44241434B5D204576656E743A20426C61BE
S315000040046E6B20436865636B204661696C20284E9D
S315000040146F7420426C616E6B292E0D0A005B424F51
S315000040244F544C4F414445525D2053746172746938
S315000040346E672E2E2E0D0A005B4845585D20466C91
S3150000404461736820657261736520636F6D6D616E5F
S3150000405464206661696C65643A2025640D0A005B18
S31500004064424F4F544C4F414445525D20454F5420D6
S3150000407472656365697665642E0D0A005B43414C7F
S315000040844C4241434B5D202A2A204552524F523A14
S31500004094204461746120466C6173682041636365E2
S315000040A473732E202A2A0D0A005B424F4F544C4F3D
S315000040B4414445525D20534F5420726563656976C9
S315000040C465642E20457870656374696E6720256C77
S315000040D4752062797465732E0D0A005B4845585D38
S315000040E420436865636B73756D206572726F722108
S315000040F40D0A005B43414C4C4241434B5D204576DF
S31500004104656E743A20457261736520436F6D706CF9
S315000041146574652E0D0A005B424F4F544C4F414463
S3150000412445525D205374617465202D3E20535441DD
S3150000413454455F524543454956494E472E0D0A009C
S315000041445B424F4F544C4F414445525D205374617A
S315000041547274696E6720666C617368206572617338
S31500004164652E2E2E0D0A005B424F4F544C4F414490
S3150000417445525D20466C61736820777269746520C8
S31500004184636F6D706C6574652E0D0A005B43414C5C
S315000041944C4241434B5D202A2A204552524F523A03
S315000041A420436F646520466C6173682041636365D0
S315000041B473732E202A2A0D0A0055415254206D6F1E
S315000041C464652073656C65637465642E2053656E3F
S315000041D464202E6865782066696C65206E6F772E7C
S315000041E42E2E0D0A00303132333435363738394104
S315000041F44243444546D4D4D40001000000000020C4
S315000042040F00FFFF00000000FFFF00000002000097
S315000042140E070E080E090E0A00000000000000003A
S31500004224D10F000000000000FC4100000000001354
S3150000423406050000010000001400002018000020FC
S3150000424402000000040000000000000030420000EC
S31500004254380000200000000004000020B10B00001C
S3150000426400000000384200000C02030401000000B4
S315000042743D0F000000000000000000000D000D01CD
S315000042840080000000000000008000000100000023
S31500004294008000000200000000800000030000000F
S315000042A4008000000400000000400000050000003B
S315000042B40040000006000000008000000700000027
S315000042C41040000008000000008000000E000000FE
S315000042D4008000000F00000000000104000100003F
S315000042E400000104010100000000011002010000A9
S315000042F40000011003010000000001110401000088
S31500004304040000000501000004000000060100008E
S31500004314040000000701000000000100080100007D
S315000043240000010009010000000001000A0100006C
S31500004334000001030B010000400001040C01000011
S31500004344400001040D010000040000000E010000FD
S31500004354040000000F01000000000100000300003B
S31500004364040000000403000000000111050300001E
S3150000437400000111060300000000011107030000FC
S31500004384040000000304000004000000040400000C
S3150000439404000000050400000400000006040000F8
S315000043A4400001050804000040000105090400005E
S315000043B4000001040D040000104000000E0400007B
S315000043C4040000000F040000104000000205000075
S315000043D4000001110305000000000111050500009D
S315000043E4000001050006000040000105010600006A
S315000043F44000010502060000000001050306000056
S31500004404040000000806000004000000090600007D
S31500004414040000000A060000330000008442000085
S315000044240000000031003000A100A400A500A20095
S31500004434A3008001810182018301020403040404B0
S315000044440200000054440000040000006C44000014
S3150000445470040020740F012000000003740F012073
S31500004464740F01200000000300000020000000205B
S315000044740000006000010C03000000200000002082
S315000044840000000800000203000000205000002085
S315000044948400000000000103740F0120740F012042
S315000044A4D40000000000010301000200080010000F
S315000044B42000D4D400000206362E322E3000427577
S315000044C4696C7420776974682052656E65736173CC
S315000044D420416476616E63656420466C6578696222
S315000044E46C6520536F667477617265205061636BE7
S315000044F46167652076657273696F6E20362E322E7B
S3070000450430007F
S3090100A100FFFFFFFF58
S3090100A200FFFDFFFF59
S3090100A280F8F8FFFFE5
S7050000378D36
